:100000000C9442000C9405030C9433030C946D0380
:100010000C949B030C94C9030C946A000C94300557
:100020000C9454050C9478050C94DB040C94930404
:100030000C94B7040C94FF040C9419040C943D0424
:100040000C9461040C946A000C9493090C94DB09E1
:100050000C94B7090C9416020C946A000C946A0074
:100060000C94EE070C946A003A022903570391039B
:10007000BF03ED03850423059C051408FF093C0A12
:10008000610B650B11241FBECFEFD8E0DEBFCDBFE3
:1000900012E0A0E0B1E0E0E2F7E102C005900D92CD
:1000A000A831B107D9F722E0A8E1B2E001C01D9262
:1000B000A23AB207E1F710E0C1E4D0E004C0219712
:1000C000FE010E947D0BC433D107C9F70E94440A88
:1000D0000C94830B0C940000E82FF0E0ED5FFE4FD2
:1000E000808161118068411101C080950895FC01F3
:1000F0001382128211821082878183708783DF01CD
:100100001896CF0140962FEF2D9317961C921797B4
:10011000A817B907C9F7878194819E7F9D7F948333
:100120008E7F826087831682158208950895FF92DC
:100130000F931F93CF93DF93EC018F8183708F8395
:100140008C818E7F8C8381FB002700F981FD0BC0A1
:1001500080ED90E09E838D83802FDF91CF911F9162
:100160000F91FF9008958EEF860F873030F082E177
:1001700090E09E838D8300E0EFCFF42E162F8A81CE
:100180009B810E94FB02181719F08BED90E0F1CFD4
:10019000A881B9811296ED91FC91139716968C91D6
:1001A0009F8190FD29C09081892B808365E08881A3
:1001B00099810E94AE028F81EA81FB81A281B38185
:1001C00081FF1EC09C918681809589238C9365E078
:1001D0008A819B810E94AE028F81F0FA80F91150D2
:1001E0001770110F110F837E182B1F838C81816074
:1001F0008C831E821D82B0CF908180958923D5CFBC
:100200008C919681892BE2CFDF92EF92FF920F9330
:100210001F93CF93DF93EC011B821A8219821882FD
:100220008C818D7F8C838F818F718F8384ED90E0A3
:100230006115710551F0D22E7A018B01CB010E941C
:10024000FB02883069F08BED90E09E838D8380E027
:10025000DF91CF911F910F91FF90EF90DF90089564
:10026000E114F10419F485ED90E0EFCFFB82EA820E
:10027000198308838F81D0FA81F98F838C81826002
:100280008C831E821D8281E0E3CF1F93CF93DF9387
:10029000DC0114968C911497182F117080FD0BC0FF
:1002A00084E090E016969C938E931597812FDF91B2
:1002B000CF911F910895CD91DC911197EA81FB8137
:1002C0008E8117969C91179790FD52C09081892B33
:1002D00080831296CD91DC911397EA81FB818E8108
:1002E00017969C91179791FF47C09081809589231D
:1002F000808317968C911797E82FE295E695E77023
:10030000869586958770E817D1F1EF5FE770ED016C
:100310008E2F8295880F807E4F814F71482B4F839F
:100320004170EA0FFB2FF11D608980850E946C00EF
:10033000682F888199810E94E0028F81EA81FB8188
:10034000282F229526952770A281B38181FF19C09D
:100350008C919385290F3327331F41E050E001C072
:10036000440F2A95EAF7842B8C931E821D829ECF20
:10037000908180958923ACCF9081892BB9CFE0E023
:10038000C6CF4C918385280F3327331F81E090E03F
:1003900001C0880F2A95EAF780958423E5CFCF9393
:1003A000DF93DC0161157105F1F017962C91179719
:1003B00026952695277030E080E0E82FF0E02E1794
:1003C0003F07DCF0EB01CE0FDF1F9881ED01CE0F70
:1003D000DF1F98874115510521F0E40FF51F90812B
:1003E000988B8F5FEACF81E190E016969C938E9375
:1003F000159780E0DF91CF91089516961C921E927A
:10040000159781E0F7CFFC01158280858E7F80876C
:1004100080818C7F8B7F80838FE090E097838683C1
:100420001382148212821182089508951F920F92EE
:100430000FB60F9211242F933F934F935F936F93B7
:100440007F938F939F93AF93BF93EF93FF930E94FC
:100450001502FF91EF91BF91AF919F918F917F9185
:100460006F915F914F913F912F910F900FBE0F9021
:100470001F90189588E192E00C940302FC01118210
:10048000108213821282158214821682138687814B
:100490008E7F878381E082878485807F8487118631
:1004A00010860895CF93DF93FC0183ED90E06115F2
:1004B000710541F0A42FA20FBB27BB1F519744F039
:1004C00086ED90E09187808780E0DF91CF9108955D
:1004D0008FEF820F803118F087ED90E0F3CFC1E00D
:1004E000D0E0022E02C0CC0FDD1F0A94E2F7219764
:1004F000042E01C0CC0F0A94EAF7CB01809763E089
:1005000070E00E94690BDB01AA0FBB1FA60FB71F8B
:10051000CD01819691838083019693838283029794
:1005200095838483C68343878781816087832F7007
:100530008485807F282B248791968C919197C095F4
:10054000C8239196CC93A281B3819C91868180959A
:1005500089238C931186108681E0B7CFFC019781A7
:10056000892F817090FF05C09285961303C0118674
:10057000108608956330A1F06530F9F0613071F4B0
:10058000A081B1812C919681909592239C93A28118
:10059000B3812C919681909592239C936287E7CFAB
:1005A000A081B1812C919681909592239C93A281F8
:1005B000B3819C912681922BF0CFA081B181F9CF9C
:1005C000FC019781892F817090FD05C024E030E007
:1005D000318720870895A281B3819C91238501C032
:1005E000660F2A95EAF769272681622369276C93AB
:1005F000118610860895FC01278120FF03C08485A1
:100600008F70089580E0089508951F920F920FB69D
:100610000F9211242F933F934F935F936F937F9388
:100620008F939F93AF93BF93EF93FF930E94040325
:10063000FF91EF91BF91AF919F918F917F916F91BA
:100640005F914F913F912F910F900FBE0F901F9090
:100650001895E1E2F2E0118280818E7F808313821F
:100660001282089508951F920F920FB60F921124CF
:100670002F933F934F935F936F937F938F939F93AA
:10068000AF93BF93EF93FF930E943203FF91EF91DB
:10069000BF91AF919F918F917F916F915F914F919A
:1006A0003F912F910F900FBE0F901F901895E5E28C
:1006B000F2E0118280818E7F8083138212820895FE
:1006C000FC01ABE6B0E08C916C936183808181602A
:1006D00080831382128281E008951F920F920FB6D9
:1006E0000F9211242F933F934F935F936F937F93B8
:1006F0008F939F93AF93BF93EF93FF930E94210B30
:10070000FF91EF91BF91AF919F918F917F916F91E9
:100710005F914F913F912F910F900FBE0F901F90BF
:100720001895E9E2F2E0118280818E7F8083138246
:100730001282089508951F920F920FB60F921124FE
:100740002F933F934F935F936F937F938F939F93D9
:10075000AF93BF93EF93FF930E949A03FF91EF91A2
:10076000BF91AF919F918F917F916F915F914F91C9
:100770003F912F910F900FBE0F901F901895EDE2B3
:10078000F2E0118280818E7F80831382128208952D
:1007900008951F920F920FB60F9211242F933F933B
:1007A0004F935F936F937F938F939F93AF93BF9379
:1007B000EF93FF930E94C803FF91EF91BF91AF9118
:1007C0009F918F917F916F915F914F913F912F9169
:1007D0000F900FBE0F901F901895E1E3F2E0118289
:1007E00080818E7F8083138212820895FC0184B5FC
:1007F00095B58C7F262F2370822B262F30E03595E0
:1008000027953595279573E0220F331F7A95E1F7E9
:10081000977F922B987F942B84BD95BD62834183F3
:100820008081816080831482138281E0089508951D
:1008300008951F920F920FB60F9211242F933F939A
:100840004F935F936F937F938F939F93AF93BF93D8
:10085000EF93FF930E945D0BFF91EF91BF91AF91DA
:100860009F918F917F916F915F914F913F912F91C8
:100870000F900FBE0F901F9018951F920F920FB6FA
:100880000F9211242F933F934F935F936F937F9316
:100890008F939F93AF93BF93EF93FF930E9417049F
:1008A000FF91EF91BF91AF919F918F917F916F9148
:1008B0005F914F913F912F910F900FBE0F901F901E
:1008C00018951F920F920FB60F9211242F933F93FA
:1008D0004F935F936F937F938F939F93AF93BF9348
:1008E000EF93FF930E941804FF91EF91BF91AF9196
:1008F0009F918F917F916F915F914F913F912F9138
:100900000F900FBE0F901F901895E5E3F2E0118253
:10091000128280818E7F80831482138208950895CD
:100920000895089508951F920F920FB60F92112403
:100930002F933F934F935F936F937F938F939F93E7
:10094000AF93BF93EF93FF930E948F04FF91EF91BA
:10095000BF91AF919F918F917F916F915F914F91D7
:100960003F912F910F900FBE0F901F9018951F92DF
:100970000F920FB60F9211242F933F934F935F93D3
:100980006F937F938F939F93AF93BF93EF93FF9357
:100990000E949004FF91EF91BF91AF919F918F9131
:1009A0007F916F915F914F913F912F910F900FBE6B
:1009B0000F901F9018951F920F920FB60F9211244F
:1009C0002F933F934F935F936F937F938F939F9357
:1009D000AF93BF93EF93FF930E949104FF91EF9128
:1009E000BF91AF919F918F917F916F915F914F9147
:1009F0003F912F910F900FBE0F901F9018951F924F
:100A00000F920FB60F9211242F933F934F935F9342
:100A10006F937F938F939F93AF93BF93EF93FF93C6
:100A20000E949204FF91EF91BF91AF919F918F919E
:100A30007F916F915F914F913F912F910F900FBEDA
:100A40000F901F901895EAE3F2E0118212828081E4
:100A50008E7F8083148213820895089508950895E7
:100A60001F920F920FB60F9211242F933F934F9323
:100A70005F936F937F938F939F93AF93BF93EF9306
:100A8000FF930E942D05FF91EF91BF91AF919F9130
:100A90008F917F916F915F914F913F912F910F9027
:100AA0000FBE0F901F9018951F920F920FB60F92C6
:100AB00011242F933F934F935F936F937F938F9363
:100AC0009F93AF93BF93EF93FF930E942E05FF91E7
:100AD000EF91BF91AF919F918F917F916F915F91B6
:100AE0004F913F912F910F900FBE0F901F9018952F
:100AF0001F920F920FB60F9211242F933F934F9393
:100B00005F936F937F938F939F93AF93BF93EF9375
:100B1000FF930E942F05FF91EF91BF91AF919F919D
:100B20008F917F916F915F914F913F912F910F9096
:100B30000FBE0F901F901895EFE3F2E01182128222
:100B400080818E7F808314821382089527E030E0B5
:100B5000FC013383228380E0089527E030E0FC012C
:100B60003383228380E0089527E030E0FC01338363
:100B7000228380E00895FC01962F990F848581706F
:100B8000892B8487661F6627661F9585987F7370FB
:100B9000872F880F792F762B782B40FB73F9758779
:100BA0008681816086831582148281E0089585E0C4
:100BB00090E00895FC01848195810895FC0187E00F
:100BC00092E091838083108A17868685887F868746
:100BD000118A8289807C828B868114868E7F8D7FAC
:100BE000868388EF90E09187808784E190E0938707
:100BF000828717821586158214820895CF92DF921C
:100C0000EF92FF92FC012285338590917C029170D6
:100C10004FEF5FEFBA012115310579F091111DC039
:100C200044E050E0509387024093860240E050E059
:100C3000BA01420F531F611D711D24E030E0911174
:100C400019C030938702209386028091BC0080FDFA
:100C5000F6CF1582148281E023C040917D0250912D
:100C60007E0260917F027091800210928702109242
:100C70008602DFCFC0907D02D0907E02E0907F029E
:100C8000F090800210928702109286024C155D054A
:100C90006E057F05D0F683E490E09583848380E041
:100CA000FF90EF90DF90CF900895FC0186818D7FBB
:100CB000868388EF90E09187808785EA8093BC00E7
:100CC0001582148281E00895CF93DF93FC01968111
:100CD00091FB882780F991FF13C0DB0130E020E011
:100CE000241748F42F5F3F4FC785D089C20FD31F09
:100CF00098819D93F5CF15821482DF91CF9108954D
:100D000020E430E035832483F8CFBF92CF92DF9286
:100D1000EF92FF920F931F93CF93DF93EC018C859B
:100D200080FBDD24D0F880FD0FC084E090E09D833F
:100D30008C838D2DDF91CF911F910F91FF90EF90BC
:100D4000DF90CF90BF900895EE2049F00115110576
:100D500031F481E190E09D838C83D12CEACFC22EC7
:100D6000B42EF62ECE010E94FE05D82E8823A9F3BC
:100D7000EF85F8898F2D880F8083EF85F889C182F0
:100D8000B11023C0D80190E080E08E1540F42D9181
:100D9000EF85F889E80FF91F22830196F6CFE394D7
:100DA000E3949E2D9295907F8D858F70892B8D87F2
:100DB0008E2D829587709E85987F892B8E87CE0198
:100DC0000E9455061D821C82B4CF8D858F70806273
:100DD0008D878E85887F8E87CE010E945506CE0135
:100DE0000E94FE05882309F4B8CFEF85F8896F2D9E
:100DF000660F6160608381E08E0D282F2295207F31
:100E00009D859F70922B9D87829587709E85987F88
:100E1000892B8E87CE010E945506CE010E94FE05C9
:100E2000882309F49ACF4E2DB801CE010E946406A2
:100E30008111C8CF92CFEF92FF920F931F93CF9360
:100E4000DF93EC018E8180FBFF24F0F880FD0CC065
:100E500081E490E09D838C838F2DDF91CF911F9152
:100E60000F91FF90EF9008959D8593FF06C082E05B
:100E700090E09D838C83F12CEFCFE22E8A01262F08
:100E80006C856695979599279795692B41E0CE01DA
:100E90000E948506882379F31D821C82DDCFEF92A4
:100EA000FF920F931F93CF93DF93EC018E8180FB12
:100EB000FF24F0F880FD0CC081E490E09D838C83DA
:100EC0008F2DDF91CF911F910F91FF90EF9008959B
:100ED0009D8593FF06C082E090E09D838C83F12C7A
:100EE000EFCFE22E8A01262F6C856695979599277C
:100EF0009795692B40E0CE010E948506882379F3FF
:100F00001D821C82DDCFFC018091B9008C7F88326C
:100F100049F018F5803121F0883121F0883011F541
:100F200010924402909144028585282F22952F70BB
:100F3000868587708295807F822B981730F507848D
:100F4000F089E02D81E0890F80934402E90FF11DC3
:100F500080818093BB0085E83CC0803449F138F43F
:100F60008833D1F18091B900878384E032C0803525
:100F700089F08835B9F78091BB00A091440227859C
:100F80003089A20FB32FB11D8C9386818260868336
:100F900084E91FC08091BB0027853089A09144025D
:100FA00091E09A0F90934402A20FB32FB11D8C933E
:100FB000209144028585982F92959F708685877031
:100FC0008295807F892B8150990B281719061CF672
:100FD00085EC8093BC00089585EAFBCF1F920F92A9
:100FE0000FB60F9211242F933F934F935F936F93FC
:100FF0007F938F939F93AF93BF93EF93FF9385E47A
:1010000092E00E948307FF91EF91BF91AF919F9172
:101010008F917F916F915F914F913F912F910F90A1
:101020000FBE0F901F90189585E492E00C94DE059A
:101030009091C00095FFFCCF8093C60090E080E0C7
:101040000895FC018081877F8083683030F08CE0D8
:1010500090E09383828380E00895658313821282F7
:1010600081E00895FC018081877F808341158BE4B6
:10107000580761057105D1F0C8F5403689E0580779
:101080006105710599F0D0F4403B84E05807610593
:10109000710561F0483087E058076105710531F04E
:1010A000483582E0580761057105D1F446835783BE
:1010B000608771871382128281E00895403885E24B
:1010C00058076105710591F3403488E358076105BD
:1010D000710561F3403C82E158076105710531F308
:1010E00080EB90E09383828380E00895411581EE48
:1010F000580761057105D1F298F4411586E9580742
:101100006105710599F2403C8AED5807610571054A
:1011100069F2403880E758076105710509F7C6CFC5
:10112000411584EF580781E06807710509F4BECFC7
:1011300040F4411582EC580781E06807710581F69B
:10114000B5CF411584E8580783E06807710509F4B5
:10115000ADCF411588EE580783E06807710509F0A7
:10116000BFCFA4CFDC018C91877F8C93EFEAE60F91
:10117000EA3408F04FC0F0E0E054F74F0C947D0BD8
:10118000120912090A090A09120912090A090A09A7
:10119000120912090A090A090A090A090A090A09A7
:1011A000120912090A090A09120912090A090A0987
:1011B000120912090A090A090A090A090A090A0987
:1011C000120912090A090A09120912090A090A0967
:1011D000120912090A090A090A090A090A090A0967
:1011E000120912090A090A09120912090A090A0947
:1011F000120912090A090A090A090A090A090A0947
:10120000120912090A090A09120912090A090A0926
:101210001209120983EB90E013969C938E93129718
:1012200080E00895862F8370813029F0823079F133
:101230008FEF9FEFF1CF1B961C921B9770E0CB01B5
:101240009595879595958795837099278130910518
:1012500019F18230910529F1892B51F71A961C92C8
:101260001A9784E0759567958A95E1F7673071055F
:1012700029F1CCF481E066307105E1F014961C92FE
:10128000149713961C921E92129781E0089581E0A4
:101290001B968C931B97D2CF81E01A968C931A974A
:1012A000E0CF82E0FACF6830710551F087E0693015
:1012B000710521F714968C931497E3CF82E0FACF4F
:1012C00083E0F8CF0F931F93CF93DF93EC01122F9E
:1012D0000E9432088823F9F0612FCE010E94210874
:1012E0008823C9F0602FCE010E94B208882399F0AC
:1012F00088E198E09093610280936002109263020B
:101300001092620282E080935B021092650210925A
:1013100064021B821A82DF91CF911F910F91089571
:101320000895089508951F920F920FB60F921124F9
:101330002F933F934F935F936F937F938F939F93DD
:10134000AF93BF93EF93FF930E949009FF91EF91AA
:10135000BF91AF919F918F917F916F915F914F91CD
:101360003F912F910F900FBE0F901F9018951F92D5
:101370000F920FB60F9211242F933F934F935F93C9
:101380006F937F938F939F93AF93BF93EF93FF934D
:101390000E949209FF91EF91BF91AF919F918F9120
:1013A0007F916F915F914F913F912F910F900FBE61
:1013B0000F901F9018951F920F920FB60F92112445
:1013C0002F933F934F935F936F937F938F939F934D
:1013D000AF93BF93EF93FF930E949109FF91EF9119
:1013E000BF91AF919F918F917F916F915F914F913D
:1013F0003F912F910F900FBE0F901F9018950F9354
:1014000001E820E040E855E260E070E086E692E026
:101410000E9462090F910895FC0182858E7F828768
:101420001682178210861186108211821282138210
:10143000158214821786108A118A128A13861486DE
:101440001586168693899E7F938B411551056105FC
:10145000710529F483E390E0958B848B0895408394
:10146000518362837383468357836087718781606A
:101470008287158A148A089540E054E264EF70E090
:1014800082E792E00C940C0ACF93DF93CDB7DEB7DE
:101490006E970FB6F894DEBF0FBECDBFCE010E968D
:1014A0000E943E02CE0101960E943E021092A002CE
:1014B00028E040E06AE270E0CE010E960E945202FF
:1014C00024E040E067E270E0CE0101960E94520203
:1014D00020E0AE014F5F5F4FBE01625F7F4F88E843
:1014E00092E00E94040140E064E070E088E892E04D
:1014F0000E949700289A299A2A9A2B9A6FE089E2EB
:1015000092E00E946003D89A809168008160809385
:10151000680045E062E085E392E00E94F6038FE018
:1015200087BDA99A80916E00826080936E00789446
:101530000AE010E084E6C82ED12C98EEE92E93E064
:10154000F92E8091A00281FF0EC08091010190913F
:101550000201019690930201809301018091A00203
:101560008D7F8093A0028091A00282FF0EC08091A7
:101570000101909102010A9690930201809301016A
:101580008091A0028B7F8093A0028091A00283FFB4
:101590000FC080910101909102018C599F4F90934F
:1015A0000201809301018091A002877F8093A002B5
:1015B0008091A00284FF0FC08091010190910201EF
:1015C00088519C4F90930201809301018091A00269
:1015D0008F7E8093A0028091010190910201B80159
:1015E0000E94690B8B8F8091010190910201B801DB
:1015F0000E94690BCB01B8010E94690B8C8F80910E
:10160000010190910201B6010E94690BCB01B80162
:101610000E94690B8D8F8091010190910201B701A9
:101620000E94690BCB01B8010E94690B8E8F50E0BC
:1016300040E0BE01655E7F4F88E892E00E94CF01E6
:1016400080CF93B19F708091000189271B990BC0B7
:1016500083FF09C03091A0022091A0022D7F31FFAD
:1016600022602093A0021A990BC082FF09C030911A
:10167000A0022091A0022B7F32FF24602093A002C1
:1016800019990BC081FF09C03091A0022091A002DE
:10169000277F33FF28602093A00218990BC080FF9A
:1016A00009C02091A0028091A0028F7E24FF80615A
:1016B0008093A00290930001089588E892E00C9432
:1016C000450188E892E00C94770088E892E00C9459
:1016D0009600AA1BBB1B51E107C0AA1FBB1FA61780
:1016E000B70710F0A61BB70B881F991F5A95A9F7CB
:1016F00080959095BC01CD010895EE0FFF1F0590D8
:10170000F491E02D099410E0C1E4D0E004C0FE01A2
:101710000E947D0B2196C234D107C9F7F894FFCF00
:10172000FF68093F065B4F666D7D077F6F777C39E9
:101730005E79710000000000000000000000000061
:101740000000000000000000000000000000000099
:101750004000000000000000000000000000000049
:1017600000000000777C395E797100760000003857
:1017700000003F7300006D003E000000000000000C
:10178000000000000000000000000000041E000037
:101790000054000067500078000000006E00000058
:1017A0000000000000000000000000000000000039
:1017B0000000000000000000000000000000000029
:1017C0000000000000000000000000000000000019
:1017D0000000000000000000000000000000000009
:1017E00000000000000000000000000000000000F9
:1017F00000000000000000000000000000000000E9
:1018000000000000000000000000000000000000D8
:1018100000000000000000000000000000000000C8
:10182000FF0000000000001B07A605AD054F07BB29
:0818300005B405D705DA050037
:00000001FF
