:100000000C9437000C948F040C945F000C945F00E8
:100010000C945F000C945F000C945F000C945F00E4
:100020000C945F000C945F000C945F000C945F00D4
:100030000C945F000C945F000C9485020C945F009C
:100040000C945F000C945F000C9473060C94BB0638
:100050000C9497060C945F000C945F000C945F0066
:100060000C945F000C945F00B304DF063307112487
:100070001FBECFEFD8E0DEBFCDBF12E0A0E0B1E001
:10008000EAE1F6E102C005900D92AA31B107D9F775
:1000900022E0AAE1B2E001C01D92AD36B207E1F75D
:1000A00010E0C7E3D0E004C02197FE010E94900752
:1000B000C433D107C9F70E94DD030C94B90A0C942C
:1000C000000084EA8093BC008091BC0087FFFCCFD5
:1000D0008091B900887F883051F08091B900887F85
:1000E000803129F08091B900887F90E0089580E008
:1000F00090E008958093BB0084E88093BC008091D9
:10010000BC0087FFFCCF8091B900887F883151F017
:100110008091B900887F803429F08091B900887F70
:1001200090E0089580E090E0089527B1206327B91A
:1001300028B1611589F0206328B927B12F7C27B930
:100140008130910559F08230910551F0892B19F4D5
:1001500088E48093B80008952F7CEECF88E1F9CF32
:100160008CE0F7CFCF93DF9300D000D00F92CDB7C4
:10017000DEB789836A837B834C832D830E94610071
:100180009C01892B61F58981880F0E947A009C016E
:10019000892B29F5EA81FB81AF018C81480F511D24
:1001A00094E8E417F50739F48D81811118C084E9CA
:1001B0008093BC0014C081918093BB009093BC00DD
:1001C0008091BC0087FFFCCF8091B900887F883286
:1001D00041F38091B900887F21F3282F30E0C901D5
:1001E0000F900F900F900F900F90DF91CF91089587
:1001F000CF93DF9300D000D0CDB7DEB789836B8378
:100200007C834A830E9461009C01892B79F5898156
:10021000880F81600E947A009C01892B39F5EB815F
:10022000FC8160E070E08A818150990BAC0194EC14
:10023000641775071CF1EB81FC81E40FF51FEB835C
:10024000FC8384E88093BC008091BC0087FFFCCFD6
:100250008091B900887F883531F18091B900887F1D
:10026000EB81FC81808384E98093BC00C9010F90FD
:100270000F900F900F90DF91CF9108959093BC0055
:100280008091BC0087FFFCCF8091B900887F8035CA
:1002900039F08091B900887F81936F5F7F4FC8CF1D
:1002A0008091BB00F9CF8091BB00DACF40E051EEE6
:1002B00060E070E08BE492E00E947D058BE492E0C8
:1002C0000E94C804E1ECF0E08081886080838DE3C7
:1002D00092E080931E0290931F0280931C029093E1
:1002E0001D0280931A0290931B020895CF93DF930F
:1002F00000D0CDB7DEB789836A8320E042E0BE013B
:100300006F5F7F4F87E50E94B2000F900F90DF91E3
:10031000CF910895CF93DF9300D0CDB7DEB78A8316
:1003200021E041E0BE016E5F7F4F87E50E94B20091
:1003300041E0BE016F5F7F4F87E50E94F800898131
:100340000F900F90DF91CF910895CF93DF93CDB7AA
:10035000DEB72B970FB6F894DEBF0FBECDBF8887F0
:1003600099876A877B8787E08F8321E041E0BE0120
:10037000695F7F4F87E50E94B20046E0BE016F5F74
:100380007F4F87E50E94F80029818A81A22F2B8167
:10039000A370E885F98520838183A28313822C8151
:1003A0008D81A22F2E81A370EA85FB852083818316
:1003B000A28313822B960FB6F894DEBF0FBECDBF7B
:1003C000DF91CF910895CF93DF9300D0CDB7DEB703
:1003D00060E082E090E00E9495008FEF8A8321E048
:1003E00041E0BE016E5F7F4F87E50E94B2008FE95A
:1003F0009FE00197F1F700C0000041E0BE016F5F90
:100400007F4F87E50E94F8008FE99FE00197F1F7A1
:1004100000C0000089811F928F9388E091E09F9334
:100420008F930E94B00789810F900F900F900F90CB
:10043000853191F01F928F9389E191E09F938F9383
:100440000E94B0070F900F900F900F9080E00F90D8
:100450000F90DF91CF91089560E489E00E947601CA
:1004600062E089E00E9476019FEF21EE84E09150E6
:1004700020408040E1F700C000008CE491E00E9441
:10048000C60763E38AE00E9476018DE591E00E9451
:10049000C60762E188E00E9476018DE691E00E9445
:1004A000C60760E882E00E94760160E083E00E9477
:1004B00076018BE791E00E94C60780E00E948A01E6
:1004C00081E00E948A0181E991E00E94C6076FE302
:1004D0008CE00E9476016FE38DE00E94760185EA50
:1004E00091E00E94C60781E0B2CFCF9384E00E94E2
:1004F0008A01C82F86E00E948A01C81720F0C81B15
:100500008C2FCF910895C05EFACF1F921FB61F9215
:1005100011248F939F93AF93BF9380913402909156
:100520003502A0913602B09137020196A11DB11D8E
:100530008093340290933502A0933602B093370231
:10054000BF91AF919F918F911F901FBE1F901895E3
:100550002FB7F89460913402709135028091360281
:10056000909137022FBF08954F925F926F927F92C2
:100570008F929F92AF92BF92CF92DF92EF92FF92B3
:100580006B017C010E94A8022B013C018091270293
:1005900090912802A0912902B0912A028C159D0504
:1005A000AE05BF0544F4C0922702D0922802E09223
:1005B0002902F0922A028091000190910101A091FC
:1005C0000201B0910301C816D906EA06FB0644F4FD
:1005D000C0920001D0920101E0920201F092030169
:1005E0008091250290912602019680932502909396
:1005F000260262E370E00E943B07892B31F5809070
:10060000000190900101A0900201B090030160915F
:100610002702709128028091290290912A0268197C
:1006200079098A099B092AE030E040E050E00E9405
:100630007107820E931EA41EB51E80920401909233
:100640000501A0920601B0920701809104019091EA
:100650000501A0910601B09107018C159D05AE051D
:10066000BF050CF09CC08091300290913102A091A6
:100670003202B091330220912F02211119C0A6013C
:10068000B701481B590B6A0B7B0B453651056105B9
:1006900071050CF490C021E020932F02C09221023A
:1006A000D0922202E0922302F092240220932002B0
:1006B0008C159D05AE05BF05D4F4809120028F5F97
:1006C000809320028091210290912202A091230226
:1006D000B09124028C159D05AE05BF0544F4C0926F
:1006E0002102D0922202E0922302F0922402809111
:1006F0002002833008F45FC0809121029091220291
:10070000A0912302B09124028C529140A109B10919
:10071000C816D906EA06FB060CF04DC080912B02E4
:1007200090912C02A0912D02B0912E029201A30172
:10073000281B390B4A0B5B0BC901DA018E3E924034
:10074000A105B10550F140922B0250922C0260920B
:100750002D0270922E0281E010922F02109221023F
:100760001092220210922302109224021092200270
:10077000C0923002D0923102E0923202F092330203
:10078000FF90EF90DF90CF90BF90AF909F908F90B1
:100790007F906F905F904F90089580E0DDCF109232
:1007A0002F02109221021092220210922302109224
:1007B00024021092200280E0DBCFCDB7DEB728976D
:1007C0000FB6F894DEBF0FBECDBF82E084BD83E0DC
:1007D00085BD89EF87BD80916E00826080936E0039
:1007E0000E9456010E94E301811509F478C05A9ACB
:1007F00062E089E392E00E948004E09AE89A7894AB
:10080000E12CF12C6701809138028115E1F30E94FF
:100810007502082F811509F44DC010E0BE016F5F0D
:100820007F4FCE0105960E94A50169817A818B8157
:100830009C810E94B4028115A1F180ED91E00E949B
:10084000C6070E94A8024B015C019B01AC012C1958
:100850003D094E095F09C901DA0185569109A109CF
:10086000B1098F359940A105B10540F55F934F93CC
:100870003F932F9360E67AEE80E090E00E944F076E
:100880005F934F933F932F938EED91E09F938F93C0
:100890000E94B0070FB6F894DEBF0FBECDBF640153
:1008A000750180E00E948A0181E00E948A011F5F39
:1008B0000113B4CFE09A10923802A5CF5F934F9303
:1008C0003F932F9386EF91E09F938F930E94B00701
:1008D0000F900F900F900F900F900F90E0CF82EB42
:1008E00091E00E94C6078FEF9FEF28960FB6F8940D
:1008F000DEBF0FBECDBF089581E08093380208951A
:10090000FC01A9E6B0E08C918C7F862B8C936183EF
:100910008081816080831282138281E008951F921A
:100920000F920FB60F9211242F933F934F935F9323
:100930006F937F938F939F93AF93BF93EF93FF93A7
:100940000E947C04FF91EF91BF91AF919F918F9195
:100950007F916F915F914F913F912F910F900FBEBB
:100960000F901F90189510923A02809139028E7F55
:100970008093390210923B0210923C0208959091AC
:10098000C00095FFFCCF8093C60080E090E0089502
:100990008F929F92AF92BF92EF92FF920F931F930D
:1009A000CF93DF93CDB7DEB72D970FB6F894DEBFA8
:1009B0000FBECDBF7C014091C0003091C10090912D
:1009C000C2006091C4007091C50019821A821B8216
:1009D0001C82F7018385813028F131F1F70182858E
:1009E000813021F19F7C823019F1F32FFB7FFD874D
:1009F000F7012481892F233011F1897F2430D0F42D
:100A00002130F9F02230F9F0417E4D83182F1E730A
:100A1000F70105810830C8F4E02FF0E0E554F54F08
:100A20000C949007977FDACF9860D8CF9063DDCF92
:100A30009062DBCF273041F734603D87892F866095
:100A4000E3CF8260E1CF8460DFCF01E0BE016F5F62
:100A50007F4F87E592E00E941B07F70126813781CF
:100A600040855185A02FB0E00E9496079B01AC0104
:100A700069817A818B819C810E944F0721503109C5
:100A800049012D812093C0003D853093C100109312
:100A9000C200292D2F702093C5008092C400F70159
:100AA0001282138281E02D960FB6F894DEBF0FBE3E
:100AB000CDBFDF91CF911F910F91FF90EF90BF902D
:100AC000AF909F908F900895FD81F260FD8308E0C4
:100AD000BDCF1064BBCF116402E0B8CF8C73182F68
:100AE000106CFACF126CF8CF8D7F182F116CF4CFE9
:100AF000182F136CF1CF00E1A9CFFC018081877F13
:100B00008083403880E7580761057105E1F0E0F522
:100B1000403C82E1580761057105A9F018F548309D
:100B200087E058076105710571F0B0F4483582E03F
:100B300058076105710539F0403B84E058076105AD
:100B4000710509F052C0468357836087718720E0A2
:100B500081E0228313820895403689E058076105B9
:100B60007105EFCF403488E358076105710559F3EB
:100B700041158BE458076105710529F3403885E27A
:100B8000580761057105DDCF411582EC580781E0FA
:100B900068077105C1F290F4403C8AED5807610581
:100BA000710589F2411581EE58076105710559F209
:100BB000411586E9580761057105C3CF411584E8E1
:100BC000580783E06807710509F4BDCF411588EE29
:100BD000580783E06807710509F4B5CF411584EF24
:100BE000580781E068077105ACCF20EB80E0B1CFFA
:100BF000DC018C91877F8C93EFEAE60FEA34D8F51D
:100C0000F0E0ED53F54F0C949007862F8370813000
:100C100031F0823071F12FEF3FEF80E026C080E0AD
:100C20001B968C931B97862F8695869583708130B3
:100C300021F0823011F08111EECF1A968C931A9721
:100C400062956F7093E0683051F097E0693039F049
:100C500091E0663021F0673009F090E0990F14962A
:100C60009C93149720E030E081E012962D933D9301
:100C7000089581E0D5CF23EB30E0CFCF0F931F93C2
:100C8000CF93DF93EC01122F0E947D05811541F077
:100C90008881877F8883183040F08CE08A831B82AC
:100CA000DF91CF911F910F9108951D83602FCE0189
:100CB0000E94F8058115A1F38FEB94E08093450223
:100CC00090934602109247021092480282E080936D
:100CD00040021092490210924A021A821B82E0CF0F
:100CE0000895089508951F920F920FB60F92112440
:100CF0002F933F934F935F936F937F938F939F9324
:100D0000AF93BF93EF93FF930E947006FF91EF9113
:100D1000BF91AF919F918F917F916F915F914F9113
:100D20003F912F910F900FBE0F901F9018951F921B
:100D30000F920FB60F9211242F933F934F935F930F
:100D40006F937F938F939F93AF93BF93EF93FF9393
:100D50000E947206FF91EF91BF91AF919F918F9189
:100D60007F916F915F914F913F912F910F900FBEA7
:100D70000F901F9018951F920F920FB60F9211248B
:100D80002F933F934F935F936F937F938F939F9393
:100D9000AF93BF93EF93FF930E947106FF91EF9182
:100DA000BF91AF919F918F917F916F915F914F9183
:100DB0003F912F910F900FBE0F901F9018950F939A
:100DC00001E820E040E855E260E070E08BE492E06A
:100DD0000E943E060F910895FC0182858E7F8287D6
:100DE0001682178210861186108211821282138257
:100DF000148215821786108A118A128A1386148625
:100E00001586168693899E7F938B41155105610542
:100E1000710521F483E3848B158A089540835183FF
:100E2000628373834683578360877187816082877B
:100E3000148A158A0895CF93DF93FC0121E180E0A5
:100E40006115710559F086819781A085B185EB0107
:100E500088839983AA83BB8320E081E0248B158A51
:100E6000DF91CF91089540E054E264EF70E087E5B0
:100E700092E00C94EC06AA1BBB1B51E107C0AA1F11
:100E8000BB1FA617B70710F0A61BB70B881F991F2B
:100E90005A95A9F780959095BC01CD010895A1E2DE
:100EA0001A2EAA1BBB1BFD010DC0AA1FBB1FEE1FE4
:100EB000FF1FA217B307E407F50720F0A21BB30B2F
:100EC000E40BF50B661F771F881F991F1A9469F7AB
:100ED00060957095809590959B01AC01BD01CF0107
:100EE0000895052E97FB1EF400940E94880757FD75
:100EF00007D00E944F0707FC03D04EF40C948807DC
:100F000050954095309521953F4F4F4F5F4F089535
:100F100090958095709561957F4F8F4F9F4F089565
:100F2000EE0FFF1F0590F491E02D09940E94A10798
:100F3000A59F900DB49F900DA49F800D911D11242D
:100F40000895A29FB001B39FC001A39F700D811DA2
:100F50001124911DB29F700D811D1124911D0895C2
:100F6000A0E0B0E0E6EBF7E00C94920AAE014B5F34
:100F70005F4FFA0161917191AF0180911C029091D4
:100F80001D020E94F207E2E00C94AE0A0F931F9339
:100F9000CF93DF93E0911C02F0911D02238100E0CA
:100FA00010E021FD0EC00FEF1FEFC801DF91CF91C0
:100FB0001F910F9108950995892B11F00FEF1FEFE5
:100FC000CE01EC01899160911C0270911D02DB0140
:100FD0001896ED91FC918111EECF8AE00995892B4D
:100FE00021F3E1CFABE0B0E0E8EFF7E00C94830A47
:100FF0006C017B018A01FC0117821682838181FFCB
:10100000DAC19AE0492EF6012381F70123FD85918B
:1010100023FF81917F01811509F41FC1853239F4C5
:1010200023FD959123FF91917F01953229F4B6011B
:1010300090E00E94F409E7CF30E0612C512C712C34
:10104000F0E27F1640F59B32D9F058F49032D1F09F
:101050009332F1F09E3299F576FCFFC0689476F8F1
:1010600006C09D3291F09033C1F4689470F8F70196
:1010700023FD959123FF91917F019111E1CF29C02B
:10108000689471F8689472F8F2CF689473F8EFCFAF
:10109000689474F8ECCF77FC1CC080ED890F8A301F
:1010A000C8F676FE05C0649C800D1124682EDFCF43
:1010B000549C800D1124582E689475F8D8CF9C3616
:1010C00019F4689477F8D3CF9C3409F44BC0983660
:1010D00071F2892F8F7D8554833008F445C0933693
:1010E00009F466C0933709F469C0933509F475C0F3
:1010F000943619F0993609F09FC0F80177FE95C033
:1011000061917191819191918F01272D2F76722E8E
:1011100097FF09C090958095709561957F4F8F4F8F
:101120009F4F689477F82AE030E0AE014F5F5F4F41
:101130005A010E94240A8A19A82E76FEC5C0872D5E
:101140008E7FA61408F0BFC074FE12C172FC06C1E7
:10115000F72DFE7E7F2EB62C872D8678811509F41B
:10116000C0C001C131E083CF3115F9F0085F1F4FD6
:101170008FE3898388248394912CAE014F5F5F4F66
:101180005A01E89477F873FC03C085149104B0F118
:1011900081149104D1F5511409F435CFB60180E2E0
:1011A00090E00E94F4095A94F6CF0C5F1F4FE0CFF5
:1011B000F801808189830E5F1F4FDCCFF801A19079
:1011C000B1908F01662D70E076FC02C06FEF7FEF6B
:1011D000C5010E94E9094C01D4CFF801A190B1905A
:1011E0008F01662D70E076FC02C06FEF7FEFC501C6
:1011F0000E94DE094C01689477F8C5CFB60180E201
:1012000090E00E94F4095A94C0CFF50177FC8591D3
:1012100077FE81915F01B60190E00E94F4095110C0
:101220005A94F1E08F1A9108B3CF61917191072E12
:10123000000C880B990B68CF372CE89434F82AE01F
:1012400030E0953739F1572D597F352E903799F089
:1012500058F49835A9F09F36D9F0F6018681978128
:101260002B96E1E10C949F0A9837B9F774FC05C0FE
:1012700020E130E00FC0689434F8689432F8F8CF79
:1012800074FE03C0872D8660382E20E132E002C054
:1012900028E030E0F80137FE11C061917191819131
:1012A00091918F01FE0131965F01AF010E94240AE6
:1012B0008A19A82E732CE89477F83FCF6191719129
:1012C00080E090E0EECF782EBA2C74FE45CFFE0180
:1012D000EA0DF11D8081803309F043C0272D297E5E
:1012E000722E73FC0EC070FE4FC06A2CB51418F439
:1012F000650C6B18B52C852D8B195B1408F480E0F8
:10130000B80EB51408F042C05B1874FE41C0B601B7
:1013100080E390E00E94F40972FE09C088E590E045
:1013200071FC02C088E790E0B6010E94F409A6149F
:10133000D8F1AA94B12C4FEFA41AB40ACE010196A9
:101340003C01A80EB91EF50182915F01B60190E043
:101350000E94F4096A147B04B1F71DCFB62C782ED5
:10136000B6CF72FC02C0B394BCCFB394B394B9CFE0
:10137000B62C782EF1CEB60180E290E00E94F409FE
:1013800033943514C0F3B7CF3B2CFBCF512CBDCFDA
:10139000872D8678811559F280E271FC8BE277FC0B
:1013A0008DE2B60190E0C1CFB60180E390E00E94EB
:1013B000F4096A94BCCF8FEF9FEF52CFFC010590E8
:1013C000615070400110D8F7809590958E0F9F1F47
:1013D0000895FC016150704001900110D8F780958C
:1013E00090958E0F9F1F08950F931F93CF93DF93B8
:1013F000182F092FEB018B8181FD09C01FEF0FEF23
:10140000812F902FDF91CF911F910F91089582FF2F
:1014100014C02E813F818C819D81281739073CF4AF
:10142000E881F981CF0101969983888310838E81A9
:101430009F8101969F838E83E3CFE885F985812F75
:101440000995892BA1F3DACFFA01AA27283051F1A7
:10145000203181F1E8946F936E7F6E5F7F4F8F4FE5
:101460009F4FAF4FB1E03ED0B4E03CD0670F781F44
:10147000891F9A1FA11D680F791F8A1F911DA11D29
:101480006A0F711D811D911DA11D20D009F4689462
:101490003F912AE0269F11243019305D3193DEF60A
:1014A000CF010895462F4770405D4193B3E00FD0C0
:1014B000C9F7F6CF462F4F70405D4A3318F0495DAB
:1014C00031FD4052419302D0A9F7EACFB4E0A6958E
:1014D0009795879577956795BA95C9F700976105B0
:1014E000710508959B01AC010A2E06945795479506
:1014F00037952795BA95C9F7620F731F841F951FFB
:10150000A01D08952F923F924F925F926F927F920B
:101510008F929F92AF92BF92CF92DF92EF92FF9203
:101520000F931F93CF93DF93CDB7DEB7CA1BDB0BAF
:101530000FB6F894DEBF0FBECDBF09942A88398854
:1015400048885F846E847D848C849B84AA84B9845B
:10155000C884DF80EE80FD800C811B81AA81B98167
:10156000CE0FD11D0FB6F894DEBF0FBECDBFED017B
:101570000895F894FFCF7B05640569056B056E053A
:10158000720574057805050605063B063B0605064B
:1015900005063B063B06050605063B063B063B06E5
:1015A0003B063B063B06050605063B063B060506D5
:1015B00005063B063B06050605063B063B063B06C5
:1015C0003B063B063B06050605063B063B060506B5
:1015D00005063B063B06050605063B063B063B06A5
:1015E0003B063B063B06050605063B063B06050695
:1015F00005063B063B06050605063B063B063B0685
:101600003B063B063B06050605063B063B06050674
:0A16100005063B063B06050605062D
:10161A00FFFF0000204E0000504152545F49443AF7
:10162A00203078253032580A004572726F723A209B
:10163A00496E76616C696420504152545F49442E68
:10164A0020457870656374656420307831352C20C4
:10165A00676F74203078253032580A0073657475C4
:10166A007020646520636F726163616F00736574D3
:10167A00757020646520636F6E66696700736574B0
:10168A007570206465204649464F0073657475700D
:10169A0020646520696E746572727570636F657314
:1016AA0000696E746572727570636F6573206C6918
:1016BA006D706173007365747570206465206C6564
:1016CA0064004661696C656420746F20696E697490
:1016DA0069616C697A65204D415833303130320086
:1016EA0054656D6F7320756D206265617400425098
:1016FA004D20256C75202864656C74613A20256C30
:10170A00756D73290A00496E76616C696420696E89
:10171A0074657276616C3A20256C756D7320286940
:0A172A00676E6F726564290A000003
:00000001FF
