:100000000C9437000C9441060C945F000C945F0034
:100010000C945F000C945F000C945F000C945F00E4
:100020000C945F000C945F000C945F000C945F00D4
:100030000C945F000C945F000C945F000C945F00C4
:100040000C945F000C945F000C94B9080C940109A7
:100050000C94DD080C945F000C945F000C945F001E
:100060000C945F000C945F00650625097D0911243E
:100070001FBECFEFD8E0DEBFCDBF11E0A0E0B1E002
:10008000E6ECFDE102C005900D92A432B107D9F76C
:1000900024E0A4E2B1E001C01D92A23FB207E1F763
:1000A00010E0C7E3D0E004C02197FE010E94A70939
:1000B000C433D107C9F70E9415060C94E10E0C94C5
:1000C0000000CF93DF9300D0CDB7DEB789836A837A
:1000D00020E042E0BE016F5F7F4F87E50E94790418
:1000E0000F900F90DF91CF910895CF93DF9300D0C1
:1000F000CDB7DEB78A8321E041E0BE016E5F7F4F5E
:1001000087E50E94790441E0BE016F5F7F4F87E57C
:100110000E94B70489810F900F90DF91CF910895CD
:10012000EF92FF920F931F93CF93DF9300D000D0F5
:1001300000D01F92CDB7DEB77C018B0187E08F83A3
:1001400021E041E0BE01695F7F4F87E50E947904AD
:1001500046E0BE016F5F7F4F87E50E94B7042981AB
:100160008A8190E0B0E0A0E0BA2FA92F982F8827CD
:10017000A22B2B81822BA370BB27F7018083918355
:10018000A283B3832C818D8190E0B0E0A0E0BA2FF0
:10019000A92F982F8827A22B2E81822BA370BB27F3
:1001A000F80180839183A283B38327960FB6F894D6
:1001B000DEBF0FBECDBFDF91CF911F910F91FF909A
:1001C000EF900895CF93DF9300D0CDB7DEB760E016
:1001D00082E090E00E945D048FEF8A8321E041E09D
:1001E000BE016E5F7F4F87E50E9479048FE99FE033
:1001F0000197F1F700C0000041E0BE016F5F7F4F43
:1002000087E50E94B7048FE99FE00197F1F700C0EE
:10021000000089818531E9F560E489E00E94610090
:1002200062E089E00E9461009FEF21EE84E091503E
:1002300020408040E1F700C0000066E78AE00E94AD
:10024000610062E188E00E94610060E882E00E9453
:10025000610060E083E00E94610080E00E94750020
:1002600081E00E94750060E68CE00E94610060E61B
:100270008DE00E9461005A9A62E088EB94E00E944F
:100280003206E09AE89A81E00F900F90DF91CF91CB
:10029000089580E0F9CFCF9384E00E947500C82FC5
:1002A00086E00E947500C81720F0C81B8C2FCF91E4
:1002B0000895C05EFACFFC016085718582859385C3
:1002C00008952F923F924F925F926F927F928F92FA
:1002D0009F92AF92BF92CF92DF92EF92FF920F93D5
:1002E0001F93CF93DF93CDB7DEB7AC970FB6F894DB
:1002F000DEBF0FBECDBF6230710508F418C14423C4
:1003000009F415C1A42EAAE02A2E241610F4FAE04E
:10031000AF2EFC0181919191A191B1919F01662431
:100320006A946A0CF4E06F9EA00111244C5F5F4F49
:1003300022242394312C2C0E3D1E240E351E3AA669
:1003400029A6B12C41E050E00A2D0150110B4801C3
:10035000880C991C880C991CE1E0F0E0EC0FFD1F63
:100360008E0E9F1EF901C190D190E190F1909F01F6
:100370008C159D05AE05BF05A0F516012701281AAD
:10038000390A4A0A5B0AD201C101BA1408F07AC0DC
:1003900004E0B09EF0011124349622242394312CE1
:1003A0002C0E3D1E2E0E3F1E3CA62BA67B2C77202E
:1003B000E9F00BA51CA508501109F8012080318037
:1003C00042805380281639064A065B0678F4EBA56E
:1003D000FCA55292429232922292FCA7EBA77A9409
:1003E000E6CF8C199D09AE09BF09CFCF04E0709EFE
:1003F000F001112422242394312C2C0E3D1EE20DF9
:10040000F31D80839183A283B383B3944F5F5F4FC7
:10041000D701C6016417750709F0A4CFFE01319614
:1004200060E070E0CB0120E0C190D190E190F190CC
:100430006C0D7D1D8E1D9F1D2F5F2B11F5CF213063
:1004400039F0223009F058C09695879577956795D1
:10045000CB01AC960FB6F894DEBF0FBECDBFDF91D7
:10046000CF911F910F91FF90EF90DF90CF90BF90B1
:10047000AF909F908F907F906F905F904F903F9044
:100480002F900895F40120803180428053802816F7
:1004900039064A065B0608F0B9CF29A43AA43CA65F
:1004A0002BA6762C7720C1F00BA51CA508501109AE
:1004B000F8012080318042805380281639064A0690
:1004C0005B0650F4EBA5FCA5529242923292229226
:1004D000FCA7EBA77A94E6CF04E0709EF00111240C
:1004E00022242394312C2C0E3D1EE20DF31D80831B
:1004F0009183A283B3838ACF243041F432E096956E
:100500008795779567953A95D1F7A2CF283041F432
:1005100023E096958795779567952A95D1F798CF9B
:1005200030E050E040E00E948509B90191CF70E0D1
:1005300060E08ECF2F923F924F925F926F927F92A8
:100540008F929F92AF92BF92CF92DF92EF92FF92E3
:100550000F931F93CF93DF93CDB7DEB72F970FB6CF
:10056000F894DEBF0FBECDBF63307105E0F460E0EC
:1005700070E0CB012F960FB6F894DEBF0FBECDBF53
:10058000DF91CF911F910F91FF90EF90DF90CF906F
:10059000BF90AF909F908F907F906F905F904F90A3
:1005A0003F902F9008951A0178876F839F878E87D9
:1005B000422F0E9461010097D1F20F8118850150EE
:1005C00011091E830D83AE85BF85CD90DD90ED9022
:1005D000FC90139714964D915D916D917C911797B6
:1005E000A1E0B0E01D862C01712C612C49825A8259
:1005F0006B827C82CD010196FC01EE0FFF1FEE0F96
:10060000FF1FAE84BF84EA0DFB1D00811181228192
:1006100033814C155D056E057F0508F08FC04A01DA
:100620005B014F8058848415950518F50815190548
:100630002A053B05F0F4041715072607370718F4B9
:10064000B901A801DC0101966F80788486159705B1
:1006500040F7FC01EE0FFF1FEE0FFF1FAE84BF84BB
:10066000EA0DFB1D4801590100811181228133816E
:10067000D8CF26013701441A550A660A770AC9807D
:10068000DA80EB80FC804C145D046E047F0408F477
:10069000DDC026013701440E551E661E771EEF8011
:1006A000F8848E159F0518F50415150526053705E0
:1006B000F0F4041715072607370718F4B901A80145
:1006C000DC010196CF80D8848C159D0540F7FC0194
:1006D000EE0FFF1FEE0FFF1FEE84FF84EE0DFF1DD8
:1006E000480159010081118122813381D8CFFD84D5
:1006F000EF2DF0E0EE0FFF1FE20DF31DB183A0839D
:10070000B901A8010F2D0F5F0D874F805884841504
:100710009505E8F4FC01E150F04CEE0FFF1FEE0FE1
:10072000FF1F4E845F84E40DF51D80809180A280C0
:10073000B380448155816681778109C06F80788458
:100740004A015B018615970510F4B901A8016D8077
:100750007E808615970520F475016401DC014ACF7F
:100760000D85023008F403CFD02EDA948101FF24E6
:10077000F394812C912C5401FD1400F5D8011496AA
:100780006D917C9115978D919C91681B790B90E0F0
:1007900080E00E94F20A2FE632E143E85CE30E9427
:1007A000850B9B01AC01C501B4010E94E5094B0119
:1007B0005C01F394F3940C5F1F4FDECF4D2D41602D
:1007C0004D84441500F550E0440F551F240E351E8E
:1007D000F1013297D1016D917C9180819181681BEB
:1007E000790B90E080E00E94F20A2FE632E143E8C4
:1007F0005CE30E94850B9B01AC01C501B4010E9422
:10080000E5094B015C010D850150110BB801072E64
:10081000000C880B990B0E94F40A9B01AC01C501E6
:10082000B4010E94510A4B015C0120E030E0A901B3
:100830000E94800B18160CF09ACEA501940160E07E
:1008400070E080E792E40E94510A94CEB901A801B9
:100850005CCF84EA8093BC008091BC0087FFFCCF12
:100860008091B900887F883051F08091B900887FED
:10087000803129F08091B900887F90E0089590E060
:1008800080E008958093BB0084E88093BC00809151
:10089000BC0087FFFCCF8091B900887F883151F080
:1008A0008091B900887F803429F08091B900887FD9
:1008B00090E0089590E080E0089527B1206327B983
:1008C00028B1662361F0206328B927B12F7C27B9AE
:1008D0008130910551F028F0029749F008952F7C5E
:1008E000F3CF88E48093B800089588E1FBCF8CE0D3
:1008F000F9CFFF920F931F93CF93DF93F82EEB0165
:10090000042F122F0E942904009759F58F2D880F6C
:100910000E944204009729F5FE01402F50E034E880
:10092000BF016C1B7D0B64177507B4F421912093F4
:10093000BB003093BC002091BC0027FFFCCF20916E
:10094000B900287F283261F32091B900287F622FF7
:1009500070E031F3CB0105C0111103C024E92093ED
:10096000BC00DF91CF911F910F91FF9008950F93DD
:100970001F93CF93DF93082FEB01142F0E942904BC
:100980000097D9F5802F880F81600E94420400975C
:10099000A1F5FE01212F2150330BA90134ECBF0139
:1009A0006C1B7D0B641775079CF43093BC00209181
:1009B000BC0027FFFCCF2091B900287F203529F00B
:1009C0002091B900287F2193EACF2091BB00FBCF73
:1009D000C40FD51F24E82093BC002091BC0027FF42
:1009E000FCCF2091B900287F283561F02091B90013
:1009F000287F288324E92093BC00DF91CF911F91A9
:100A00000F9108952091BB00F4CF40E051EE60E0DB
:100A100070E08AEC94E00E9458078AEC94E00E940F
:100A20007706E1ECF0E0808188608083ECEEF4E012
:100A30008CEB94E09583848393838283918380837A
:100A400008954F925F926F927F928F929F92AF9292
:100A5000BF92CF92DF92EF92FF920F931F93CF93AB
:100A6000DF93CDB7DEB728970FB6F894DEBF0FBE81
:100A7000CDBF0E944B01C82E811130C028960FB601
:100A8000F894DEBF0FBECDBFDF91CF911F910F91C4
:100A9000FF90EF90DF90CF90BF90AF909F908F909E
:100AA0007F906F905F904F90089510E0812C912C73
:100AB0005401209100011217D8F4BE016F5F7F4FDF
:100AC000CE0105960E94900089819A81AB81BC81FC
:100AD000880E991EAA1EBB1E1F5FEBCFD12C10E003
:100AE000812C912C540151E0E52E51E0F52EE1CFFF
:100AF0000091AA0477247394700E7092AA0484E083
:100B0000089F8001112405551B4F30E050E040E064
:100B1000C501B4010E948509F80120833183428315
:100B20005383F3E07F1274C01092AA048BEA94E01E
:100B30000E945B011092AB041092AC041092AD04C1
:100B40001092AE041092AF041092B0041092B1044F
:100B50001092B2041092B3041092B4041092B5042F
:100B60001092B604693823E1720781059105B8F047
:100B700040915002509151029A012F5F3F4F3093A4
:100B80005102209350029A01220F331F220F331F6C
:100B9000F901EE5AFD4F60837183828393838091C4
:100BA0005002909151028639910590F110925102B4
:100BB000109250022AE044E251E066E970E082E5DA
:100BC00092E00E949A022B013C010E94C30A4B0151
:100BD00090E080E00E94F20A9B01AC01C301B201E7
:100BE0000E94E40920E030E048EC52E40E94850BCA
:100BF0000E94C30A7F936F939F928F92FF92EF920E
:100C00000E94160C0F900F900F900F900F900F9066
:100C1000D394CD104ACF80E00E94750081E00E94FD
:100C20007500E09A1092B70429CF0E94050589E16A
:100C300091E09F938F930E94160C0E94E2000F9008
:100C40000F90882341F078948091B7048823E1F3D2
:100C50000E942105F9CF8FEF9FEF089581E08093E7
:100C6000B7040895FC01A9E6B0E09C919C7F962B07
:100C70009C9361838081816080831382128281E0F2
:100C800008951F920F920FB60F9211242F933F9346
:100C90004F935F936F937F938F939F93AF93BF9384
:100CA000EF93FF930E942E06FF91EF91BF91AF91BA
:100CB0009F918F917F916F915F914F913F912F9174
:100CC0000F900FBE0F901F901895E8EBF4E0118283
:100CD00080818E7F80831382128208959091C0005C
:100CE00095FFFCCF8093C60090E080E008952F929E
:100CF0003F924F925F926F927F928F929F92AF92AC
:100D0000BF92CF92DF92EF92FF920F931F93CF93F8
:100D1000DF9300D000D0CDB7DEB77C012091C000BA
:100D20003091C1008091C2004091C4005091C50033
:100D300019821A821B821C82D7011B969C919923CF
:100D400061F1913061F18F7CF7019285913049F129
:100D5000923049F1D32EE894D2F8897FD7011496C6
:100D60009C91923061F108F5913039F1217EC22ECB
:100D7000182F1E73D7011596EC9101E0E83010F59D
:100D8000F0E0EB53F94F0C94A709E1063207360760
:100D900039073B073F0741074507877FD4CF886066
:100DA000D2CF8063D7CF8062D5CF933021F09730F8
:100DB000E9F66894D2F88660D9CF8260D7CF846094
:100DC000D5CF00E1BE016F5F7F4F86ED94E00E94BA
:100DD0006209F7012681378140855185A02FB0E057
:100DE0000E94AD099B01AC0169817A818B819C8154
:100DF0000E94850919012A01F1E02F1A31084108E2
:100E00005108C092C000D092C1001093C20091015D
:100E1000A20160E070E080E090E008E00E94BA0982
:100E20002F702093C5002092C400D70113961C9206
:100E30001E92129781E00F900F900F900F90DF910C
:100E4000CF911F910F91FF90EF90DF90CF90BF90C7
:100E5000AF909F908F907F906F905F904F903F905A
:100E60002F9008956894C1F808E0ACCF106402E0B8
:100E7000A9CF1164FCCF8C73182F106CF8CF126CB3
:100E8000F6CF8C73182F116CF2CF136CF0CFFC01DE
:100E90008081877F8083683030F08CE090E093839E
:100EA000828380E0089565831382128281E0089531
:100EB000FC018081877F808341158BE458076105A1
:100EC0007105D1F0C8F5403689E058076105710514
:100ED00099F0D0F4403B84E058076105710561F05A
:100EE000483087E058076105710531F0483582E0E8
:100EF000580761057105D1F4468357836087718770
:100F00001382128281E00895403885E25807610516
:100F1000710591F3403488E358076105710561F369
:100F2000403C82E158076105710531F380EB90E0A8
:100F30009383828380E00895411581EE580761050F
:100F40007105D1F298F4411586E9580761057105DC
:100F500099F2403C8AED58076105710569F2403805
:100F600080E758076105710509F7C6CF411584EF81
:100F7000580781E06807710509F4BECF40F44115B8
:100F800082EC580781E06807710581F6B5CF4115FD
:100F900084E8580783E06807710509F4ADCF41156F
:100FA00088EE580783E06807710509F0BFCFA4CF2A
:100FB000DC018C91877F8C93EFEAE60FEA3408F02E
:100FC0004FC0F0E0EA51F84F0C94A70938083808F0
:100FD0003008300838083808300830083808380831
:100FE0003008300830083008300830083808380831
:100FF0003008300838083808300830083808380811
:101000003008300830083008300830083808380810
:1010100030083008380838083008300838083808F0
:1010200030083008300830083008300838083808F0
:1010300030083008380838083008300838083808D0
:1010400030083008300830083008300838083808D0
:1010500030083008380838083008300838083808B0
:1010600083EB90E013969C938E93129780E0089503
:10107000862F8370813029F0823079F18FEF9FEFD6
:10108000F1CF1B961C921B9770E0CB01959587952D
:1010900095958795837099278130910519F1823054
:1010A000910529F1892B51F71A961C921A9784E021
:1010B000759567958A95E1F76730710529F1CCF44C
:1010C00081E066307105E1F014961C921497139636
:1010D0001C921E92129781E0089581E01B968C93DA
:1010E0001B97D2CF81E01A968C931A97E0CF82E0BB
:1010F000FACF6830710551F087E06930710521F74A
:1011000014968C931497E3CF82E0FACF83E0F8CF64
:101110000F931F93CF93DF93EC01122F0E94580778
:101120008823F9F0612FCE010E9447078823C9F078
:10113000602FCE010E94D807882399F08EE696E0B2
:101140009093C5048093C4041092C7041092C604FF
:1011500082E08093BF041092C9041092C8041B82DD
:101160001A82DF91CF911F910F91089508950895EC
:1011700008951F920F920FB60F9211242F933F9351
:101180004F935F936F937F938F939F93AF93BF938F
:10119000EF93FF930E94B608FF91EF91BF91AF913B
:1011A0009F918F917F916F915F914F913F912F917F
:1011B0000F900FBE0F901F9018951F920F920FB6B1
:1011C0000F9211242F933F934F935F936F937F93CD
:1011D0008F939F93AF93BF93EF93FF930E94B808B1
:1011E000FF91EF91BF91AF919F918F917F916F91FF
:1011F0005F914F913F912F910F900FBE0F901F90D5
:1012000018951F920F920FB60F9211242F933F93B0
:101210004F935F936F937F938F939F93AF93BF93FE
:10122000EF93FF930E94B708FF91EF91BF91AF91A9
:101230009F918F917F916F915F914F913F912F91EE
:101240000F900FBE0F901F9018950F9301E820E0AC
:1012500040E855E260E070E08AEC94E00E94880883
:101260000F910895FC0182858E7F828716821782F6
:1012700010861186108211821282138215821482C6
:101280001786108A118A128A138614861586168686
:1012900093899E7F938B411551056105710529F452
:1012A00083E390E0958B848B089540835183628320
:1012B0007383468357836087718781608287158A2D
:1012C000148A0895CF93DF93FC016115710541F4F1
:1012D00081E190E0958B848B80E0DF91CF91089540
:1012E00086819781A085B185EB0188839983AA8344
:1012F000BB83158A148A81E0F0CF40E054E264EFAA
:1013000070E086ED94E00C943209A1E21A2EAA1B3B
:10131000BB1BFD010DC0AA1FBB1FEE1FFF1FA217A5
:10132000B307E407F50720F0A21BB30BE40BF50BA2
:10133000661F771F881F991F1A9469F7609570952B
:10134000809590959B01AC01BD01CF010895EE0FF2
:10135000FF1F0590F491E02D09940E94D509A59FE7
:10136000900DB49F900DA49F800D911D11240895A0
:1013700097FD1094002E083098F00850232F342F3A
:10138000452F562F672F782F892F912DF4CF159445
:1013900097958795779567955795479537952795AD
:1013A0000A95AAF71124002D0895A29FB001B39FBA
:1013B000C001A39F700D811D1124911DB29F700D5E
:1013C000811D1124911D08955058BB27AA270E9402
:1013D000FC090C94460B0E94380B38F00E943F0B1E
:1013E00020F039F49F3F19F426F40C94350B0EF4D9
:1013F000E095E7FB0C942F0BE92F0E94570B58F355
:10140000BA17620773078407950720F079F4A6F5E9
:101410000C94790B0EF4E0950B2EBA2FA02D0B0136
:10142000B90190010C01CA01A0011124FF27591B29
:1014300099F0593F50F4503E68F11A16F040A22F2F
:10144000232F342F4427585FF3CF469537952795A0
:10145000A795F0405395C9F77EF41F16BA0B620B9F
:10146000730B840BBAF09150A1F0FF0FBB1F661FE6
:10147000771F881FC2F70EC0BA0F621F731F841F29
:1014800048F4879577956795B795F7959E3F08F04F
:10149000B0CF9395880F08F09927EE0F9795879511
:1014A00008950E94650A0C94460B0E943F0B58F069
:1014B0000E94380B40F029F45F3F29F00C942F0B69
:1014C00051110C947A0B0C94350B0E94570B68F356
:1014D0009923B1F3552391F3951B550BBB27AA27ED
:1014E00062177307840738F09F5F5F4F220F331F27
:1014F000441FAA1FA9F335D00E2E3AF0E0E832D0EF
:1015000091505040E695001CCAF72BD0FE2F29D0F1
:10151000660F771F881FBB1F261737074807AB07C3
:10152000B0E809F0BB0B802DBF01FF2793585F4F38
:101530003AF09E3F510578F00C942F0B0C947A0BE7
:101540005F3FE4F3983ED4F3869577956795B7951A
:10155000F7959F5FC9F7880F911D9695879597F925
:101560000895E1E0660F771F881FBB1F621773079E
:101570008407BA0720F0621B730B840BBA0BEE1FB3
:1015800088F7E09508950E945F0B88F09F5798F0C8
:10159000B92F9927B751B0F0E1F0660F771F881F78
:1015A000991F1AF0BA95C9F714C0B13091F00E9492
:1015B000790BB1E008950C94790B672F782F882769
:1015C000B85F39F0B93FCCF3869577956795B395B9
:1015D000D9F73EF490958095709561957F4F8F4F28
:1015E0009F4F0895E89409C097FB3EF4909580952D
:1015F000709561957F4F8F4F9F4F9923A9F0F92FD9
:1016000096E9BB279395F695879577956795B79556
:10161000F111F8CFFAF4BB0F11F460FF1BC06F5F3C
:101620007F4F8F4F9F4F16C0882311F096E911C04E
:10163000772321F09EE8872F762F05C0662371F06F
:1016400096E8862F70E060E02AF09A95660F771F83
:10165000881FDAF7880F9695879597F9089597F977
:101660009F6780E870E060E008959FEF80EC089548
:1016700000240A9416161706180609060895002471
:101680000A9412161306140605060895092E0394EB
:10169000000C11F4882352F0BB0F40F4BF2B11F45F
:1016A00060FF04C06F5F7F4F8F4F9F4F089557FDBE
:1016B0009058440F551F59F05F3F71F04795880FC0
:1016C00097FB991F61F09F3F79F087950895121657
:1016D00013061406551FF2CF4695F1DF08C0161603
:1016E00017061806991FF1CF8695710561050894B4
:1016F0000895E894BB2766277727CB0197F90895CB
:101700000E94F20B08F48FEF08950E94980B0C943E
:10171000460B0E94380B38F00E943F0B20F09523B7
:1017200011F00C942F0B0C94350B11240C947A0BA4
:101730000E94570B70F3959FC1F3950F50E0551F12
:10174000629FF001729FBB27F00DB11D639FAA2716
:10175000F00DB11DAA1F649F6627B00DA11D661F65
:10176000829F2227B00DA11D621F739FB00DA11D86
:10177000621F839FA00D611D221F749F3327A00D40
:10178000611D231F849F600D211D822F762F6A2FDC
:1017900011249F5750409AF0F1F088234AF0EE0F41
:1017A000FF1FBB1F661F771F881F91505040A9F76E
:1017B0009E3F510580F00C942F0B0C947A0B5F3FE9
:1017C000E4F3983ED4F3869577956795B795F795AA
:1017D000E7959F5FC1F7FE2B880F911D9695879522
:1017E00097F90895990F0008550FAA0BE0E8FEEF4E
:1017F00016161706E807F907C0F012161306E407D5
:10180000F50798F0621B730B840B950B39F40A26CD
:1018100061F0232B242B252B21F408950A2609F4AB
:10182000A140A6958FEF811D811D0895B0E0A0E035
:10183000ECE1FCE00C94BA0EAE014B5F5F4FFA0195
:1018400061917191AF018091EE049091EF040E943B
:101850002C0CE2E00C94D60EABE0B0E0E2E3FCE04E
:101860000C94AA0E7C013B018A01FC0117821682AE
:10187000838181FFC8C1CE0101965C01F70193818C
:10188000F30193FD859193FF81913F01882309F432
:1018900053C1853239F493FD859193FF81913F01C6
:1018A000853229F4B70190E00E941C0EE7CF912CFD
:1018B000212C312CFFE1F31538F08B3211F190F42B
:1018C000803209F1833229F137FC3CC020ED280F2A
:1018D0002A3050F536FE20C08AE0989E200D112453
:1018E000922E06C08D3291F0803371F7689430F8F3
:1018F000F30193FD859193FF81913F018111DACF2F
:1019000021C0689431F8689432F8F2CF689433F8C3
:10191000EFCF689434F8ECCFEAE02E9E200D11242E
:10192000222E689435F8E4CF8E3229F436FC04C1B7
:10193000689436F8DDCF8C3619F4689437F8D8CF30
:101940008836B1F2982F9F7D95549330E0F083361E
:10195000A1F18337C1F1833509F063C02801F2E0BA
:101960004F0E511CF801C080D180692D70E036FC0B
:1019700002C06FEF7FEFC6010E94060E4C01689413
:1019800037F882010AC00C5F1F4FFFE3F9838824F8
:101990008394912C6501E89437F833FE2DC0522CC6
:1019A0008114910471F5552009F468CFB70180E2E4
:1019B00090E00E941C0E5A94F6CFF8018081898332
:1019C0000E5F1F4FE4CF2801F2E04F0E511CF801CB
:1019D000C080D180692D70E036FC02C06FEF7FEFD0
:1019E000C6010E94110E4C018201D5CFB70180E2E1
:1019F00090E00E941C0E2A942814190409F0B0F7F4
:101A0000CECFF60137FC859137FE81916F01B7018A
:101A100090E00E941C0E51105A94F1E08F1A910828
:101A2000BFCF843619F0893609F077C0F80137FE48
:101A30006BC060817181828193810C5F1F4FF32D98
:101A4000FF763F2E97FF09C0909580957095619520
:101A50007F4F8F4F9F4F689437F82AE030E0A50101
:101A60000E944C0EC82ECA188C2C432C36FE0CC07B
:101A7000E89440F8C91440F434FE05C032FC03C0B9
:101A8000F32DFE7E4F2E892C44FE95C0FE01EC0DF9
:101A9000F11D8081803309F087C0242D297E422EDC
:101AA000842D8870582E43FC95C040FE8FC09C2C1E
:101AB000821418F42C0C922C981844FE91C0B70193
:101AC00080E390E00E941C0E42FE09C088E790E08F
:101AD00041FE02C088E590E0B7010E941C0EC914C7
:101AE00008F48AC0CA94D12C9FEFC91AD90ACA0C2B
:101AF000DB1CF60182916F01B70190E00E941C0E81
:101B0000AC14BD04B1F74FCF60817181072E000C7A
:101B1000880B990B0E5F1F4F92CFD32CE894D4F80B
:101B20002AE030E0853739F1232D297FD22E8F36F8
:101B300001F148F48835A9F0F701868197812B9649
:101B4000E2E10C94C60E803749F08837A9F7D4FE3D
:101B500002C06894D2F820E130E00DC06894D4F857
:101B6000F6CF34FE03C0822F8660D82E20E132E00B
:101B700002C028E030E0F801D7FE0FC0608171811B
:101B8000828193810C5F1F4FA5010E944C0EC82ECD
:101B9000CA183D2CE89437F867CF6081718190E0D6
:101BA00080E00E5F1F4FF0CF42FC02C0839478CFDD
:101BB0008394839475CF842D867809F471CFF6CF02
:101BC000B70180E290E00E941C0E83948214C0F35F
:101BD000512C73CF522C5818821408F46ECFF8CFC2
:101BE000842D867809F47BCF8BE241FE80E247FCAE
:101BF0008DE2B70190E071CFB70180E390E00E94E1
:101C00001C0E9A946CCF8FEF9FEF99CFFC0105903B
:101C1000615070400110D8F7809590958E0F9F1FEE
:101C20000895FC016150704001900110D8F7809533
:101C300090958E0F9F1F08950F931F93CF93DF935F
:101C4000182F092FEB018B8181FD09C01FEF0FEFCA
:101C5000812F902FDF91CF911F910F91089582FFD7
:101C600014C02E813F818C819D81281739073CF457
:101C7000E881F981CF0101969983888310838E8151
:101C80009F8101969F838E83E3CFE885F985812F1D
:101C90000995892BA1F3DACFFA01AA27283051F14F
:101CA000203181F1E8946F936E7F6E5F7F4F8F4F8D
:101CB0009F4FAF4FB1E03ED0B4E03CD0670F781FEC
:101CC000891F9A1FA11D680F791F8A1F911DA11DD1
:101CD0006A0F711D811D911DA11D20D009F468940A
:101CE0003F912AE0269F11243019305D3193DEF6B2
:101CF000CF010895462F4770405D4193B3E00FD068
:101D0000C9F7F6CF462F4F70405D4A3318F0495D52
:101D100031FD4052419302D0A9F7EACFB4E0A69535
:101D20009795879577956795BA95C9F70097610557
:101D3000710508959B01AC010A2E069457954795AD
:101D400037952795BA95C9F7620F731F841F951FA2
:101D5000A01D08952F923F924F925F926F927F92B3
:101D60008F929F92AF92BF92CF92DF92EF92FF92AB
:101D70000F931F93CF93DF93CDB7DEB7CA1BDB0B57
:101D80000FB6F894DEBF0FBECDBF09942A883988FC
:101D900048885F846E847D848C849B84AA84B98403
:101DA000C884DF80EE80FD800C811B81AA81B9810F
:101DB000CE0FD11D0FB6F894DEBF0FBECDBFED0123
:061DC0000895F894FFCF26
:101DC6001042504D20657374696D61646F3A202529
:101DD600752E253032750A0D00434F4D45434F553C
:041DE6000A0D0000E2
:00000001FF
