:100000000C9437000C944E030C945F000C945F002A
:100010000C945F000C945F000C945F000C945F00E4
:100020000C945F000C945F000C945F000C945F00D4
:100030000C945F000C945F000C945F000C945F00C4
:100040000C945F000C945F000C94C6050C940E0693
:100050000C94EA050C945F000C945F000C945F0014
:100060000C945F000C945F00370372033206112476
:100070001FBECFEFD8E0DEBFCDBF11E0A0E0B1E002
:10008000E6EDF2E102C005900D92A630B107D9F776
:1000900021E0A6E0B1E001C01D92A134B207E1F772
:1000A00010E0C7E3D0E004C02197FE010E94610682
:1000B000C433D107C9F70E944B020C9469090C9410
:1000C000000084EA8093BC008091BC0087FFFCCFD5
:1000D0008091B900887F883051F08091B900887F85
:1000E000803129F08091B900887F90E0089590E0F8
:1000F00080E008958093BB0084E88093BC008091E9
:10010000BC0087FFFCCF8091B900887F883151F017
:100110008091B900887F803429F08091B900887F70
:1001200090E0089590E080E0089527B1206327B91A
:1001300028B1662361F0206328B927B12F7C27B945
:100140008130910551F028F0029749F008952F7CF5
:10015000F3CF88E48093B800089588E1FBCF8CE06A
:10016000F9CFFF920F931F93CF93DF93F82EEB01FC
:10017000042F122F0E946100009759F58F2D880FD0
:100180000E947A00009729F5FE01402F50E034E8E4
:10019000BF016C1B7D0B64177507B4F4219120938C
:1001A000BB003093BC002091BC0027FFFCCF209106
:1001B000B900287F283261F32091B900287F622F8F
:1001C00070E031F3CB0105C0111103C024E9209385
:1001D000BC00DF91CF911F910F91FF9008950F9375
:1001E0001F93CF93DF93082FEB01142F0E94610020
:1001F0000097D9F5802F880F81600E947A000097C0
:10020000A1F5FE01212F2150330BA90134ECBF01D0
:100210006C1B7D0B641775079CF43093BC00209118
:10022000BC0027FFFCCF2091B900287F203529F0A2
:100230002091B900287F2193EACF2091BB00FBCF0A
:10024000C40FD51F24E82093BC002091BC0027FFD9
:10025000FCCF2091B900287F283561F02091B900AA
:10026000287F288324E92093BC00DF91CF911F9140
:100270000F9108952091BB00F4CF40E051EE60E073
:1002800070E08FE291E00E9465048FE291E00E94AD
:100290008403E1ECF0E0808188608083EBE3F1E0AF
:1002A00081E291E095838483938382839183808329
:1002B0000895CF93DF9300D0CDB7DEB789836A83EB
:1002C00020E042E0BE016F5F7F4F87E50E94B100F2
:1002D0000F900F90DF91CF910895CF93DF9300D0CF
:1002E000CDB7DEB78A8321E041E0BE016E5F7F4F6C
:1002F00087E50E94B10041E0BE016F5F7F4F87E557
:100300000E94EF0089810F900F90DF91CF910895A7
:10031000EF92FF920F931F93CF93DF9300D000D003
:1003200000D01F92CDB7DEB77C018B0187E08F83B1
:1003300021E041E0BE01695F7F4F87E50E94B10087
:1003400046E0BE016F5F7F4F87E50E94EF00298185
:100350008A8190E0B0E0A0E0BA2FA92F982F8827DB
:10036000A22B2B81822BA370BB27F7018083918363
:10037000A283B3832C818D8190E0B0E0A0E0BA2FFE
:10038000A92F982F8827A22B2E81822BA370BB2701
:10039000F80180839183A283B38327960FB6F894E4
:1003A000DEBF0FBECDBFDF91CF911F910F91FF90A8
:1003B000EF900895CF93DF9300D0CDB7DEB760E024
:1003C00082E090E00E9495008FEF8A8321E041E077
:1003D000BE016E5F7F4F87E50E94B1008FE99FE00D
:1003E0000197F1F700C0000041E0BE016F5F7F4F51
:1003F00087E50E94EF008FE99FE00197F1F700C0C9
:10040000000089818531A9F560E489E00E945901E5
:1004100062E089E00E9459019FEF21EE84E0915053
:1004200020408040E1F700C0000066E78AE00E94BB
:10043000590162E188E00E94590160E882E00E946F
:10044000590160E083E00E94590180E00E946D0143
:1004500081E00E946D016FE18CE00E9459016FE123
:100460008DE00E94590181E00F900F90DF91CF91B4
:10047000089580E0F9CFCF9384E00E946D01C82FEA
:1004800086E00E946D01C81720F0C81B8C2FCF9109
:100490000895C05EFACF7F928F929F92AF92BF92E3
:1004A000CF92DF92EF92FF920F931F93CF93DF9340
:1004B000CDB7DEB764970FB6F894DEBF0FBECDBFE1
:1004C0000E943D010E94DA01882309F46BC05A9A08
:1004D00062E08DE191E00E943F03E09AE89A78940F
:1004E00010E020E0822E21E0922E0E943B02782E26
:1004F000809106018823C9F3772009F44FC000E0FA
:1005000090E1A92EB12CBE01635F7F4FCE014196D1
:100510000E9488018D859E85AF85B889C80ED91E39
:10052000EA1EFB1E81E0A81AB10869F784E0F69480
:10053000E794D794C7948A95D1F794E0199FF00176
:10054000112481E090E08C0F9D1FE80FF91FC082FD
:10055000D182E282F3821F5F1330B9F489859A85D4
:100560002B853C8519861A861B861C863F932F9304
:100570009F938F939F928F920E949E060F900F9051
:100580000F900F900F900F9010E00F5F7012B8CF88
:1005900080E00E946D0181E00E946D01E09A10925E
:1005A0000601A3CF8FEF9FEF64960FB6F894DEBFDE
:1005B0000FBECDBFDF91CF911F910F91FF90EF90B4
:1005C000DF90CF90BF90AF909F908F907F900895D5
:1005D00081E0809306010895FC0182858E7F8287E9
:1005E000168217821086118610821182128213825F
:1005F000158214821786108A118A128A138614862D
:100600001586168693899E7F938B4115510561054A
:10061000710529F483E390E0958B848B08954083E2
:1006200051836283738346835783608771878160B8
:100630008287158A148A0895CF93DF93FC01611590
:10064000710541F481E190E0958B848B80E0DF912E
:10065000CF91089586819781A085B185EB0188832C
:100660009983AA83BB83158A148A81E0F0CF40E086
:1006700054E264EF70E087E091E00C94EC02FC013E
:10068000A9E6B0E09C919C7F962B9C93618380812E
:10069000816080831382128281E008951F920F92FD
:1006A0000FB60F9211242F933F934F935F936F9345
:1006B0007F938F939F93AF93BF93EF93FF930E948A
:1006C000E802FF91EF91BF91AF919F918F917F9140
:1006D0006F915F914F913F912F910F900FBE0F90AF
:1006E0001F901895EDE1F1E0118280818E7F80836B
:1006F0001382128208959091C00095FFFCCF8093E1
:10070000C60090E080E008952F923F924F925F9252
:100710006F927F928F929F92AF92BF92CF92DF9211
:10072000EF92FF920F931F93CF93DF9300D000D0EF
:10073000CDB7DEB77C012091C0003091C10080911F
:10074000C2004091C4005091C50019821A821B82D8
:100750001C82D7011B969C91992361F1913061F124
:100760008F7CF7019285913049F1923049F1D32E77
:10077000E894D2F8897FD70114969C91923061F168
:1007800008F5913039F1217EC22E182F1E73D70142
:100790001596EC9101E0E83010F5F0E0EE52FC4FD8
:1007A0000C946106EE033F044304460448044C04E1
:1007B0004E045204877FD4CF8860D2CF8063D7CFD6
:1007C0008062D5CF933021F09730E9F66894D2F863
:1007D0008660D9CF8260D7CF8460D5CF00E1BE01DB
:1007E0006F5F7F4F87E091E00E941C03F701268135
:1007F000378140855185A02FB0E00E9467069B019C
:10080000AC0169817A818B819C810E943F0619012C
:100810002A01F1E02F1A310841085108C092C000A6
:10082000D092C1001093C2009101A20160E070E07B
:1008300080E090E008E00E9474062F702093C500CD
:100840002092C400D70113961C921E92129781E049
:100850000F900F900F900F90DF91CF911F910F91FC
:10086000FF90EF90DF90CF90BF90AF909F908F90D0
:100870007F906F905F904F903F902F900895689475
:10088000C1F808E0ACCF106402E0A9CF1164FCCF3E
:100890008C73182F106CF8CF126CF6CF8C73182F46
:1008A000116CF2CF136CF0CFFC018081877F8083C5
:1008B000683030F08CE090E09383828380E008958C
:1008C00065831382128281E00895FC018081877F15
:1008D000808341158BE4580761057105D1F0C8F597
:1008E000403689E058076105710599F0D0F4403B26
:1008F00084E058076105710561F0483087E05807CA
:100900006105710531F0483582E0580761057105D0
:10091000D1F446835783608771871382128281E006
:100920000895403885E258076105710591F3403418
:1009300088E358076105710561F3403C82E158077F
:100940006105710531F380EB90E09383828380E051
:100950000895411581EE580761057105D1F298F4AB
:10096000411586E958076105710599F2403C8AED09
:1009700058076105710569F2403880E7580761053D
:10098000710509F7C6CF411584EF580781E0680764
:10099000710509F4BECF40F4411582EC580781E09F
:1009A0006807710581F6B5CF411584E8580783E0E3
:1009B0006807710509F4ADCF411588EE580783E04B
:1009C0006807710509F0BFCFA4CFDC018C91877F48
:1009D0008C93EFEAE60FEA3408F04FC0F0E0ED50F8
:1009E000FB4F0C946106450545053D053D05450554
:1009F00045053D053D05450545053D053D053D05CF
:100A00003D053D053D05450545053D053D054505BE
:100A100045053D053D05450545053D053D053D05AE
:100A20003D053D053D05450545053D053D0545059E
:100A300045053D053D05450545053D053D053D058E
:100A40003D053D053D05450545053D053D0545057E
:100A500045053D053D05450545053D053D053D056E
:100A60003D053D053D05450545053D053D0545055E
:100A700045053D053D054505450583EB90E013968D
:100A80009C938E93129780E00895862F8370813017
:100A900029F0823079F18FEF9FEFF1CF1B961C92F6
:100AA0001B9770E0CB0195958795959587958370F9
:100AB00099278130910519F18230910529F1892B0F
:100AC00051F71A961C921A9784E0759567958A9546
:100AD000E1F76730710529F1CCF481E066307105EA
:100AE000E1F014961C92149713961C921E92129782
:100AF00081E0089581E01B968C931B97D2CF81E013
:100B00001A968C931A97E0CF82E0FACF683071057D
:100B100051F087E06930710521F714968C93149792
:100B2000E3CF82E0FACF83E0F8CF0F931F93CF9308
:100B3000DF93EC01122F0E9465048823F9F0612FE6
:100B4000CE010E9454048823C9F0602FCE010E9478
:100B5000E504882399F08BE793E090932A01809332
:100B6000290110922C0110922B0182E08093240124
:100B700010922E0110922D011B821A82DF91CF91CB
:100B80001F910F9108950895089508951F920F924F
:100B90000FB60F9211242F933F934F935F936F9350
:100BA0007F938F939F93AF93BF93EF93FF930E9495
:100BB000C305FF91EF91BF91AF919F918F917F916D
:100BC0006F915F914F913F912F910F900FBE0F90BA
:100BD0001F9018951F920F920FB60F9211242F930A
:100BE0003F934F935F936F937F938F939F93AF93B5
:100BF000BF93EF93FF930E94C505FF91EF91BF91C3
:100C0000AF919F918F917F916F915F914F913F91A4
:100C10002F910F900FBE0F901F9018951F920F925B
:100C20000FB60F9211242F933F934F935F936F93BF
:100C30007F938F939F93AF93BF93EF93FF930E9404
:100C4000C405FF91EF91BF91AF919F918F917F91DB
:100C50006F915F914F913F912F910F900FBE0F9029
:100C60001F9018950F9301E820E040E855E260E0FE
:100C700070E08FE291E00E9495050F910895A1E246
:100C80001A2EAA1BBB1BFD010DC0AA1FBB1FEE1F06
:100C9000FF1FA217B307E407F50720F0A21BB30B51
:100CA000E40BF50B661F771F881F991F1A9469F7CD
:100CB00060957095809590959B01AC01BD01CF0129
:100CC0000895EE0FFF1F0590F491E02D09940E9406
:100CD0008F06A59F900DB49F900DA49F800D911D30
:100CE0001124089597FD1094002E083098F00850B4
:100CF000232F342F452F562F672F782F892F912D93
:100D0000F4CF15949795879577956795579547955F
:100D1000379527950A95AAF71124002D0895A29FCB
:100D2000B001B39FC001A39F700D811D1124911DBF
:100D3000B29F700D811D1124911D0895B0E0A0E0B7
:100D4000E4EAF6E00C944209AE014B5F5F4FFA0112
:100D500061917191AF0180913D0190913E010E949E
:100D6000B406E2E00C945E09ABE0B0E0EAEBF6E03A
:100D70000C9432097C013B018A01FC011782168226
:100D8000838181FFC8C1CE0101965C01F701938187
:100D9000F30193FD859193FF81913F01882309F42D
:100DA00053C1853239F493FD859193FF81913F01C1
:100DB000853229F4B70190E00E94A408E7CF912C76
:100DC000212C312CFFE1F31538F08B3211F190F426
:100DD000803209F1833229F137FC3CC020ED280F25
:100DE0002A3050F536FE20C08AE0989E200D11244E
:100DF000922E06C08D3291F0803371F7689430F8EE
:100E0000F30193FD859193FF81913F018111DACF29
:100E100021C0689431F8689432F8F2CF689433F8BE
:100E2000EFCF689434F8ECCFEAE02E9E200D112429
:100E3000222E689435F8E4CF8E3229F436FC04C1B2
:100E4000689436F8DDCF8C3619F4689437F8D8CF2B
:100E50008836B1F2982F9F7D95549330E0F0833619
:100E6000A1F18337C1F1833509F063C02801F2E0B5
:100E70004F0E511CF801C080D180692D70E036FC06
:100E800002C06FEF7FEFC6010E948E084C0168948C
:100E900037F882010AC00C5F1F4FFFE3F9838824F3
:100EA0008394912C6501E89437F833FE2DC0522CC1
:100EB0008114910471F5552009F468CFB70180E2DF
:100EC00090E00E94A4085A94F6CFF80180818983AB
:100ED0000E5F1F4FE4CF2801F2E04F0E511CF801C6
:100EE000C080D180692D70E036FC02C06FEF7FEFCB
:100EF000C6010E9499084C018201D5CFB70180E25A
:100F000090E00E94A4082A942814190409F0B0F76C
:100F1000CECFF60137FC859137FE81916F01B70185
:100F200090E00E94A40851105A94F1E08F1A9108A1
:100F3000BFCF843619F0893609F077C0F80137FE43
:100F40006BC060817181828193810C5F1F4FF32D93
:100F5000FF763F2E97FF09C090958095709561951B
:100F60007F4F8F4F9F4F689437F82AE030E0A501FC
:100F70000E94D408C82ECA188C2C432C36FE0CC0F4
:100F8000E89440F8C91440F434FE05C032FC03C0B4
:100F9000F32DFE7E4F2E892C44FE95C0FE01EC0DF4
:100FA000F11D8081803309F087C0242D297E422ED7
:100FB000842D8870582E43FC95C040FE8FC09C2C19
:100FC000821418F42C0C922C981844FE91C0B7018E
:100FD00080E390E00E94A40842FE09C088E790E008
:100FE00041FE02C088E590E0B7010E94A408C91440
:100FF00008F48AC0CA94D12C9FEFC91AD90ACA0C26
:10100000DB1CF60182916F01B70190E00E94A408F9
:10101000AC14BD04B1F74FCF60817181072E000C75
:10102000880B990B0E5F1F4F92CFD32CE894D4F806
:101030002AE030E0853739F1232D297FD22E8F36F3
:1010400001F148F48835A9F0F701868197812B9644
:10105000E2E10C944E09803749F08837A9F7D4FEB5
:1010600002C06894D2F820E130E00DC06894D4F852
:10107000F6CF34FE03C0822F8660D82E20E132E006
:1010800002C028E030E0F801D7FE0FC06081718116
:10109000828193810C5F1F4FA5010E94D408C82E46
:1010A000CA183D2CE89437F867CF6081718190E0D1
:1010B00080E00E5F1F4FF0CF42FC02C0839478CFD8
:1010C0008394839475CF842D867809F471CFF6CFFD
:1010D000B70180E290E00E94A40883948214C0F3D8
:1010E000512C73CF522C5818821408F46ECFF8CFBD
:1010F000842D867809F47BCF8BE241FE80E247FCA9
:101100008DE2B70190E071CFB70180E390E00E94DB
:10111000A4089A946CCF8FEF9FEF99CFFC010590B4
:10112000615070400110D8F7809590958E0F9F1FE9
:101130000895FC016150704001900110D8F780952E
:1011400090958E0F9F1F08950F931F93CF93DF935A
:10115000182F092FEB018B8181FD09C01FEF0FEFC5
:10116000812F902FDF91CF911F910F91089582FFD2
:1011700014C02E813F818C819D81281739073CF452
:10118000E881F981CF0101969983888310838E814C
:101190009F8101969F838E83E3CFE885F985812F18
:1011A0000995892BA1F3DACFFA01AA27283051F14A
:1011B000203181F1E8946F936E7F6E5F7F4F8F4F88
:1011C0009F4FAF4FB1E03ED0B4E03CD0670F781FE7
:1011D000891F9A1FA11D680F791F8A1F911DA11DCC
:1011E0006A0F711D811D911DA11D20D009F4689405
:1011F0003F912AE0269F11243019305D3193DEF6AD
:10120000CF010895462F4770405D4193B3E00FD062
:10121000C9F7F6CF462F4F70405D4A3318F0495D4D
:1012200031FD4052419302D0A9F7EACFB4E0A69530
:101230009795879577956795BA95C9F70097610552
:10124000710508959B01AC010A2E069457954795A8
:1012500037952795BA95C9F7620F731F841F951F9D
:10126000A01D08952F923F924F925F926F927F92AE
:101270008F929F92AF92BF92CF92DF92EF92FF92A6
:101280000F931F93CF93DF93CDB7DEB7CA1BDB0B52
:101290000FB6F894DEBF0FBECDBF09942A883988F7
:1012A00048885F846E847D848C849B84AA84B984FE
:1012B000C884DF80EE80FD800C811B81AA81B9810A
:1012C000CE0FD11D0FB6F894DEBF0FBECDBFED011E
:0612D0000895F894FFCF21
:0612D600256C750A0D00F5
:00000001FF
