:100000000C9437000C94C4040C945F000C945F00B3
:100010000C945F000C945F000C945F000C945F00E4
:100020000C945F000C945F000C945F000C945F00D4
:100030000C945F000C945F000C945F000C945F00C4
:100040000C945F000C945F000C943C070C948407A4
:100050000C9460070C945F000C945F000C945F009C
:100060000C945F000C945F00E804A80700081124BA
:100070001FBECFEFD8E0DEBFCDBF11E0A0E0B1E002
:10008000EAE7FAE102C005900D92A635B107D9F76B
:1000900021E0A6E5B1E001C01D92A139B207E1F768
:1000A00010E0C7E3D0E004C02197FE010E942A08B7
:1000B000C433D107C9F70E947B030C943B0D0C9409
:1000C000000084EA8093BC008091BC0087FFFCCFD5
:1000D0008091B900887F883051F08091B900887F85
:1000E000803129F08091B900887F90E0089590E0F8
:1000F00080E008958093BB0084E88093BC008091E9
:10010000BC0087FFFCCF8091B900887F883151F017
:100110008091B900887F803429F08091B900887F70
:1001200090E0089590E080E0089527B1206327B91A
:1001300028B1662361F0206328B927B12F7C27B945
:100140008130910551F028F0029749F008952F7CF5
:10015000F3CF88E48093B800089588E1FBCF8CE06A
:10016000F9CFFF920F931F93CF93DF93F82EEB01FC
:10017000042F122F0E946100009759F58F2D880FD0
:100180000E947A00009729F5FE01402F50E034E8E4
:10019000BF016C1B7D0B64177507B4F4219120938C
:1001A000BB003093BC002091BC0027FFFCCF209106
:1001B000B900287F283261F32091B900287F622F8F
:1001C00070E031F3CB0105C0111103C024E9209385
:1001D000BC00DF91CF911F910F91FF9008950F9375
:1001E0001F93CF93DF93082FEB01142F0E94610020
:1001F0000097D9F5802F880F81600E947A000097C0
:10020000A1F5FE01212F2150330BA90134ECBF01D0
:100210006C1B7D0B641775079CF43093BC00209118
:10022000BC0027FFFCCF2091B900287F203529F0A2
:100230002091B900287F2193EACF2091BB00FBCF0A
:10024000C40FD51F24E82093BC002091BC0027FFD9
:10025000FCCF2091B900287F283561F02091B900AA
:10026000287F288324E92093BC00DF91CF911F9140
:100270000F9108952091BB00F4CF40E051EE60E073
:1002800070E089E691E00E94DB0589E691E00E943A
:10029000FA04E1ECF0E0808188608083EBE8F1E033
:1002A0008BE591E09583848393838283918380831C
:1002B0000895CF93DF9300D0CDB7DEB789836A83EB
:1002C00020E042E0BE016F5F7F4F87E50E94B100F2
:1002D0000F900F90DF91CF910895CF93DF9300D0CF
:1002E000CDB7DEB78A8321E041E0BE016E5F7F4F6C
:1002F00087E50E94B10041E0BE016F5F7F4F87E557
:100300000E94EF0089810F900F90DF91CF910895A7
:10031000EF92FF920F931F93CF93DF9300D000D003
:1003200000D01F92CDB7DEB77C018B0187E08F83B1
:1003300021E041E0BE01695F7F4F87E50E94B10087
:1003400046E0BE016F5F7F4F87E50E94EF00298185
:100350008A8190E0B0E0A0E0BA2FA92F982F8827DB
:10036000A22B2B81822BA370BB27F7018083918363
:10037000A283B3832C818D8190E0B0E0A0E0BA2FFE
:10038000A92F982F8827A22B2E81822BA370BB2701
:10039000F80180839183A283B38327960FB6F894E4
:1003A000DEBF0FBECDBFDF91CF911F910F91FF90A8
:1003B000EF900895CF93DF9300D0CDB7DEB760E024
:1003C00082E090E00E9495008FEF8A8321E041E077
:1003D000BE016E5F7F4F87E50E94B1008FE99FE00D
:1003E0000197F1F700C0000041E0BE016F5F7F4F51
:1003F00087E50E94EF008FE99FE00197F1F700C0C9
:10040000000089818531A9F560E489E00E945901E5
:1004100062E089E00E9459019FEF21EE84E0915053
:1004200020408040E1F700C0000066E78AE00E94BB
:10043000590162E188E00E94590160E882E00E946F
:10044000590160E083E00E94590180E00E946D0143
:1004500081E00E946D0160E68CE00E94590160E637
:100460008DE00E94590181E00F900F90DF91CF91B4
:10047000089580E0F9CFCF9384E00E946D01C82FEA
:1004800086E00E946D01C81720F0C81B8C2FCF9109
:100490000895C05EFACF2F923F924F925F926F9273
:1004A0007F928F929F92AF92BF92CF92DF92EF9204
:1004B000FF920F931F93CF93DF93CDB7DEB72D97A6
:1004C0000FB6F894DEBF0FBECDBF5A834983190122
:1004D00041E050E019869B01215031093C832B8378
:1004E0008B809C804815590508F08FC09984092D90
:1004F00010E00215130508F088C0FA01EE0FFF1F87
:10050000EE0FFF1FE80FF91FC080D180E280F3805B
:10051000DF0114978D909D90AD90BC909A012F5F54
:100520003F4FC814D904EA04FB0408F06CC0DA0198
:100530001197AA0FBB1FAA0FBB1FA80FB91F8D9041
:100540009D90AD90BC908A869B86AC86BD869A01B4
:1005500026173707D0F44190519061907190DF01D8
:1005600018978D909D90AD90BC90481459046A04E2
:100570007B0458F44C145D046E047F0418F473017A
:100580006201A9012F5F3F4FE3CF8A849B84AC8433
:10059000BD848C189D08AE08BF08AAEA8A1691048B
:1005A000A104B10484F1F901EE0FFF1FEE0FFF1F4C
:1005B000E80FF91F26173707D8F481909190A19082
:1005C000B19026013701AAEA4A0E511C611C711C28
:1005D00084149504A604B70458F48C149D04AE0446
:1005E000BF0418F475016401A9012F5F3F4FE2CFEA
:1005F000000F111FE981FA81E00FF11F5183408341
:10060000E985EF5FE987A9016BCF89852D960FB644
:10061000F894DEBF0FBECDBFDF91CF911F910F9138
:10062000FF90EF90DF90CF90BF90AF909F908F9012
:100630007F906F905F904F903F902F9008958F9292
:100640009F92AF92BF92CF92DF92EF92FF920F9361
:100650001F93CF93DF93623008F449C049015A01D8
:10066000C62F8C01C12CD12C7601D1E0F80162811A
:1006700073810E5F1F4F80819181681B790B90E021
:1006800080E00E947509A50194010E94D4089B0195
:10069000AC01C701B6010E9468086B017C01DF5FF5
:1006A000CD13E4CF8C2F8150990BBC01072E000C89
:1006B000880B990B0E9477099B01AC01C701B60119
:1006C0000E94D4089B01AC0160E070E080E792E4F6
:1006D0000E94D408DF91CF911F910F91FF90EF906E
:1006E000DF90CF90BF90AF909F908F90089560E083
:1006F00070E0CB01EFCF2F923F924F925F926F92BB
:100700007F928F929F92AF92BF92CF92DF92EF92A1
:10071000FF920F931F93CF93DF93CDB7DEB7CC51EA
:10072000D7400FB6F894DEBF0FBECDBF0E943D018B
:100730000E94DA01882309F4F8C05A9A62E087E53A
:1007400091E00E94B504E09AE89A789410E000E005
:10075000512C0E943B02782E809156018823C9F3C8
:10076000772009F4DEC0612C50E1E52EF12CBE01AA
:100770006B5E784FCE01875E984F0E948801CB5EFA
:10078000D84F88819981AA81BB81C551D740880EF5
:10079000991EAA1EBB1E21E0E21AF10841F744E0AF
:1007A000B694A794979487944A95D1F734E0539ED2
:1007B000F001112489E097E08C0F9D1FE80FF91FCD
:1007C00080829182A282B382539493E05912A0C096
:1007D000CF5ED84F488159816A817B81C151D74012
:1007E000CF5ED84F188219821A821B82C151D7401E
:1007F000C8010196000F111F000F111FE1E0F0E08A
:10080000EC0FFD1FE00FF11F408351836283738360
:100810008C018C32914009F07AC02CE231E0AE01BB
:100820004F545B4F6CE271E0CE0101960E944B0287
:10083000582E1F928F9320E031E03F932F930E9418
:10084000700A8E010F541B4F0F900F900F900F9056
:10085000E51450F5F801819191918F01FFEFEF1AA6
:10086000FF0AFC01EE0FFF1FEE0FFF1F21E030E03B
:100870002C0F3D1FE20FF31F23812F9322812F9313
:1008800021812F9320812F939F938F93FF92EF923B
:100890008FE191E09F938F930E94700A0FB6F894B6
:1008A000DEBF0FBECDBFD4CF20E030E04AE752E438
:1008B000652DCE018F549B4F0E941F036B017C015D
:1008C0000E9446091B0190E080E00E9475099B018F
:1008D000AC01C701B6010E94670820E030E048EC97
:1008E00052E40E94030A0E9446097F936F933F924D
:1008F0002F928EE391E09F938F930E94700A0F9046
:100900000F900F900F900F900F9010E000E0512C7F
:100910006394761029CF80E00E946D0181E00E94EF
:100920006D01E09A1092560114CF8FEF9FEFC45ED5
:10093000D84F0FB6F894DEBF0FBECDBFDF91CF9179
:100940001F910F91FF90EF90DF90CF90BF90AF90ED
:100950009F908F907F906F905F904F903F902F90DF
:10096000089581E0809356010895FC01A9E6B0E066
:100970009C919C7F962B9C93618380818160808376
:100980001382128281E008951F920F920FB60F9288
:1009900011242F933F934F935F936F937F938F9384
:1009A0009F93AF93BF93EF93FF930E94B104FF9186
:1009B000EF91BF91AF919F918F917F916F915F91D7
:1009C0004F913F912F910F900FBE0F901F90189550
:1009D000E7E5F1E0118280818E7F808313821282AD
:1009E00008959091C00095FFFCCF8093C60090E0E1
:1009F00080E008952F923F924F925F926F927F9284
:100A00008F929F92AF92BF92CF92DF92EF92FF921E
:100A10000F931F93CF93DF9300D000D0CDB7DEB7F5
:100A20007C012091C0003091C1008091C2004091B2
:100A3000C4005091C50019821A821B821C82D70102
:100A40001B969C91992361F1913061F18F7CF701A4
:100A50009285913049F1923049F1D32EE894D2F841
:100A6000897FD70114969C91923061F108F59130FD
:100A700039F1217EC22E182F1E73D7011596EC91E5
:100A800001E0E83010F5F0E0E85BFA4F0C942A083A
:100A90006405B505B905BC05BE05C205C405C80594
:100AA000877FD4CF8860D2CF8063D7CF8062D5CF05
:100AB000933021F09730E9F66894D2F88660D9CF68
:100AC0008260D7CF8460D5CF00E1BE016F5F7F4FDA
:100AD00085E791E00E94E507F7012681378140858F
:100AE0005185A02FB0E00E9430089B01AC016981C4
:100AF0007A818B819C810E94080819012A01F1E00A
:100B00002F1A310841085108C092C000D092C1008C
:100B10001093C2009101A20160E070E080E090E0DB
:100B200008E00E943D082F702093C5002092C40069
:100B3000D70113961C921E92129781E00F900F908E
:100B40000F900F90DF91CF911F910F91FF90EF9039
:100B5000DF90CF90BF90AF909F908F907F906F90DD
:100B60005F904F903F902F9008956894C1F808E0EF
:100B7000ACCF106402E0A9CF1164FCCF8C73182FA6
:100B8000106CF8CF126CF6CF8C73182F116CF2CF5B
:100B9000136CF0CFFC018081877F8083683030F058
:100BA0008CE090E09383828380E0089565831382D4
:100BB000128281E00895FC018081877F8083411546
:100BC0008BE4580761057105D1F0C8F5403689E01E
:100BD00058076105710599F0D0F4403B84E058074F
:100BE0006105710561F0483087E0580761057105BE
:100BF00031F0483582E0580761057105D1F446832C
:100C00005783608771871382128281E0089540388C
:100C100085E258076105710591F3403488E3580770
:100C20006105710561F3403C82E15807610571057A
:100C300031F380EB90E09383828380E00895411547
:100C400081EE580761057105D1F298F4411586E9E6
:100C500058076105710599F2403C8AED5807610516
:100C6000710569F2403880E758076105710509F799
:100C7000C6CF411584EF580781E06807710509F474
:100C8000BECF40F4411582EC580781E0680771053A
:100C900081F6B5CF411584E8580783E068077105F0
:100CA00009F4ADCF411588EE580783E06807710558
:100CB00009F0BFCFA4CFDC018C91877F8C93EFEA42
:100CC000E60FEA3408F04FC0F0E0E759F94F0C9412
:100CD0002A08BB06BB06B306B306BB06BB06B306B3
:100CE000B306BB06BB06B306B306B306B306B3062C
:100CF000B306BB06BB06B306B306BB06BB06B3060C
:100D0000B306BB06BB06B306B306B306B306B3060B
:100D1000B306BB06BB06B306B306BB06BB06B306EB
:100D2000B306BB06BB06B306B306B306B306B306EB
:100D3000B306BB06BB06B306B306BB06BB06B306CB
:100D4000B306BB06BB06B306B306B306B306B306CB
:100D5000B306BB06BB06B306B306BB06BB06B306AB
:100D6000B306BB06BB0683EB90E013969C938E9371
:100D7000129780E00895862F8370813029F08230A9
:100D800079F18FEF9FEFF1CF1B961C921B9770E0CC
:100D9000CB01959587959595879583709927813097
:100DA000910519F18230910529F1892B51F71A9695
:100DB0001C921A9784E0759567958A95E1F76730DC
:100DC000710529F1CCF481E066307105E1F01496EB
:100DD0001C92149713961C921E92129781E008950C
:100DE00081E01B968C931B97D2CF81E01A968C934F
:100DF0001A97E0CF82E0FACF6830710551F087E0B2
:100E00006930710521F714968C931497E3CF82E033
:100E1000FACF83E0F8CF0F931F93CF93DF93EC01CA
:100E2000122F0E94DB058823F9F0612FCE010E946A
:100E3000CA058823C9F0602FCE010E945B06882373
:100E400099F081EF94E09093640180936301109294
:100E500066011092650182E080935E011092680144
:100E6000109267011B821A82DF91CF911F910F911F
:100E700008950895089508951F920F920FB60F9246
:100E800011242F933F934F935F936F937F938F938F
:100E90009F93AF93BF93EF93FF930E943907FF9106
:100EA000EF91BF91AF919F918F917F916F915F91E2
:100EB0004F913F912F910F900FBE0F901F9018955B
:100EC0001F920F920FB60F9211242F933F934F93BF
:100ED0005F936F937F938F939F93AF93BF93EF93A2
:100EE000FF930E943B07FF91EF91BF91AF919F91BC
:100EF0008F917F916F915F914F913F912F910F90C3
:100F00000FBE0F901F9018951F920F920FB60F9261
:100F100011242F933F934F935F936F937F938F93FE
:100F20009F93AF93BF93EF93FF930E943A07FF9174
:100F3000EF91BF91AF919F918F917F916F915F9151
:100F40004F913F912F910F900FBE0F901F901895CA
:100F50000F9301E820E040E855E260E070E089E6A8
:100F600091E00E940B070F910895FC0182858E7F0E
:100F70008287168217821086118610821182128251
:100F80001382158214821786108A118A128A138698
:100F900014861586168693899E7F938B411551057D
:100FA0006105710529F483E390E0958B848B0895A6
:100FB000408351836283738346835783608771873D
:100FC00081608287158A148A0895CF93DF93FC018C
:100FD0006115710541F481E190E0958B848B80E08F
:100FE000DF91CF91089586819781A085B185EB012E
:100FF00088839983AA83BB83158A148A81E0F0CF02
:1010000040E054E264EF70E085E791E00C94B507AE
:10101000A1E21A2EAA1BBB1BFD010DC0AA1FBB1FFC
:10102000EE1FFF1FA217B307E407F50720F0A21B6E
:10103000B30BE40BF50B661F771F881F991F1A94DB
:1010400069F760957095809590959B01AC01BD0105
:10105000CF010895EE0FFF1F0590F491E02D099444
:101060000E945808A59F900DB49F900DA49F800DDD
:10107000911D1124089597FD1094002E083098F0CA
:101080000850232F342F452F562F672F782F892F65
:10109000912DF4CF159497958795779567955795EA
:1010A0004795379527950A95AAF71124002D08959D
:1010B000A29FB001B39FC001A39F700D811D112499
:1010C000911DB29F700D811D1124911D08955058DE
:1010D000BB27AA270E947F080C94C9090E94BB095C
:1010E00038F00E94C20920F039F49F3F19F426F429
:1010F0000C94B8090EF4E095E7FB0C94B209E92FC3
:101100000E94DA0958F3BA17620773078407950734
:1011100020F079F4A6F50C94FC090EF4E0950B2E62
:10112000BA2FA02D0B01B90190010C01CA01A00139
:101130001124FF27591B99F0593F50F4503E68F194
:101140001A16F040A22F232F342F4427585FF3CFD5
:10115000469537952795A795F0405395C9F77EF4A6
:101160001F16BA0B620B730B840BBAF09150A1F0EF
:10117000FF0FBB1F661F771F881FC2F70EC0BA0F75
:10118000621F731F841F48F4879577956795B795FD
:10119000F7959E3F08F0B0CF9395880F08F09927F8
:1011A000EE0F9795879508950E94E8080C94C90959
:1011B0000E94C20958F00E94BB0940F029F45F3F29
:1011C00029F00C94B20951110C94FD090C94B80942
:1011D0000E94DA0968F39923B1F3552391F3951B23
:1011E000550BBB27AA2762177307840738F09F5F48
:1011F0005F4F220F331F441FAA1FA9F335D00E2EB5
:101200003AF0E0E832D091505040E695001CCAF721
:101210002BD0FE2F29D0660F771F881FBB1F2617E4
:1012200037074807AB07B0E809F0BB0B802DBF01BB
:10123000FF2793585F4F3AF09E3F510578F00C948A
:10124000B2090C94FD095F3FE4F3983ED4F3869510
:1012500077956795B795F7959F5FC9F7880F911DAB
:101260009695879597F90895E1E0660F771F881F97
:10127000BB1F621773078407BA0720F0621B730B4A
:10128000840BBA0BEE1F88F7E09508950E94E209DF
:1012900088F09F5798F0B92F9927B751B0F0E1F037
:1012A000660F771F881F991F1AF0BA95C9F714C0E7
:1012B000B13091F00E94FC09B1E008950C94FC0952
:1012C000672F782F8827B85F39F0B93FCCF3869520
:1012D00077956795B395D9F73EF49095809570957D
:1012E00061957F4F8F4F9F4F0895E89409C097FBFA
:1012F0003EF490958095709561957F4F8F4F9F4FED
:101300009923A9F0F92F96E9BB279395F695879530
:1013100077956795B795F111F8CFFAF4BB0F11F4F3
:1013200060FF1BC06F5F7F4F8F4F9F4F16C088239A
:1013300011F096E911C0772321F09EE8872F762FD0
:1013400005C0662371F096E8862F70E060E02AF011
:101350009A95660F771F881FDAF7880F96958795FD
:1013600097F9089597F99F6780E870E060E0089525
:101370009FEF80EC089500240A94161617061806AD
:101380000906089500240A94121613061406050689
:101390000895092E0394000C11F4882352F0BB0F1A
:1013A00040F4BF2B11F460FF04C06F5F7F4F8F4F7D
:1013B0009F4F089557FD9058440F551F59F05F3FB8
:1013C00071F04795880F97FB991F61F09F3F79F067
:1013D00087950895121613061406551FF2CF4695E9
:1013E000F1DF08C0161617061806991FF1CF86956B
:1013F0007105610508940895E894BB27662777274F
:10140000CB0197F908950E94160A0C94C9090E940D
:10141000BB0938F00E94C20920F0952311F00C940A
:10142000B2090C94B80911240C94FD090E94DA0940
:1014300070F3959FC1F3950F50E0551F629FF00127
:10144000729FBB27F00DB11D639FAA27F00DB11D40
:10145000AA1F649F6627B00DA11D661F829F2227C9
:10146000B00DA11D621F739FB00DA11D621F839F50
:10147000A00D611D221F749F3327A00D611D231F26
:10148000849F600D211D822F762F6A2F11249F5774
:1014900050409AF0F1F088234AF0EE0FFF1FBB1F77
:1014A000661F771F881F91505040A9F79E3F510536
:1014B00080F00C94B2090C94FD095F3FE4F3983E70
:1014C000D4F3869577956795B795F795E7959F5FE0
:1014D000C1F7FE2B880F911D9695879597F9089572
:1014E000B0E0A0E0E6E7FAE00C94140DAE014B5F2B
:1014F0005F4FFA0161917191AF0180918D019091DF
:101500008E010E94860AE2E00C94300DABE0B0E060
:10151000ECE8FAE00C94040D7C013B018A01FC012B
:1015200017821682838181FFC8C1CE0101965C01BA
:10153000F7019381F30193FD859193FF81913F0121
:10154000882309F453C1853239F493FD859193FFC3
:1015500081913F01853229F4B70190E00E94760C19
:10156000E7CF912C212C312CFFE1F31538F08B3291
:1015700011F190F4803209F1833229F137FC3CC03B
:1015800020ED280F2A3050F536FE20C08AE0989EC4
:10159000200D1124922E06C08D3291F0803371F708
:1015A000689430F8F30193FD859193FF81913F0199
:1015B0008111DACF21C0689431F8689432F8F2CF03
:1015C000689433F8EFCF689434F8ECCFEAE02E9EBD
:1015D000200D1124222E689435F8E4CF8E3229F4A0
:1015E00036FC04C1689436F8DDCF8C3619F4689463
:1015F00037F8D8CF8836B1F2982F9F7D9554933025
:10160000E0F08336A1F18337C1F1833509F063C07F
:101610002801F2E04F0E511CF801C080D180692DE5
:1016200070E036FC02C06FEF7FEFC6010E94600CD5
:101630004C01689437F882010AC00C5F1F4FFFE32A
:10164000F98388248394912C6501E89437F833FE5C
:101650002DC0522C8114910471F5552009F468CFE6
:10166000B70180E290E00E94760C5A94F6CFF80120
:10167000808189830E5F1F4FE4CF2801F2E04F0E77
:10168000511CF801C080D180692D70E036FC02C089
:101690006FEF7FEFC6010E946B0C4C018201D5CF2A
:1016A000B70180E290E00E94760C2A942814190475
:1016B00009F0B0F7CECFF60137FC859137FE819166
:1016C0006F01B70190E00E94760C51105A94F1E03E
:1016D0008F1A9108BFCF843619F0893609F077C088
:1016E000F80137FE6BC060817181828193810C5F4C
:1016F0001F4FF32DFF763F2E97FF09C090958095E1
:10170000709561957F4F8F4F9F4F689437F82AE00F
:1017100030E0A5010E94A60CC82ECA188C2C432CC0
:1017200036FE0CC0E89440F8C91440F434FE05C0FD
:1017300032FC03C0F32DFE7E4F2E892C44FE95C053
:10174000FE01EC0DF11D8081803309F087C0242D4E
:10175000297E422E842D8870582E43FC95C040FE71
:101760008FC09C2C821418F42C0C922C981844FED8
:1017700091C0B70180E390E00E94760C42FE09C060
:1017800088E790E041FE02C088E590E0B7010E9442
:10179000760CC91408F48AC0CA94D12C9FEFC91AD8
:1017A000D90ACA0CDB1CF60182916F01B70190E0E7
:1017B0000E94760CAC14BD04B1F74FCF60817181EB
:1017C000072E000C880B990B0E5F1F4F92CFD32C66
:1017D000E894D4F82AE030E0853739F1232D297FC9
:1017E000D22E8F3601F148F48835A9F0F7018681B1
:1017F00097812B96E2E10C94200D803749F08837D1
:10180000A9F7D4FE02C06894D2F820E130E00DC000
:101810006894D4F8F6CF34FE03C0822F8660D82EA9
:1018200020E132E002C028E030E0F801D7FE0FC02E
:1018300060817181828193810C5F1F4FA5010E949D
:10184000A60CC82ECA183D2CE89437F867CF6081E3
:10185000718190E080E00E5F1F4FF0CF42FC02C02C
:10186000839478CF8394839475CF842D867809F4FC
:1018700071CFF6CFB70180E290E00E94760C83949E
:101880008214C0F3512C73CF522C5818821408F4D0
:101890006ECFF8CF842D867809F47BCF8BE241FEA2
:1018A00080E247FC8DE2B70190E071CFB70180E3A1
:1018B00090E00E94760C9A946CCF8FEF9FEF99CFB7
:1018C000FC010590615070400110D8F7809590950B
:1018D0008E0F9F1F0895FC01615070400190011010
:1018E000D8F7809590958E0F9F1F08950F931F93A3
:1018F000CF93DF93182F092FEB018B8181FD09C056
:101900001FEF0FEF812F902FDF91CF911F910F913C
:10191000089582FF14C02E813F818C819D812817FC
:1019200039073CF4E881F981CF01019699838883D6
:1019300010838E819F8101969F838E83E3CFE885FC
:10194000F985812F0995892BA1F3DACFFA01AA270E
:10195000283051F1203181F1E8946F936E7F6E5FF2
:101960007F4F8F4F9F4FAF4FB1E03ED0B4E03CD0A0
:10197000670F781F891F9A1FA11D680F791F8A1F83
:10198000911DA11D6A0F711D811D911DA11D20D0EA
:1019900009F468943F912AE0269F11243019305DA4
:1019A0003193DEF6CF010895462F4770405D419395
:1019B000B3E00FD0C9F7F6CF462F4F70405D4A33E2
:1019C00018F0495D31FD4052419302D0A9F7EACFAA
:1019D000B4E0A6959795879577956795BA95C9F7D9
:1019E00000976105710508959B01AC010A2E0694CC
:1019F0005795479537952795BA95C9F7620F731F85
:101A0000841F951FA01D08952F923F924F925F92C1
:101A10006F927F928F929F92AF92BF92CF92DF92FE
:101A2000EF92FF920F931F93CF93DF93CDB7DEB763
:101A3000CA1BDB0B0FB6F894DEBF0FBECDBF0994F7
:101A40002A88398848885F846E847D848C849B844E
:101A5000AA84B984C884DF80EE80FD800C811B815C
:101A6000AA81B981CE0FD11D0FB6F894DEBF0FBE8B
:0A1A7000CDBFED010895F894FFCFFB
:101A7A00546F74616C2064652076616C65732064B0
:101A8A00657465637461646F733A2025750A00563C
:101A9A00616C652025753A20C3AD6E646963652063
:101AAA0025752C2076616C6F722025750A004250CC
:101ABA004D20657374696D61646F3A2025752E2512
:061ACA003032750A0D0028
:00000001FF
