:100000000C9438000C9417190C9460000C94600048
:100010000C9460000C9460000C9460000C946000E0
:100020000C9460000C9460000C9460000C946000D0
:100030000C9460000C9460000C9467190C948B195C
:100040000C94AF190C9460000C94281C0C94701C38
:100050000C944C1C0C9460000C9460000C94600098
:100060000C9460000C9460003B19D319941CEC1C98
:1000700011241FBECFEFD8E0DEBFCDBF15E0A0E05A
:10008000B1E0ECEBF0E402C005900D92AE31B107A7
:10009000D9F728E0AEE1B5E001C01D92A233B20766
:1000A000E1F710E0C8E3D0E004C02197FE010E9410
:1000B0002A1DC433D107C9F70E945D020C945C204D
:1000C0000C94000040E051EE60E070E08AE098E0BF
:1000D0000E94C71A61E88AE098E00E94471B8AE004
:1000E00098E00E94E619E1ECF0E08081886080836E
:1000F000ECE2F8E08CEF97E095838483938382832E
:100100009183808308950F931F93CF93DF9381E0B2
:1001100091E09F938F930E946E1D2FEF81EE94E0EC
:10012000215080409040E1F700C0000082E190E063
:100130000E942A1441E068E172E085EB95E00E949C
:10014000DB0D9093E5078093E4070F900F900097E5
:1001500099F09F938F9383E291E09F938F930E94F6
:100160006E1D0F900F900F900F9010E0812FDF9178
:10017000CF911F910F91089581E591E09F938F9307
:100180000E946E1D81E090E09093B4058093B305CA
:100190000F900F90CCE6D1E005EA15E08091B30511
:1001A0009091B4058031E7E29E07F8F49F938F9316
:1001B000DF93CF931F930F930E94841D46E065EA5F
:1001C00075E08FE195E00E94200E9093E507809303
:1001D000E4070F900F900F900F900F900F90892BC6
:1001E00009F057C081E080931E0510911E0589E734
:1001F00091E0112309F478C085EA95E09F938F93ED
:100200008AE991E09F938F930E946E1D67EB71E0E6
:1002100081E495E00E94671DC1E4D5E0FE010190F4
:100220000020E9F7CF016FEC71E001970E94671D94
:10023000FE0101900020E9F7CF0162EE71E0019725
:100240000E94671DFE0101900020E9F7CF016EEFCB
:1002500071E001970E94671D09900020E9F7AE0147
:100260004254554023EB35E061E475E08FE195E0C1
:100270000E9484109093E5078093E4070F900F90FD
:100280000F900F90009779F09F938F9389E192E000
:1002900064CF8091B3059091B40501969093B40515
:1002A0008093B3057BCF8091B4058F938091B30584
:1002B0008F9384E492E09F938F930E946E1D8FE151
:1002C00095E00E9439129093E5078093E4070F9020
:1002D0000F900F900F90009729F09F938F9388E6CF
:1002E00092E03BCF80E992E09F938F930E946E1D36
:1002F0000F900F903BCF0F931F93CF93DF932091DD
:100300001E052223A1F1092F182F9F938F938DEAA9
:1003100092E09F938F93C1E4D5E0DF93CF930E9447
:10032000841D09900020E9F7AE014254554023EBAB
:1003300035E061E475E08FE195E00E9484109093D0
:10034000E5078093E4070F900F900F900F900F90A8
:100350000F90009789F09F938F9380ED92E09F9389
:100360008F930E946E1D0F900F900F900F90DF9152
:10037000CF911F910F910895812F902F6AE070E027
:100380000E94F41C892B99F78FE195E00E943912A5
:100390009093E5078093E407009729F09F938F934C
:1003A00088E692E0DCCF0F931F938EEF92E0D7CFD9
:1003B000CF93DF9380911E05882309F472C080E2F9
:1003C00093E09F938F930E946E1D6EEF71E081E426
:1003D00095E00E94671DC1E4D5E0FE010190002078
:1003E000E9F7CF0162E473E001970E94671DFE0107
:1003F00001900020E9F7CF0167E573E001970E94C3
:10040000671D09900020E9F7AE014254554023EBE7
:1004100035E061E475E08FE195E00E948410FFEF24
:1004200020E782E0F15020408040E1F700C000006A
:100430008FE195E00E9439129093E5078093E407DD
:100440000F900F90009761F09F938F938EE693E04B
:100450009F938F930E946E1D0F900F900F900F909F
:100460009FEFE0E7F2E09150E040F040E1F700C09C
:1004700000008FE195E00E9427139093E507809399
:10048000E407009789F09F938F938EE993E09F9301
:100490008F930E946E1D0F900F900F900F901092EF
:1004A0001E05DF91CF91089587EC93E09F938F9382
:1004B0000E946E1D0F900F90F2CF4F925F926F923D
:1004C0007F928F929F92AF92BF92CF92DF92EF92E4
:1004D000FF920F931F93CF93DF930E9462008BEEE6
:1004E00093E09F938F930E946E1D8BE987BD45E03B
:1004F00062E087EF97E00E944419A99A80916E000C
:10050000826080936E0085E094E09F938F930E94B9
:100510006E1D78940E9483000F900F900F900F90A3
:10052000811110C082E294E09F938F930E946E1D10
:100530008BE494E09F938F930E946E1D0F900F9019
:100540000F900F908DE794E09F938F930E946E1D04
:100550000F900F90C12CD12C7601D0E0C0E080EA42
:10056000882E86E8982EAA24A394B12C0FE914E0D3
:1005700090E5492E93EC592E612C712C8FEFC81AFF
:10058000D80AE80AF80AC701B601A50194010E9439
:10059000081D672B682B692BA9F4219680911E05F5
:1005A000882369F0CE010E947B01DF93CF931F93D4
:1005B0000F930E946E1D0F900F900F900F90C233FB
:1005C000D10588F4C701B601A30192010E94081D5C
:1005D000672B682B692B91F68FE99FE00197F1F764
:1005E00000C00000CBCF0E94D80185EA95E09F9320
:1005F0008F938EEB94E09F938F930E946E1D88EEF5
:1006000094E09F938F930E946E1D0F900F900F9018
:100610000F900F900F9090E080E0DF91CF911F91AD
:100620000F91FF90EF90DF90CF90BF90AF909F9091
:100630008F907F906F905F904F90089581E08093AE
:10064000E60708950C94DF18811102C00C9431154F
:1006500081E00895811102C00C945F1481E0089537
:100660000F931F93FB01BA01A9019801811105C0E5
:10067000CF011F910F910C94341584E090E01F91ED
:100680000F9108950F931F93FB01BA01A9019801DF
:10069000811105C0CF011F910F910C94851584E045
:1006A00090E01F910F910895962F811104C0BA0117
:1006B000892F0C94081684E090E00895FC01628173
:1006C000738190E080E0982F872F762F6627218115
:1006D000622B982F872F762F66272081622B089513
:1006E000DC01FB01480F591F9D918191292F281B87
:1006F000330BC901A417B50711F00097A9F30895AA
:100700000F931F93FC019A01AB012250310941095B
:10071000510983899489A589B6890297A109B109EC
:10072000281739074A075B0778F4A185B2850E942C
:100730003F1D07A110A521A532A5600F711F821FC3
:10074000931F1F910F91089560E070E0CB01F9CFE6
:10075000DC012D913C9111972115310569F0F901CA
:10076000AF019191903259F050F09A33C9F7F901E5
:1007700081914E175F0741F08FEF9FEF08959A33F5
:10078000B1F390E080E008958033B1F74F5F5F4FA1
:100790004D935C93F6CF0F931F93CF93DF93EC01B0
:1007A0008B01892B61F489E090E030E020E0F801D2
:1007B00031832083DF91CF911F910F910895E881BC
:1007C000F981309781F38081882369F32A813B8105
:1007D000858196812817390731F781810E9424038A
:1007E00080FDE1CF2881398190E080E0E0CFFB01FE
:1007F000460F571F2191DC012D93CD01E417F5071A
:10080000C9F70895FB01428D538D70E060E083309D
:1008100059F484899589B0E0A0E0DC019927882704
:10082000482B592B6A2B7B2BCB01BA0108958F9251
:100830009F92AF92BF92EF92FF920F931F93CF932D
:10084000DF93EC017C014FE2E40EF11C2BA53CA5EB
:100850004DA55EA501E010E0B70189810E94420329
:10086000892B61F51B820BA51CA52DA53EA58F89A3
:10087000988DA98DBA8D8F8C98A0A9A0BAA0B90126
:10088000A801481959096A097B094A015B018816C0
:100890009906AA06BB0678F46A81623061F4A90160
:1008A0009801280F391F4A1F5B1F01E010E0B701B4
:1008B00089810E94420390E080E002C081E090E0E4
:1008C000DF91CF911F910F91FF90EF90BF90AF906C
:1008D0009F908F900895FC01238121110C9417049F
:1008E00090E080E008958F929F92AF92BF92EF9236
:1008F000FF920F931F93CF93DF93EC014A015B01AB
:100900008BA59CA5ADA5BEA5F12CE12C881599055C
:10091000AA05BB05E9F0CE010E946B047C01892B7E
:10092000B9F401E010E0A5019401BE01615D7F4FC3
:1009300089810E943003892B39F0EE24E394F12C55
:1009400088248A94982C54018BA69CA6ADA6BEA69A
:10095000C701DF91CF911F910F91FF90EF90BF9052
:10096000AF909F908F900895CF93DF93EC011B82FF
:100970008FEF9FEFDC018BA79CA7ADA7BEA7CE0191
:100980000E947304892B31F5FE01E35DFD4F8081E8
:10099000918185359A4A11F58FA58B3E19F0885EB5
:1009A0008230F0F443E050E064E075E0CE018B5912
:1009B0009F4F0E947003892B59F045E050E068E09A
:1009C00075E0CE018F579F4F0E947003892B41F431
:1009D00080E001C084E0DF91CF91089583E0FBCFF8
:1009E00082E0F9CF2F923F924F925F926F927F9267
:1009F0008F929F92AF92BF92CF92DF92EF92FF922F
:100A00000F931F93CF93DF93CDB7DEB76E970FB6DB
:100A1000F894DEBF0FBECDBF5B01F42EDB011D924B
:100A20001C920E94A8036C018BE090E0D7FC22C0CE
:100A3000F601EE0FFF1FE751F84F008111818CE0A6
:100A400090E001151105B1F0F50111830083E894E0
:100A5000F0F8D8018C91882331F111968C910E9485
:100A6000240380FD20C0FF2009F405C282FF03C2D9
:100A70008AE090E06E960FB6F894DEBF0FBECDBF51
:100A8000DF91CF911F910F91FF90EF90DF90CF906A
:100A9000BF90AF909F908F907F906F905F904F909E
:100AA0003F902F900895F8011082C1828C2D0E94F2
:100AB0002A0380FD0FC2FF2011F082FDD9CF40E054
:100AC00050E0BA01C8010E94B404823009F0FFC0AE
:100AD0006801FFE0CF1AFEEFDF0A9E012F5F3F4F54
:100AE000790148013FEC831A3DEF930A5701D60183
:100AF0008C91882309F4DEC0C60104960E945E032F
:100B0000F50161937193819391935F01F0E1CF0EB1
:100B1000D11CC814D90459F7670120E1C20ED11CB9
:100B2000D7014D905D906D907D907D0183E04114E3
:100B300051046104710409F4C1C0B301A201C801E8
:100B40000E94B404823008F0B9C0F80182AD93ADC0
:100B50008115924009F0C3C0F801EB5BFF4F808024
:100B60009180B12CA12C8114910439F4C8018D5AC3
:100B70009F4F0E945E034B015C01D80157968D92F6
:100B80009D92AD92BC925A97DF96BC91B98BF801B9
:100B9000B2838B2F8150823008F0A1C034AD3E8BE0
:100BA000832F90E092878187009709F498C09C0179
:100BB0002150310982239323892B09F090C0E05CF6
:100BC000FF4F20803180D80118963C922E921797C3
:100BD000C1018F709927892B09F081C03296C0809E
:100BE000D180F12CE12CC114D10439F4C801815B0E
:100BF0009F4F0E945E036B017C01D801DD96ED9151
:100C0000FC91309709F46BC02989A22FB0E0A501AF
:100C100094010E943F1D6B8F7C8F8D8F9E8FCF0123
:100C2000B0E0A0E08F8B988FA98FBA8FC10154E0FC
:100C3000969587955A95E1F72F89388D498D5A8D6C
:100C4000280F391F411D511DDA01C9012B8D3C8D23
:100C50004D8D5E8D280F391F4A1F5B1F2A8B3B8BE2
:100C60004C8B5D8BC216D306E406F506C0F1C701B6
:100C7000B601621B730B840B950BAE892A2F30E0F3
:100C800050E040E00E94081D211531054105510545
:100C900031F1263FBFEF3B074B07BFE05B07F8F49E
:100CA000263F9FEF39074105510508F416C1A3E01F
:100CB000A98B1AC060E070E0CB0122CFCE14DF0414
:100CC00009F02ECF843059F481E090E0D3CE843007
:100CD000D9F3412C512C3201823008F436CF8DE00B
:100CE00090E0C8CEE1E0E98B69017A01F2E0CF0E35
:100CF000D11CE11CF11CD8015396CD92DD92ED92EE
:100D0000FC925697F801438E548E658E768E8F89AD
:100D1000988DA98DBA8D840D951DA61DB71D878F41
:100D200090A3A1A3B2A34A895B896C897D89440DF4
:100D3000551D661D771D47A350A761A772A7F989A6
:100D4000F33009F09BC0F801E75AFF4F8081918191
:100D5000892B29F6232819F6C801855A9F4F0E942E
:100D60005E03D80193966D937D938D939C93969794
:100D700042E0CC0CDD1CEE1CFF1C4A95D1F73FEF86
:100D8000C30E31E0D31EE11CF11C89E0F694E79418
:100D9000D794C7948A95D1F78C149D04AE04BF04F0
:100DA00008F49DCF8FEF9FEFDC01F8018787908BD0
:100DB000A18BB28B83879487A587B68780E88483CD
:100DC000F989F33009F047C0F801E15AFF4F8081FB
:100DD0009181019709F03FC0B301A2014F5F5F4FBE
:100DE0006F4F7F4FC8010E947304892BA1F5D80172
:100DF00014961C92F801E35DFD4F80819181853549
:100E00009A4A49F5C8018F960E945E036235724581
:100E10008146914401F5C8018D5E9D4F0E945E039D
:100E20006237724781449146B1F4C801895E9D4F93
:100E30000E945E03D8011F966D937D938D939C93C2
:100E40005297C801855E9D4F0E945E03F80163873B
:100E5000748785879687E989D801EC938091E707A5
:100E60009091E80701969093E8078093E70716961C
:100E70009C938E93159790E080E0FCCD232809F495
:100E80002ECF2B8D3C8D4D8D5E8D820F931FA41F19
:100E9000B51FF80183A394A3A5A3B6A3F989F230E3
:100EA00029F4CC0CDD1CEE1CFF1C69CFA3E0B0E0E4
:100EB000A70196010E943F1D9695879577956795A6
:100EC00021E0C222DD24EE24FF24C60ED71EE81E38
:100ED000F91E55CF83E090E0CDCD263FFFE03F07E0
:100EE0004105510508F4FECE82E0898BFDCEAF921C
:100EF000BF92CF92DF92EF92FF920F931F93CF9307
:100F0000DF93423051056105710508F4A9C0FC0169
:100F100003891489258936894017510762077307A9
:100F200008F09EC06A017B01EC018081823009F4E7
:100F300057C0833009F471C0813009F091C08A0133
:100F400016950795040F151FC801892F99278695B7
:100F5000478D50A161A172A1480F591F611D711DDC
:100F6000CF010E947304892B71F06FEF7FEFCB01EB
:100F7000DF91CF911F910F91FF90EF90DF90CF9075
:100F8000BF90AF9008955801FFEFAF1ABF0A1170DC
:100F9000FE01E00FF11F17A5C501892F992786953E
:100FA0004F8D58A169A17AA1480F591F611D711D6C
:100FB000CE010E947304892BC1F681E0B822CA0DCC
:100FC000DB1D6FA5762F612FC0FE08C0E4E076958B
:100FD0006795EA95E1F790E080E0CACF7F70FBCF9C
:100FE00077276F2D5E2D4D2D878D90A1A1A1B2A1E8
:100FF000480F591F6A1F7B1FCF010E947304892B62
:1010000009F0B3CFCC0CDD1CE894C0F8E1E0DE229F
:10101000CC0DDD1D6FA578A9DECF878D90A1A1A194
:10102000B2A137E076956795579547953A95D1F7F0
:10103000480F591F6A1F7B1FCF010E947304892B21
:1010400009F093CFAF96C601880F991F880F991F9B
:101050008C7F91708C0F9D1F0E945E039F7088CFC4
:1010600061E070E080E090E083CF8F929F92AF923A
:10107000BF92CF92DF92EF92FF920F931F93CF9385
:10108000DF938C01FC01C081D18116861786108AFE
:10109000118AC680D780E084F184C114D104E104B0
:1010A000F104D1F58881833040F08BA19CA1ADA1E2
:1010B000BEA10097A105B10589F58F819885892B7F
:1010C00079F482E090E0DF91CF911F910F91FF9032
:1010D000EF90DF90CF90BF90AF909F908F9008954A
:1010E0008BA19CA1ADA1BEA1F801868B978BA08F8F
:1010F000B18FF801C28AD38AE48AF58A86899789F2
:10110000A08DB18D892B8A2B8B2BD9F2AF96D38FE3
:10111000C28F90E080E0D7CFD701C60189849A843E
:10112000B12CA12C29E0880C991CAA1CBB1C2A9567
:10113000D1F76C017D01B701A60181149104A104CE
:10114000B104F1F4F801808191810E9477076B016D
:101150007C01FFEFCF16DF06EF06FF06D1F082E03D
:10116000C816D104E104F10408F4ABCF8B899C8943
:10117000AD89BE89C816D906EA06FB06E0F2A1CF02
:10118000CE010E948003F801668B778B808F918F50
:10119000B0CF81E090E097CF2F923F924F925F9235
:1011A0006F927F928F929F92AF92BF92CF92DF9277
:1011B000EF92FF920F931F93CF93DF9300D000D055
:1011C00000D0CDB7DEB79E838D836A017B012801F5
:1011D0003901DC018C91823009F497C0833009F425
:1011E000B6C0813009F0F4C08A0116950795040F46
:1011F000151FC801892F992786955F964D915D919E
:101200006D917C919297480F591F611D711DCD0101
:101210000E9473045C01892B09F056C02D803E802A
:10122000BFE22B0E311C4801EFEF8E1A9E0A11709F
:10123000F101E00FF11F842DA701960121703327E2
:101240004427552729833A834B835C83C0FE07C01C
:1012500080818F7040E1449E90011124822B808315
:1012600081E0AD81BE8113968C9313975F964D916B
:101270005D916D917C919297C401892F99278695F4
:10128000480F591F611D711DCD010E9473045C013F
:10129000892BD1F4B1E09B22F101E80DF91D2981E0
:1012A0003A814B815C81232B242B252B39F164E07F
:1012B00076946794579447946A95D1F7408281E079
:1012C000AD81BE8113968C93C50126960FB6F89416
:1012D000DEBF0FBECDBFDF91CF911F910F91FF9069
:1012E000EF90DF90CF90BF90AF909F908F907F90C6
:1012F0006F905F904F903F902F9008958081807FF6
:10130000352D3F70432E482AD9CF77276F2D5E2D7C
:101310004D2DED81FE81878D90A1A1A1B2A1480F35
:10132000591F6A1F7B1FCF010E9473045C01892B28
:1013300059F6ED81FE81BF96CC0CDD1CE894C0F817
:1013400021E0D222EC0DFD1D00835182B8CFED814A
:10135000FE81878D90A1A1A1B2A137E07695679516
:10136000579547953A95D1F7480F591F6A1F7B1F2C
:10137000CF010E9473045C01892B09F0A5CFFFE027
:101380007F228D819E818F96CC0CDD1CCC0CDD1CC8
:101390002CEFC22221E0D222C80ED91EC6010E9423
:1013A0005E03662777278827907F462A572A682A70
:1013B000792AD6014C9211965C92119712966C92F2
:1013C000129713967C9281E0ED81FE8183837CCF1E
:1013D00082E0A82EB12C78CF4F925F926F927F92CD
:1013E0008F929F92AF92BF92CF92DF92EF92FF9235
:1013F0000F931F93CF93DF938C012A013B01FC01D4
:10140000C081D181411451046104710409F58B84B8
:101410009C84AD84BE8481149104A104B10409F4B8
:101420004DC08B899C89AD89BE8988169906AA060C
:10143000BB0608F043C08F859889A989BA89892B92
:101440008A2B8B2B09F03FC0C12CD12C760116C002
:10145000CE010E9477076B017C01F2E0CF16D10428
:10146000E104F10408F40CC12FEFC216D206E20623
:10147000F206B9F4CC24CA94DC2C7601C701B6017B
:10148000DF91CF911F910F91FF90EF90DF90CF9060
:10149000BF90AF909F908F907F906F905F904F9094
:1014A00008958B899C89AD89BE8953014201C81674
:1014B000D906EA06FB0608F0BECFE0CF812C912CBE
:1014C00054018394B8CF84149504A604B70409F09A
:1014D00041C0750164018FEFC81AD80AE80AF80AFA
:1014E0008B899C89AD89BE89C816D906EA06FB0698
:1014F00028F022E0C22ED12CE12CF12CB701A6015C
:10150000F801808191810E94770761307105810522
:10151000910509F4B5C06F3FFFEF7F078F079F0765
:1015200009F4A8CF672B682B692B09F44DC08B8574
:101530009C85AD85BE8582309105A105B10550F031
:101540004B895C896D897E8984179507A607B70743
:1015500008F478C0750164012FEFC21AD20AE20ABA
:10156000F20A8B899C89AD89BE89C816D906EA061C
:10157000FB0660F082E088169104A104B10408F42F
:1015800063CF92E0C92ED12CE12CF12CB701A6013A
:10159000F801808191810E947707611571058105AD
:1015A0009105B9F0613071058105910509F468C0B4
:1015B0006F3F7F4F8F4F9F4F09F45CCFC814D90402
:1015C000EA04FB0449F640CFC114D104E104F1045C
:1015D00009F222E0C216D104E104F10408F450C07B
:1015E0008B899C89AD89BE89C816D906EA06FB0697
:1015F00008F046C00FEF1FEF9801B701A601CE011A
:101600000E94CC080097C9F541145104610471048B
:10161000E1F4CB86DC86ED86FE868F859889A989E4
:10162000BA894B895C896D897E894250510961096B
:101630007109481759076A077B0738F58C81816063
:101640008C831CCF4C015D0185CF82E0481651048C
:1016500061047104A8F08B899C89AD89BE89481604
:1016600059066A067B0660F497018601B301A20160
:10167000CE010E94CC08009761F2019709F4FACEDE
:10168000C12CD12C7601C394F9CE0197A109B109DF
:101690008F87988BA98BBA8BD1CF2F923F924F9285
:1016A0005F926F927F928F929F92AF92BF92CF92F2
:1016B000DF92EF92FF920F931F93CF93DF9300D0AF
:1016C00000D000D0CDB7DEB73B01FC014689578979
:1016D000608D718D411551056105710509F44CC08E
:1016E000C684D784E088F188F0E2CF0ED11CE11CDB
:1016F000F11CC114D10420E2E206F104E8F51C015A
:10170000FC010190F081E02DFE83ED83D701C6013D
:101710009170AA27BB27892B8A2B8B2B09F0FEC03F
:101720004F5F5F4F6F4F7F4FF101468B578B608F3D
:10173000718F4289538964897589ED81FE814115D4
:10174000510561057105D9F487819085B0E0A0E06D
:10175000B701A60135E076956795579547953A9577
:10176000D1F7481759076A077B0708F4D7C0F1017A
:10177000168A178A108E118E84E090E024C081852D
:1017800092850197B0E0A0E04601570129E0B694A8
:10179000A794979487942A95D1F788219921AA2113
:1017A000BB21892B8A2B8B2B09F0B8C0CF010E945B
:1017B00077074B015C01F2E08F169104A104B1049C
:1017C000D8F482E090E026960FB6F894DEBF0FBE04
:1017D000CDBFDF91CF911F910F91FF90EF90DF90E0
:1017E000CF90BF90AF909F908F907F906F905F90C1
:1017F0004F903F902F9008952FEF82169206A206E9
:10180000B20619F481E090E0DECFED81FE8183899C
:101810009489A589B68988169906AA06BB0608F494
:101820006DC0672809F4A3CFF10142895389648907
:101830007589C1010E94EC094B015C0187E090E0D1
:1018400081149104A104B10409F4BDCFF1E08F1615
:101850009104A104B10409F4B4CF2FEF82169206CB
:10186000A206B20679F28D819E810E946B04892BBB
:1018700049F6B501A4018D819E810E9480032B0150
:101880003C01ED81FE8143A654A665A676A6BF96CF
:10189000FC83EB838D819E81815D9D4F11928E171C
:1018A0009F07E1F71A821982ED81FE818185928579
:1018B00029813A8128173907B8F401E010E0A30123
:1018C000920189819A81280F391F411D511D6B8119
:1018D0007C8181810E944203892B31F4E981FA8164
:1018E0003196FA83E983E0CFED81FE81818592858F
:1018F00029813A812817390709F084CFF101828ABA
:10190000938AA48AB58AB501A4018D819E810E9423
:101910008003F101668B778B808F918FF101C686F2
:10192000D786E08AF18A8D819E818F9696013170EB
:10193000280F391F338F228F90E080E044CF2F9201
:101940003F924F925F926F927F928F929F92AF924F
:10195000BF92CF92DF92EF92FF920F931F93CF939C
:10196000DF93FC01C080D180FB018F0121912F32D8
:10197000E1F32C35D1F3FC01168217821086118613
:10198000F80120812F3109F008F472C0EC017C01CC
:10199000FCE1EF0EF11C2C0187E2480E511C30E2F5
:1019A000232E45E0342E36019FE2690E711CF701AB
:1019B00021924E165F06E1F790E080E070E060E073
:1019C00048E050E09B012F5F3F4FF801E60FF71F03
:1019D000B081B13280F0BF3219F0BC3509F05FC080
:1019E000F801E20FF31F9F01201B310B41914F3291
:1019F000D1F34C35C1F3020F131F892B09F46BC0CF
:101A00008C8D853E09F43C8E80E0B13208F484E090
:101A10008FA3A880B980CE010E9435084C01892B84
:101A200009F081C04E895F89688D798DC5010E945A
:101A300073044C01892B09F076C0EA8DFB8D8081FF
:101A4000882309F46DC083858F738C83838583FD20
:101A500009C04BE050E0B701CF010E947003892B11
:101A600009F461C070E060E0CE010E944D0BD6CF5A
:101A700020E8FC0127A3DF91CF911F910F91FF90E8
:101A8000EF90DF90CF90BF90AF909F908F907F901E
:101A90006F905F904F903F902F900C943508BE321E
:101AA00009F475C084179507B0F4B13830F0B03A36
:101AB000B0F0E0E2EB0FED3190F0AB2EB12CEEE0A8
:101AC000F5E06191662309F46BC0062E000C770BDC
:101AD000A616B706B1F786E0882E912C31C06E5F4E
:101AE0007F4F200F311FF901A081A034A0F3AF3741
:101AF00020F0A7FFF0CFAD3F70F79A0121503109D8
:101B00008217930740F7F701E80FF91FB083FC0134
:101B10003196EE0DFF1D0296A0839B01B90152CFB5
:101B200024E0822E912C8FA181149104E9F0F4E03D
:101B30008F16910429F482FD03C095E0892E912C23
:101B4000C401DF91CF911F910F91FF90EF90DF9033
:101B5000CF90BF90AF909F908F907F906F905F904D
:101B60004F903F902F90089582FDEACF8C8184FFA3
:101B7000E4CF6E857F857170660D771DF6018081DB
:101B80000E9402046E837F838887998710CF4B3031
:101B9000510509F4A0CF88E090E04BE050E0BECFC3
:101BA0006FE96B0F6A3108F4B052F701E80FF91FC3
:101BB000B0830196B3CF1F93CF93DF9300D000D0B3
:101BC00000D0CDB7DEB79C838B837E836D83142FCB
:101BD0007A836983CE0101960E94A80397FD2DC0E8
:101BE000880F991FFC01E751F84F0190F081E02D1B
:101BF000309709F01082EB81FC81309709F0108258
:101C00008751984F2B813C81FC013183208390E0E8
:101C100080E0112341F040E0BE016D5F7F4FCE01B7
:101C200005960E94F20426960FB6F894DEBF0FBE0A
:101C3000CDBFDF91CF911F9108958BE090E0F3CF5E
:101C40002F923F924F925F926F927F928F929F92CC
:101C5000AF92BF92CF92DF92EF92FF920F931F93BA
:101C6000CF93DF93CDB7DEB7E3970FB6F894DEBF1F
:101C70000FBECDBF7CA76BA709E010E0009709F469
:101C8000ACC1F42E1C01842F8F738DA7482FBE0189
:101C9000675D7F4FCE018B960E94F2048C01892BE9
:101CA00009F096C089A59AA59A8389836BA57CA51E
:101CB000CE0101960E949F0C8C01892B29F488A5E6
:101CC00087FF02C006E010E08F2D8C7109F42BC154
:101CD0000115110509F48AC00430110509F078C016
:101CE000E980FA80CE0101960E9435088C01892B8B
:101CF00009F003C24F89588D698D7A8DC7010E9402
:101D000073048C01892B09F0F8C1EB8DFC8D808167
:101D1000853E09F061C04F89588D698D7A8DC70164
:101D20000E9473048C01892B09F052C0EB8DFC8D4D
:101D3000CF01809611928E179F07E1F74BE050E09C
:101D4000BE01635E7F4F8B8D9C8D0E94F70381E007
:101D5000D70113968C93BDA5B860BDA7EDA5E3FF91
:101D6000EDC08B8C9C8CA9A4BAA4B401D5018C9134
:101D70000E9402046B017C01F4011686178681E241
:101D8000808B8AE4818BEB8DFC8D80E28387EB8DE9
:101D9000FC8D128E138ED5018C91833011F4148A30
:101DA000158AEB8DFC8D148E158E168E178E81E0A4
:101DB000F5018383C114D104E104F10409F4BEC028
:101DC000F2E0CF16D104E104F104C8F402E010E01F
:101DD000D1011D921C9201C1882309F49CCF61E0BE
:101DE00070E0CE0101960E944D0B80CF8D818171F4
:101DF00009F087C1F2FEB2CF08E010E0E9CF898197
:101E00009A819FA78EA7FC0183899489A589B689A9
:101E1000C816D906EA06FB06C8F6D5019B968D9131
:101E20009D910D90BC91A02D88AB99ABAAABBBAB9B
:101E300046015701B501A40189819A810E94770763
:101E40002B013C01411451046104710409F454C094
:101E5000B1E04B1651046104710409F4B7CFEFEF00
:101E60004E165E066E067E0609F441C1F2E08F163C
:101E70009104A104B10408F4A9CFEEA5FFA58389BC
:101E80009489A589B68988169906AA06BB0608F022
:101E90009DCF00E010E09801B501A401CF010E94A0
:101EA000CC088C01892B09F093CFEEA5FFA587857F
:101EB0009089A189B28943895489658976898A0183
:101EC0009B01025011092109310980179107A207CE
:101ED000B30750F40196A11DB11D8787908BA18B8C
:101EE000B28B8481816084835301420184169506FC
:101EF000A606B70608F49ECF48A959A96AA97BA9E6
:101F000089A59AA50E9473048C01E9A5FAA5B1E000
:101F1000CB1AD108E108F108C386D486E586F68697
:101F2000892B61F055CF0115110509F051CF8D8135
:101F300084FDE0C0F1FE02C080FDE3C0FDA5F3FF1B
:101F400002C0F064FDA709A51AA5F80183A594A510
:101F5000A5A5B6A5F101848F958FA68FB78FEB8CC1
:101F6000FC8CF1A2E0A2B701D8018C910E9402047E
:101F70004B015C01F10186829782A086B186C70180
:101F80004C960E945E036B017C01D1011A96CD92A2
:101F9000DD92ED92FC921D9711961C930E93F80121
:101FA0008581968113969C938E931297FDA51E961C
:101FB000FC931E971F961C921F9758961D921D9278
:101FC0001D921C925B97F101108A118A128A138A62
:101FD000FDA5F5FD1CC010E000E0C801E3960FB6BA
:101FE000F894DEBF0FBECDBFDF91CF911F910F914F
:101FF000FF90EF90DF90CF90BF90AF909F908F9029
:102000007F906F905F904F903F902F900895C114F4
:10201000D104E104F104F9F25096CD92DD92ED92F3
:10202000FC925397F80141845284712C612C39E061
:10203000440C551C661C771C3A95D1F74C145D0472
:102040006E047F0408F04DC0B501A401D1018D914B
:102050009C910E9477074B015C01C418D508E608E3
:10206000F708B2E08B169104A104B104E8F1EFEF98
:102070008E169E06AE06BE0609F701E010E0D101FD
:1020800054968D929D92AD92BC9257970115110571
:1020900009F09ECED701C6019170AA27BB27892BD4
:1020A0008A2B8B2B09F497CFB501A40189A59AA59A
:1020B0000E948003611571058105910509F486CEA2
:1020C00029E0F694E794D794C7942A95D1F7C60EE1
:1020D000D71EE81EF91EF101C08ED18EE28EF38E5E
:1020E0007CCF10E000E0CBCF02E010E0C8CF01E0F1
:1020F00010E06ECE04E010E06BCE0430110509F064
:1021000067CE07E010E064CE2F923F924F925F922D
:102110006F927F928F929F92AF92BF92CF92DF92F7
:10212000EF92FF920F931F93CF93DF9300D000D0D5
:10213000CDB7DEB77C014B015A013C832B83F901FB
:1021400011821082BE016F5F7F4F0E94CB03009708
:1021500009F067C0F701878590E0009709F061C03A
:10216000868581FF83C180899189A289B389AC0169
:10217000BD014A0D5B1D611D711D481759076A0796
:102180007B0718F45C01A094B094A114B10409F485
:1021900066C1F70180899189A289B389AC01BD012B
:1021A000517066277727452B462B472B09F02BC10B
:1021B000E981FA810185128501501109AC01BD0147
:1021C000E9E07695679557954795EA95D1F7042309
:1021D00015230115110509F05DC0F701892B8A2B24
:1021E0008B2BB1F5668177818085918561157105AD
:1021F0008105910561F440E050E0BA01C7010E94F9
:10220000EC09611571058105910509F428C161305A
:1022100071058105910509F582E0F701878782E064
:1022200090E00F900F900F900F90DF91CF911F9142
:102230000F91FF90EF90DF90CF90BF90AF909F9065
:102240008F907F906F905F904F903F902F90089568
:102250004489558966897789D1CF6F3FFFEF7F0722
:102260008F079F0731F481E0F701878781E090E0D5
:10227000D8CFF701648B758B868B978B4680578000
:102280006084718445284628472821F46683778333
:102290008087918789819A81FC0143A454A465A415
:1022A00076A4F701408D518D628D738D44165506CD
:1022B0006606770609F482C069807A80F70144894E
:1022C000558966897789C3010E948003611571056C
:1022D0008105910509F4A0CF1B012C01200E311EB0
:1022E000411C511C6501CD2CDD24C694C114D104C0
:1022F00009F46AC0F3018185928598012C0D3D1D7A
:102300008217930718F46C01C01AD10A8601A20142
:102310009101B401F30181810E944203892B09F0EC
:10232000A2CF89819A81FC0143A554A565A576A514
:10233000421953096409750930E020E0401751073C
:102340006207730770F4542F4427550FB401640FCC
:10235000751F40E052E08F960E94F703E981FA81F1
:102360001382DC2CCC24DD0CAC18BD08EB81FC8185
:10237000808191818C0D9D1D918380838C0C9D1C8F
:10238000F70180899189A289B3898C0D9D1DA11DBA
:10239000B11D808B918BA28BB38B42855385648555
:1023A0007585481759076A077B0710F4AC01BD0112
:1023B000F7014287538764877587E7CE0E946B04D5
:1023C000892B09F479CF4FCFF70140895189628970
:1023D000738982859385A485B585481759076A074F
:1023E0007B0760F0C3010E946B04892B09F03BCF8F
:1023F000E981FA8123A634A645A656A6F701208EC8
:10240000318E428E538EF70180899189917020E040
:1024100032E0281B390B65012A153B0508F46901D8
:10242000F701408D518D628D738D89819A810E9453
:102430007304892B09F017CF29813A81215D3F4F21
:10244000F701808991899170A601B401820F931FD1
:102450000E94F703E981FA8121E0238385CFF70108
:1024600086858064868790E080E0DBCE87E090E020
:10247000D8CECF92DF92EF92FF920F931F93CF931C
:10248000DF9300D0CDB7DEB76C01BE016F5F7F4F29
:102490000E94CB03009709F0CFC0D6011E962C9165
:1024A0001E9726FFC9C05C964D915D916D917C9100
:1024B0005F9789819A810E947304009709F0BCC0DC
:1024C000D6019096ED91FC919197838580628387E8
:1024D00016964D915D916D917C9119972D913C913E
:1024E000428F538FD9012C91233029F4CB01AA2795
:1024F000BB27848B958BD6011A963C911A971B9615
:102500002C911B971C969C911C971D968C91348F37
:10251000258F968F878F168A178A81E2808F8AE4AB
:10252000818F128A138AE980FA8081E0F701838320
:10253000C7010E941704009709F077C0D7018C915A
:10254000833009F064C014968C91813009F05FC02B
:10255000B701615D7F4FFB01C701815D9D4F119206
:102560008E179F07E1F785E5F701E35DFD4F808357
:102570008AEA3196808382E5F70187A780AB81E6FE
:1025800081AB91E492AB22E7ED5EFD4F2083319663
:1025900020833196908331968083D7011F963C919A
:1025A0001F9750962C91509751969C915197529607
:1025B0008C91529731963083319620833196908357
:1025C00031968083F7013385248595858685E55E80
:1025D000FD4F3083319620833196908331968083EE
:1025E0005B962D913D914D915C915E972F5F3F4F92
:1025F0004F4F5F4FF70123A734A745A756A701E028
:1026000010E081810E944203D70114961C9250E091
:1026100040E060E0F70181810E94540331E020E056
:10262000892B09F430E0832F922FD6011E962C912E
:102630001E972F7B1E962C930F900F90DF91CF91BA
:102640001F910F91FF90EF90DF90CF9008950F931F
:102650001F93CF93DF9300D0CDB7DEB78C010E94DC
:102660003912009759F4BE016F5F7F4FC8010E9475
:10267000CB03009719F4F801118210820F900F908C
:10268000DF91CF911F910F9108951CBC84B1877D7C
:1026900084B908958EBD0DB407FEFDCF8EB50895A3
:1026A0006AE070E00E94F41C6093EC078FEF0E94D8
:1026B0004A138F3F39F08091EC078111F7CF90E0FA
:1026C00080E0089581E090E008958EEE97E00E940A
:1026D00005198FEF0C944A13CF93DF938EEE97E09A
:1026E0000E94F3188FEF0E944A1384EF91E00E943A
:1026F0005013EC01892B31F40E946513CE01DF9158
:10270000CF910895C1E0D0E0F9CFFF920F931F93CE
:10271000CF93DF93C82FD42F152F062FF72E87FFC7
:1027200009C040E050E0BA0187E30E94851382307F
:1027300048F5CF77CC3061F58C2F80640E944A1326
:102740008F2D0E944A13802F0E944A13812F0E94CE
:102750004A138D2F0E944A1385E9CC2321F087E884
:10276000C83009F081E00E944A13CC3019F48FEF91
:102770000E944A13CAE08FEF0E944A1387FF02C0EB
:10278000C150C9F7DF91CF911F910F91FF9008952C
:102790000E9465130E946C13892B71F68FEFF2CFA4
:1027A0000F931F93CF93DF938C01EB0184E1809310
:1027B000ED078FEF0E944A138F3F39F48091ED07A8
:1027C0008111F7CF90E080E01CC08E3FD9F7F8016F
:1027D0008FEF8EBD0DB407FEFDCF9EB590838EBDED
:1027E0000DB407FEFDCF9EB59183229732962097B8
:1027F00081F78FEF0E944A138FEF0E944A1381E006
:1028000090E0DF91CF911F910F9108959C013E5F61
:10281000FC0140814EBD0DB407FEFDCFFC0141819E
:102820004EBD0DB407FEFDCF02968217930781F7C8
:102830008FEF0E944A138FEF0E944A138FEF0E947E
:102840004A13282F2F7181E090E0253011F090E09D
:1028500080E00895AEEEB7E011969C938E939C01B4
:1028600094E0359527959A95E1F7E22FEE0FE20F68
:1028700091E09E0F12969C931297EE5F1396EC9345
:102880001397877014968C931497F0E090A121E031
:1028900030E0A90101C0440F8A95EAF7892F842B03
:1028A00080A31296EC911297F0E080A114969C916F
:1028B00001C0220F9A95EAF7282B20A30895CF9202
:1028C000DF92EF92FF920F931F93CF93DF9300D08D
:1028D00000D0CDB7DEB70E9445138AE08093ED07A4
:1028E0008091ED078111FCCF8091000181FF0FC025
:1028F000809100010F900F900F900F90DF91CF917A
:102900001F910F91FF90EF90DF90CF90089584B1C9
:10291000886284B983E58CBD8CB58F7A8CBD8CB50B
:1029200083608CBD8CB580658CBD1AE08FEF0E94F2
:102930004A131150D9F740E050E0BA0180E00E94FC
:102940008513082F8130B9F010E01093EB070E9437
:102950006513112309F482C0809100018E7F80935A
:1029600000018CB58F7A8CBD8CB58C7F8CBD8CB5FD
:1029700080658CBDBDCF84E68093ED074AEA51E0C7
:1029800060E070E088E00E948513813009F040C06B
:102990008E010F5F1F4F6E0185E0C80ED11C7801BC
:1029A0008FEF0E944A13F70181937F01EC15FD051B
:1029B000B9F78B81813041F68C818A3A29F6809172
:1029C000ED07882349F040E050E060E070E489EAD8
:1029D0000E9485138111F3CF8091ED07882309F4BC
:1029E000B3CF40E050E0BA018AE30E948513811121
:1029F000ABCF8FEF0E944A13F80181938F01EE163F
:102A0000FF06B9F7898114E086FF9FCF1CE09DCFB8
:102A100040E050E0BA0189EA0E94851311E082305B
:102A200010F412E009EA8091ED07882341F040E0BC
:102A300050E0BA01802F0E9485138111F4CF80915C
:102A4000ED07882309F480CF40E052E060E070E0B9
:102A500080E10E948513811177CF77CF0E944513C3
:102A600047CF809100010895EF92FF921F93CF937B
:102A7000DF937C01E901209751F18091000180FDF5
:102A800029C08091EB0783FD07C089E0440F551FE3
:102A9000661F771F8A95D1F711E1C230D10508F082
:102AA00012E1812F0E948513811122C060E072E043
:102AB000C7010E94D013892B99F08EEFF81A219745
:102AC000A9F7123179F00E94651380E001C084E01B
:102AD00090E015C083E0FCCF0E94651381E0F8CF41
:102AE0001231D1F740E050E0BA018CE00E9485132A
:102AF0000E94651381E090E0CD2B09F480E0DF9126
:102B0000CF911F91FF90EF900895CF92DF92EF92B7
:102B1000FF920F931F93CF93DF938C016A017B0188
:102B2000E901209709F46EC08091000180FD6CC01E
:102B30008091000182FD6AC08091EB0783FD07C090
:102B400099E0CC0CDD1CEE1CFF1C9A95D1F7C1302E
:102B5000D105D9F4B701A60188E10E94851381113E
:102B60004DC084EF91E00E945013892BB9F18EEF94
:102B70000E944A13C8010E940614892B09F43EC022
:102B80000E94651380E090E030C0867031F0AE01A5
:102B900070E060E087E90E948513B701A60189E132
:102BA0000E94851381111AC084EF91E00E94501396
:102BB000892B59F08CEF0E944A13C8010E94061419
:102BC000892B19F01E5F219779F784EF91E00E941D
:102BD0005013892B99F08DEF0E944A130E946513C0
:102BE00081E090E0CD2B09F480E0DF91CF911F913F
:102BF0000F91FF90EF90DF90CF9008950E946513A2
:102C000081E0C1CF84E0BFCF83E0BDCF82E0BBCF06
:102C1000CF92DF92EF92FF920F931F93CF93DF93A8
:102C2000CDB7DEB760970FB6F894DEBF0FBECDBF4D
:102C30009091000190FDC1C28B01833309F4E5C17D
:102C4000E0F4833009F400C140F4882309F481C022
:102C5000813009F486C004E00EC0873009F4F6C163
:102C6000823309F4CCC18430B1F78091EB078670D0
:102C700009F068C101E010E0B2C1863309F4D8C19F
:102C8000D8F4843309F4CFC1853329F740E050E00C
:102C9000BA018AE30E94851381116BC07801F4E0C8
:102CA000EF0EF11C8FEF0E944A13F80181938F0100
:102CB000EE15FF05B9F797C0883309F42CC208F464
:102CC000CDC1893341F6FB01438154816581768111
:102CD00089E0440F551F661F771F8A95D1F77468E6
:102CE000808190E0B0E0A0E02CE1880F991FAA1F3E
:102CF000BB1F2A95D1F7482B592B6A2B7B2B82813E
:102D000090E0B0E0A0E0482B592B6A2B7B2B81E3AD
:102D10000E94851381112DC08FEF0E944A138EEF00
:102D20000E944A13F80181810E944A1301E012E0D7
:102D30008FEF0E944A1301501109D1F78FEF0E94C3
:102D40004A138F7101E010E0853049F00E9465134D
:102D500046C10E946C1301E010E0892BB9F300E03A
:102D6000F5CF40E050E0BA0189E00E948513882346
:102D700011F001E039C060E170E0CE0101960E94DF
:102D8000D013892BB1F3698170E036E075956795B2
:102D90003A95E1F749852A8588856130710531F5D5
:102DA00050E0542F4427240F352F311D90E0B0E020
:102DB000A0E0DC019927882788279927AF73BB27D4
:102DC0000196A11DB11D820F931FA11DB11D2AE007
:102DD000880F991FAA1FBB1F2A95D1F7F80180837E
:102DE0009183A283B38300E010E0B0CFF4E08F9F23
:102DF000C0011124019650E066E0559547956A950B
:102E0000E1F7840F951F4F8150E0542F4427550F51
:102E1000550F44275C70840F951FB0E0A0E03E8101
:102E20003F704B85441F4427441F340F3E5F220FE1
:102E30002670230F2950330B04C0880F991FAA1F37
:102E4000BB1F2A95D2F7CACF8091EB0740E050E034
:102E5000BA0182FF21C08DE80E948513811189CFBC
:102E60008FEF0E944A1360E170E0CE0101960E944C
:102E7000D013892B09F47DCF50E3F52E8FEF0E94FC
:102E80004A13FA94F110FACF2B8522952F7080E126
:102E900090E0A0E0B0E0D0CF89E00E9485138111DE
:102EA00068CF60E170E0CE0101960E94D013892BBB
:102EB00009F45FCF8B8590E02C853091EB0731FFD3
:102EC0001DC0880F991F8E779927221F2227221F46
:102ED00030E02F5F3F4F820F931F2E8530E046E09A
:102EE000359527954A95E1F72150310902C0880FA1
:102EF000991F2A95E2F7B0E0A0E070CFF8E02F9F8D
:102F0000A001112448715527229526952770240F7A
:102F1000352F311D2F5F3F4F959587959595879557
:102F20008F7199270196289FA001299F500D389FE6
:102F3000500D112470E060E0F801408351836283FA
:102F4000738351CFBE016F5F7F4F83E30E940816EA
:102F5000892B09F08FCE898190E0F6E095958795D1
:102F6000FA95E1F7892B19F48B8586FF83CEF8015A
:102F70004081518162817381C480D580E680F78071
:102F80008091EB0783FD0EC039E0440F551F661F8B
:102F9000771F3A95D1F7E9E0CC0CDD1CEE1CFF1C45
:102FA000EA95D1F780E20E948513811163CEB701C3
:102FB000A60181E20E94851381115CCE40E050E0C1
:102FC000BA0186E20E948513811154CE80E395E711
:102FD0000E94501301E010E0892B09F000E0C801C5
:102FE00060960FB6F894DEBF0FBECDBFDF91CF91D4
:102FF0001F910F91FF90EF90DF90CF9008958091F7
:10300000EB07FB01808300E036CE40E050E0BA01E0
:1030100089E00E94851360E170E08111AACEC801A9
:103020000E94D01398CE40E050E0BA018AE0F1CF80
:1030300040E050E0BA018DE80E948513811199CEDD
:103040008FEF0E944A1360E470E0E9CF0E944513BD
:1030500080910001816080930001D5CFFB01438105
:1030600054816581768139E0440F551F661F771FB3
:103070003A95D1F77068808190E0B0E0A0E02CE153
:10308000880F991FAA1FBB1F2A95D1F7482B592BD0
:103090006A2B7B2B8181928101979170B0E0A0E037
:1030A000482B592B6A2B7B2B80E30E9485138111BF
:1030B00060CE84E68093ED078FEF0E944A138F3F26
:1030C00029F48091ED078111F7CF53CE8E3F09F09F
:1030D00050CEF801E780F084C180D280CE0CDF1C96
:1030E000EC14FD0439F08FEF0E944A13F70181932D
:1030F0007F01F6CFF8018181928102E012E0081B86
:10310000190B0115110509F46ECE8FEF0E944A13B9
:1031100001501109F6CFFB0143815481658176810D
:1031200039E0440F551F661F771F3A95D1F7706835
:10313000808190E0B0E0A0E02CE1880F991FAA1FE9
:10314000BB1F2A95D1F7482B592B6A2B7B2B8181EA
:10315000928101979170B0E0A0E0482B592B6A2B27
:103160007B2B81E30E948513811103CE8FEF0E9498
:103170004A138EEF0E944A13F801E780F084C18061
:10318000D280CE0CDF1CEC14FD0431F0F7018191EC
:103190007F010E944A13F7CFF8018181928102E0FA
:1031A00012E0081B190B8FEF0115110509F4C7CDAB
:1031B0000E944A1301501109F6CF03E05CCD8091C3
:1031C000ED07882319F081508093ED078091EC077B
:1031D000882319F081508093EC0780910001897F4A
:1031E000809300010895DC011396EC911397F0E0B1
:1031F00020A114963C9181E090E001C0880F3A959F
:10320000EAF78095822380A30895DC011396EC9160
:103210001397F0E090A114968C9121E030E001C06A
:10322000220F8A95EAF7892F822B80A308951F9297
:103230000F920FB60F9211242F933F934F935F93EA
:103240006F937F938F939F93AF93BF93EF93FF936E
:103250000E941E03FF91EF91BF91AF919F918F91BB
:103260007F916F915F914F913F912F910F900FBE82
:103270000F901F901895E3EFF7E0118280818E7F09
:103280008083138212820895FC0184B595B58C7FEA
:10329000262F2370822B262F30E0359527953595E4
:1032A000279573E0220F331F7A95E1F7977F922BD2
:1032B000987F942B84BD95BD62834183808181601A
:1032C00080831482138281E00895089508951F92E7
:1032D0000F920FB60F9211242F933F934F935F934A
:1032E0006F937F938F939F93AF93BF93EF93FF93CE
:1032F0000E942203FF91EF91BF91AF919F918F9117
:103300007F916F915F914F913F912F910F900FBEE1
:103310000F901F9018951F920F920FB60F921124C5
:103320002F933F934F935F936F937F938F939F93CD
:10333000AF93BF93EF93FF930E946519FF91EF91B5
:10334000BF91AF919F918F917F916F915F914F91BD
:103350003F912F910F900FBE0F901F9018951F92C5
:103360000F920FB60F9211242F933F934F935F93B9
:103370006F937F938F939F93AF93BF93EF93FF933D
:103380000E946619FF91EF91BF91AF919F918F912C
:103390007F916F915F914F913F912F910F900FBE51
:1033A0000F901F901895E7EFF7E01182128280814D
:1033B0008E7F80831482138208959091C00095FFC0
:1033C000FCCF8093C60090E080E008952F923F925A
:1033D0004F925F926F927F928F929F92AF92BF9225
:1033E000CF92DF92EF92FF920F931F93CF93DF93D1
:1033F00000D000D0CDB7DEB77C012091C000309165
:10340000C1008091C2004091C4005091C500198252
:103410001A821B821C82D7011B969C91992361F111
:10342000913061F18F7CF7019285913049F19230B2
:1034300049F1D32EE894D2F8897FD70114969C9154
:10344000923061F108F5913039F1217EC22E182FAA
:103450001E73D7011596EC9101E0E83010F5F0E00D
:10346000EC5CF54E0C942A1D501AA11AA51AA81A44
:10347000AA1AAE1AB01AB41A877FD4CF8860D2CFF6
:103480008063D7CF8062D5CF933021F09730E9F6B3
:103490006894D2F88660D9CF8260D7CF8460D5CFC8
:1034A00000E1BE016F5F7F4F86E198E00E94D11C72
:1034B000F7012681378140855185A02FB0E00E9419
:1034C0003F1D9B01AC0169817A818B819C810E94A7
:1034D000081D19012A01F1E02F1A3108410851088D
:1034E000C092C000D092C1001093C2009101A2010D
:1034F00060E070E080E090E008E00E944C1D2F70DA
:103500002093C5002092C400D70113961C921E92EE
:10351000129781E00F900F900F900F90DF91CF9155
:103520001F910F91FF90EF90DF90CF90BF90AF90E1
:103530009F908F907F906F905F904F903F902F90D3
:1035400008956894C1F808E0ACCF106402E0A9CFF8
:103550001164FCCF8C73182F106CF8CF126CF6CF5F
:103560008C73182F116CF2CF136CF0CFFC0180819B
:10357000877F8083683030F08CE090E09383828393
:1035800080E0089565831382128281E00895FC0132
:103590008081877F808341158BE458076105710521
:1035A000D1F0C8F5403689E058076105710599F0FA
:1035B000D0F4403B84E058076105710561F0483064
:1035C00087E058076105710531F0483582E05807FA
:1035D00061057105D1F44683578360877187138233
:1035E000128281E00895403885E25807610571052F
:1035F00091F3403488E358076105710561F3403C5D
:1036000082E158076105710531F380EB90E0938307
:10361000828380E00895411581EE580761057105A8
:10362000D1F298F4411586E958076105710599F2C0
:10363000403C8AED58076105710569F2403880E722
:1036400058076105710509F7C6CF411584EF580782
:1036500081E06807710509F4BECF40F4411582ECA2
:10366000580781E06807710581F6B5CF411584E8F8
:10367000580783E06807710509F4ADCF411588EE5E
:10368000580783E06807710509F0BFCFA4CFDC01BC
:103690008C91877F8C93EFEAE60FEA3408F04FC0F5
:1036A000F0E0EB5AF44E0C942A1DA71BA71B9F1B9E
:1036B0009F1BA71BA71B9F1B9F1BA71BA71B9F1B1A
:1036C0009F1B9F1B9F1B9F1B9F1BA71BA71B9F1B1A
:1036D0009F1BA71BA71B9F1B9F1BA71BA71B9F1BFA
:1036E0009F1B9F1B9F1B9F1B9F1BA71BA71B9F1BFA
:1036F0009F1BA71BA71B9F1B9F1BA71BA71B9F1BDA
:103700009F1B9F1B9F1B9F1B9F1BA71BA71B9F1BD9
:103710009F1BA71BA71B9F1B9F1BA71BA71B9F1BB9
:103720009F1B9F1B9F1B9F1B9F1BA71BA71B9F1BB9
:103730009F1BA71BA71B9F1B9F1BA71BA71B83EBE5
:1037400090E013969C938E93129780E00895862FB5
:103750008370813029F0823079F18FEF9FEFF1CFC4
:103760001B961C921B9770E0CB01959587959595BC
:103770008795837099278130910519F182309105E1
:1037800029F1892B51F71A961C921A9784E07595A6
:1037900067958A95E1F76730710529F1CCF481E0EE
:1037A00066307105E1F014961C92149713961C92E2
:1037B0001E92129781E0089581E01B968C931B97CF
:1037C000D2CF81E01A968C931A97E0CF82E0FACF9D
:1037D0006830710551F087E06930710521F7149662
:1037E0008C931497E3CF82E0FACF83E0F8CF0F9366
:1037F0001F93CF93DF93EC01122F0E94C71A8823E7
:10380000F9F0612FCE010E94B61A8823C9F0602F0B
:10381000CE010E94471B882399F08DED99E190938A
:10382000050880930408109207081092060882E0A9
:103830008093FF0710920908109208081B821A82D1
:10384000DF91CF911F910F910895089508950895E4
:103850001F920F920FB60F9211242F933F934F9305
:103860005F936F937F938F939F93AF93BF93EF93E8
:10387000FF930E94251CFF91EF91BF91AF919F9103
:103880008F917F916F915F914F913F912F910F9009
:103890000FBE0F901F9018951F920F920FB60F92A8
:1038A00011242F933F934F935F936F937F938F9345
:1038B0009F93AF93BF93EF93FF930E94271CFF91B9
:1038C000EF91BF91AF919F918F917F916F915F9198
:1038D0004F913F912F910F900FBE0F901F90189511
:1038E0001F920F920FB60F9211242F933F934F9375
:1038F0005F936F937F938F939F93AF93BF93EF9358
:10390000FF930E94261CFF91EF91BF91AF919F9171
:103910008F917F916F915F914F913F912F910F9078
:103920000FBE0F901F9018950F9301E820E040E81C
:1039300055E260E070E08AE098E00E94F71B0F918A
:103940000895FC0182858E7F8287168217821086F9
:1039500011861082118212821382158214821786B8
:10396000108A118A128A1386148615861686938900
:103970009E7F938B411551056105710529F483E301
:1039800090E0958B848B0895408351836283738389
:10399000468357836087718781608287158A148A7E
:1039A0000895CF93DF93FC016115710541F481E126
:1039B00090E0958B848B80E0DF91CF910895868194
:1039C0009781A085B185EB0188839983AA83BB8306
:1039D000158A148A81E0F0CF40E054E264EF70E091
:1039E00086E198E00C94A11CAA1BBB1B51E107C007
:1039F000AA1FBB1FA617B70710F0A61BB70B881F7F
:103A0000991F5A95A9F780959095BC01CD0108950D
:103A1000A1E21A2EAA1BBB1BFD010DC0AA1FBB1FD2
:103A2000EE1FFF1FA217B307E407F50720F0A21B44
:103A3000B30BE40BF50B661F771F881F991F1A94B1
:103A400069F760957095809590959B01AC01BD01DB
:103A5000CF010895EE0FFF1F0590F491E02D09941A
:103A6000A29FB001B39FC001A39F700D811D1124BF
:103A7000911DB29F700D811D1124911D08950E940A
:103A8000301DA59F900DB49F900DA49F800D911D9A
:103A90001124089597FD1094002E083098F00850D6
:103AA000232F342F452F562F672F782F892F912DB5
:103AB000F4CF159497958795779567955795479582
:103AC000379527950A95AAF71124002D0895FB0133
:103AD000DC0101900D920020E1F70895B0E0A0E034
:103AE000E4E7FDE10C943520AE014B5F5F4FFA0136
:103AF00061917191AF0180912E0890912F080E94E1
:103B0000A71DE2E00C945120AEE0B0E0EAE8FDE150
:103B10000C9433200D891E8986E08C831A830983D7
:103B20008FEF9FE79E838D83AE01475E5F4F6F8966
:103B3000788DCE0101960E94A71D2F813885020F36
:103B4000131FF80110822E96E4E00C944F20ABE096
:103B5000B0E0EDEAFDE10C9425207C013B018A01F7
:103B6000FC0117821682838181FFC8C1CE010196B4
:103B70005C01F7019381F30193FD859193FF81919E
:103B80003F01882309F453C1853239F493FD8591AF
:103B900093FF81913F01853229F4B70190E00E94A3
:103BA000971FE7CF912C212C312CFFE1F31538F032
:103BB0008B3211F190F4803209F1833229F137FC14
:103BC0003CC020ED280F2A3050F536FE20C08AE098
:103BD000989E200D1124922E06C08D3291F08033D4
:103BE00071F7689430F8F30193FD859193FF81910B
:103BF0003F018111DACF21C0689431F8689432F81E
:103C0000F2CF689433F8EFCF689434F8ECCFEAE061
:103C10002E9E200D1124222E689435F8E4CF8E328A
:103C200029F436FC04C1689436F8DDCF8C3619F4DB
:103C3000689437F8D8CF8836B1F2982F9F7D955485
:103C40009330E0F08336A1F18337C1F1833509F079
:103C500063C02801F2E04F0E511CF801C080D180F2
:103C6000692D70E036FC02C06FEF7FEFC6010E9445
:103C7000811F4C01689437F882010AC00C5F1F4F06
:103C8000FFE3F98388248394912C6501E89437F845
:103C900033FE2DC0522C8114910471F5552009F486
:103CA00068CFB70180E290E00E94971F5A94F6CF48
:103CB000F801808189830E5F1F4FE4CF2801F2E075
:103CC0004F0E511CF801C080D180692D70E036FC88
:103CD00002C06FEF7FEFC6010E948C1F4C01820172
:103CE000D5CFB70180E290E00E94971F2A94281454
:103CF000190409F0B0F7CECFF60137FC859137FEF5
:103D000081916F01B70190E00E94971F51105A9462
:103D1000F1E08F1A9108BFCF843619F0893609F087
:103D200077C0F80137FE6BC0608171818281938119
:103D30000C5F1F4FF32DFF763F2E97FF09C0909524
:103D40008095709561957F4F8F4F9F4F689437F89E
:103D50002AE030E0A5010E94C71FC82ECA188C2C8B
:103D6000432C36FE0CC0E89440F8C91440F434FEED
:103D700005C032FC03C0F32DFE7E4F2E892C44FE7D
:103D800095C0FE01EC0DF11D8081803309F087C0E4
:103D9000242D297E422E842D8870582E43FC95C0F8
:103DA00040FE8FC09C2C821418F42C0C922C981876
:103DB00044FE91C0B70180E390E00E94971F42FE4D
:103DC00009C088E790E041FE02C088E590E0B701B5
:103DD0000E94971FC91408F48AC0CA94D12C9FEF7F
:103DE000C91AD90ACA0CDB1CF60182916F01B7010E
:103DF00090E00E94971FAC14BD04B1F74FCF6081D3
:103E00007181072E000C880B990B0E5F1F4F92CF0C
:103E1000D32CE894D4F82AE030E0853739F1232D0B
:103E2000297FD22E8F3601F148F48835A9F0F701A9
:103E3000868197812B96E2E10C944120803749F0EE
:103E40008837A9F7D4FE02C06894D2F820E130E0A8
:103E50000DC06894D4F8F6CF34FE03C0822F86607C
:103E6000D82E20E132E002C028E030E0F801D7FE91
:103E70000FC060817181828193810C5F1F4FA5010A
:103E80000E94C71FC82ECA183D2CE89437F867CF88
:103E90006081718190E080E00E5F1F4FF0CF42FCA7
:103EA00002C0839478CF8394839475CF842D8678D1
:103EB00009F471CFF6CFB70180E290E00E94971F1E
:103EC00083948214C0F3512C73CF522C581882144F
:103ED00008F46ECFF8CF842D867809F47BCF8BE27F
:103EE00041FE80E247FC8DE2B70190E071CFB7015F
:103EF00080E390E00E94971F9A946CCF8FEF9FEF22
:103F000099CFFC010590615070400110D8F7809561
:103F100090958E0F9F1F0895FC0161507040019095
:103F20000110D8F7809590958E0F9F1F08950F93DD
:103F30001F93CF93DF93182F092FEB018B8181FD06
:103F400009C01FEF0FEF812F902FDF91CF911F91AD
:103F50000F91089582FF14C02E813F818C819D8135
:103F6000281739073CF4E881F981CF01019699833C
:103F7000888310838E819F8101969F838E83E3CFF8
:103F8000E885F985812F0995892BA1F3DACFFA010C
:103F9000AA27283051F1203181F1E8946F936E7F88
:103FA0006E5F7F4F8F4F9F4FAF4FB1E03ED0B4E079
:103FB0003CD0670F781F891F9A1FA11D680F791FBA
:103FC0008A1F911DA11D6A0F711D811D911DA11DCB
:103FD00020D009F468943F912AE0269F11243019DB
:103FE000305D3193DEF6CF010895462F4770405D76
:103FF0004193B3E00FD0C9F7F6CF462F4F70405D25
:104000004A3318F0495D31FD4052419302D0A9F77F
:10401000EACFB4E0A6959795879577956795BA9579
:10402000C9F700976105710508959B01AC010A2E3F
:1040300006945795479537952795BA95C9F7620F16
:10404000731F841F951FA01D08952F923F924F92BA
:104050005F926F927F928F929F92AF92BF92CF9218
:10406000DF92EF92FF920F931F93CF93DF93CDB721
:10407000DEB7CA1BDB0B0FB6F894DEBF0FBECDBF99
:1040800009942A88398848885F846E847D848C846A
:104090009B84AA84B984C884DF80EE80FD800C8173
:1040A0001B81AA81B981CE0FD11D0FB6F894DEBF56
:0C40B0000FBECDBFED010895F894FFCFC6
:1040BC00015B20494E464F205D20496E6974696151
:1040CC006C697A696E6720534420436172642E2EAA
:1040DC002E0D005B204641494C205D20534420634B
:1040EC00617264206D6F756E74206661696C6564B5
:1040FC002077697468206572726F72202575210DA6
:10410C00005B20204F4B20205D20534420636172C4
:10411C0064206D6F756E746564210D0054455354A5
:10412C00253034752E747874005B204641494C2040
:10413C005D20436F756C64206E6F742063726561D3
:10414C0074652066696C65210D005B20494E464FF5
:10415C00205D2046696C65202725732720637265D6
:10416C00617465642E0D003D3D3D2054455354450E
:10417C002053442043415244203D3D3D0D0A005301
:10418C00697374656D6120696E69636961646F0D33
:10419C000A0054696D657374616D703A20536973CC
:1041AC0074656D61206C696761646F0D0A002D2D5B
:1041BC002D2D2D2D2D2D2D2D2D2D2D2D2D2D2D2D23
:1041CC002D2D2D2D2D2D0D0A005B204641494C2007
:1041DC005D20436F756C64206E6F74207772697408
:1041EC0065206865616465722E204572726F723D40
:1041FC0025750D005B20204F4B20205D204865610C
:10420C00646572207772697474656E2E2025752032
:10421C006279746573210D005B204641494C205D29
:10422C0020436F756C64206E6F742073796E6320FD
:10423C0066696C652E204572726F723D25750D0096
:10424C005B20204F4B20205D2046696C65207379E4
:10425C006E6368726F6E697A6564210D00546573C4
:10426C007420656E7472792025753A2053797374B5
:10427C00656D2072756E6E696E67204F4B0D0A006E
:10428C005B204641494C205D20436F756C64206E69
:10429C006F7420777269746520746573742064611F
:1042AC0074612E204572726F723D25750D005B2076
:1042BC00204F4B20205D20446174612073796E6324
:1042CC00656420617420656E7472792025750D000B
:1042DC005B20494E464F205D20436C6F73696E67BF
:1042EC0020534420636172642066696C652E2E2E07
:1042FC000D0053697374656D612066696E616C693C
:10430C007A61646F0D0A003D3D3D2046494D2044C5
:10431C004F205445535445203D3D3D0D0A005B2034
:10432C004641494C205D20436F756C64206E6F7460
:10433C002073796E63206265666F726520636C6FA3
:10434C0073652E204572726F723D25750D005B20D2
:10435C004641494C205D20436F756C64206E6F7430
:10436C0020636C6F73652066696C652E20457272D4
:10437C006F723D25750D005B20204F4B20205D207A
:10438C0046696C6520636C6F736564207375636339
:10439C0065737366756C6C79210D003D3D3D205342
:1043AC00495354454D4120494E49434941444F20BE
:1043BC003D3D3D0D005B20204F4B20205D2054499E
:1043CC004D45523020636F6E666967757265642166
:1043DC000D005B204641494C205D20534420436135
:1043EC00726420696E697469616C697A6174696F51
:1043FC006E206661696C6564210D005B20494E4638
:10440C004F205D2053797374656D2077696C6C2037
:10441C00636F6E74696E756520776974686F7574F7
:10442C0020534420636172642E2E2E0D003D3D3DC1
:10443C0020494E494349414E444F204C4F4F502048
:10444C005052494E434950414C203D3D3D0D005B7F
:10445C0020494E464F205D2054657374206461746E
:10446C0061202575207772697474656E0D005B2070
:10447C00494E464F205D205465737420636F6D70F8
:10448C006C657465642120436865636B2066696C98
:10449C006520272573270D003D3D3D20534953547E
:1044AC00454D412046494E414C495A41444F203DCF
:1044BC003D3D0D0046415400464154333200222A02
:0E44CC002B2C3A3B3C3D3E3F5B5D7C7F00006D
:00000001FF
