:100000000C9494030C94F6100C9436110C94BC03CD
:100010000C94BC030C94BC030C94BC030C94BC0364
:100020000C94BC030C94BC030C94BC030C94BC0354
:100030000C94BC030C94BC030C9486110C94AA1170
:100040000C94CE110C94BC030C9447140C948F1494
:100050000C946B140C94BC030C94BC030C94BC0364
:100060000C94BC030C94BC0308036F00207E1000AA
:100070000000000800000000010E0803F102000467
:10008000060802F10500060E0801F11000050E0831
:1000900001F11900060C0801F32200060E0801F117
:1000A0002D0001060803F12E00030E0801F13400B3
:1000B000030E0803F13A00050E0801F14300050A9A
:1000C0000801F34A0002060803F94C000602080181
:1000D000F74E0001020803FD4F00060C0801F3581B
:1000E00000060E0801F16300030E0803F169000623
:1000F0000E0801F17400060E0801F17F00060E08DB
:1001000001F18A00060E0801F19500060E0801F1C2
:10011000A000060E0801F1AB00060E0801F1B600C2
:10012000060E0801F1C10001060803F5C20002092C
:100130000803F5C500040E0802F1CC00060608010C
:10014000F5D100040E0802F1D80002040801F1D92B
:1001500000060E0801F1E400060E0801F1EF0006AA
:100160000E0801F1FA00060E0801F10501060E085D
:1001700001F11001060E0801F11B01060E0801F144
:100180002601060E0801F13101060E0801F13C01BD
:10019000030E0802F14201060E0801F14D01060EA0
:1001A0000801F15801060E0801F16301060E08016D
:1001B000F16E01060E0801F17901060E0801F184C5
:1001C00001060E0801F18F01060E0801F19A0106E1
:1001D0000E0801F1A501060E0801F1B001050E0897
:1001E00001F1B901060E0801F1C401060E0801F182
:1001F000CF01060E0801F1DA01060E0801F1E50152
:10020000050E0801F1EE01060E0801F1F901060ED6
:100210000801F10402060C0801F30D02060E0801A4
:10022000F1180205060801F51C0206020801FD1E70
:100230000203060802F12102060A0801F529020656
:100240000E0801F13402060A0801F53C02060E0808
:1002500001F14702060A0801F54F02060E0801F1F6
:100260005A02060C0801F56302060E0801F16E023F
:10027000030E0802F1740205100801F17E02060E59
:100280000801F18902030E0802F18F02060A080133
:10029000F59702060A0801F59F02060A0801F5A76C
:1002A00002060C0801F5B002060C0801F5B90206B9
:1002B0000A0801F5C102060A0801F5C902060E087E
:1002C00001F1D402060A0801F5DC02060A0801F56C
:1002D000E402060A0801F5EC02060A0801F5F40238
:1002E000060C0801F5FD02060A0801F50503060ED5
:1002F0000801F11003010E0803F11203060E0801B4
:10030000F11D0305060801F5FFCC9999994924923E
:10031000FFF492FFF4924920211EFA51CE297DE28A
:1003200010C71CB21042084D38E361892492461868
:100330009658A275D0FC2529249122409122492566
:100340002900212B57388473AB521021084FFC84AD
:10035000210055A0FFF0C00410821042084108207F
:1003600079E8618E3B6DC7186179E04B6492492F43
:10037000C079E86104138E410820FFF0FFF04108C6
:10038000238E04186179E008218628A492FFF08268
:100390000820FFF820FBE04104186179E03CF410EC
:1003A000820FBE86186179E0FFF0410821042082A7
:1003B00008208079E86186179E86186179E079E8DF
:1003C000618617DF041082F3C0CC5055801122449F
:1003D00088442211FFF000FFF08844221122448853
:1003E0005A79E861965AEB9A68207DF030C492867B
:1003F0001861FFF8618610FBE861861FBE861861F0
:10040000FBE079E86182082082086179E0FBE8611D
:10041000861861861861FBE0FFF820820FBE820813
:1004200020FFF0FFF820820FBE82082082007DF8B6
:10043000208208279E18617DF0861861861FFF863E
:1004400018618610FD2492492FC004104104104108
:1004500004186179E08618A2924E389248A286105C
:10046000820820820820820820FFF0861CF3B6DB79
:100470006D8618618610861C71A69B6D9658E38662
:100480001079E86186186186186179E0FBE8618679
:100490001FBE820820820079E8618618619658A202
:1004A00075D0FBE861861FBE9248A2861079E8618C
:1004B00082079E04186179E0FFC842108421084237
:1004C0001086186186186186186179E08618618641
:1004D000186186149230C0861861861B6DB6DCF3F5
:1004E000861086186149230C49286186108C631593
:1004F000288421084210FFF04108230C410820FF06
:10050000F0FFFC30C30C30C30C30FFF0820410202D
:100510008104082041FFF0C30C30C30C30C3FFF04E
:100520002114A8C4FFF091224079E0417DF8617D5B
:10053000F0820820FBE861861861FBE07DF82082EC
:1005400008207DF00410417DF8618618617DF07906
:10055000E861FFF8207DF038E451410FBE410410FE
:10056000410079E8618617DF04179E820820FBE8C6
:10057000618618618610480D92492FC0084007BC5B
:1005800021084218C5CE8208208618A2F3C8A28688
:1005900010D92492492FC0CF3B6DB6DB6D8610FB7E
:1005A000E861861861861079E86186186179E0FB58
:1005B000E861861FBE8208207DF8618617DF04107F
:1005C00041BEFC3082082082007DF82079E041FBAA
:1005D000E0208208FBE208208249186086186186C4
:1005E00018E375D086186186149230C0861861B6FB
:1005F000DB6DCF3086149230C492861086186186E7
:1006000017DF04179EFFF08230C410FFF01C730C3C
:1006100030CE3830C30C1C70FFFCE3830C30C1C7F4
:1006200030C30CE3804A6B594804E010021C0712E7
:100630003732292D29252B3900010310E110031D24
:1006400007062E2C292D2E2E373F00000210138076
:100650000A298064022A040000007F2B04000000A5
:100660007F022A040000007F2B040000009F022A62
:1006700004000200812B04000100A00F01809611EC
:1006800080FFB103012C2DB203012C2DB306012CE8
:100690002D012C2DB40107C003A20284C101C5C2E3
:1006A000020A00C3028A2AC4028AEEC5010E200093
:1006B0003601C83A0105120180321180FF3A8105E6
:1006C0000AB1830006030A360108B6021502B40116
:1006D00000C08202700AC10105C2020102C5823C4B
:1006E000380AFC021115E01009160920211B131904
:1006F00017151E2B0405020EE1900B14081E221D77
:10070000181E1B1A242B0606020F0A2A04000200D8
:10071000812B040002008113800A2980FF00DF1072
:100720001A115A11F211B31411241FBECFEFD8E0E1
:10073000DEBFCDBF13E0A0E0B1E0E4E0F5E302C02E
:1007400005900D92A431B107D9F727E0A4E1B3E0F9
:1007500001C01D92A532B207E1F713E0C4E9D3E06E
:1007600004C02197FE010E94E214CF38D107C9F7D7
:100770000E94BD060C94801A0C94000081E08093C6
:10078000E10608954B9905C081E080931B03109208
:100790001A0308952F923F924F925F926F927F9229
:1007A0008F929F92AF92BF92CF92DF92EF92FF9281
:1007B0000F931F93CF93DF93CDB7DEB728970FB674
:1007C000F894DEBF0FBECDBF3C012B010E94D909BA
:1007D000882E882309F43CC11092E106912C5CE13B
:1007E000A52E53E0B52E60E2262E61E0362E1D8246
:1007F0001E821F82188619821A821B821C8210E0B8
:10080000C12CD12C760180910001181788F4BE010B
:100810006F5F7F4FCE0105960E94320989819A81D0
:10082000AB81BC81C80ED91EEA1EFB1E1F5FEBCF39
:100830008091DF068823D9F08C818F938B818F93F1
:100840008A818F9389818F9388858F938F818F93EE
:100850008E818F938D818F9381E091E09F938F9311
:100860000E945A170FB6F894DEBF0FBECDBF20917D
:10087000000130E050E040E0C701B6010E94C01422
:10088000E091D20681E08E0F8093D20694E0E99F3A
:10089000F0011124ED52F94F2083318342835383B9
:1008A000833009F0CBC01092D20683ED96E00E940F
:1008B000E9091092D3061092D4061092D506109230
:1008C000D6061092D7061092D8061092D90610922A
:1008D000DA061092DB061092DC061092DD0610920A
:1008E000DE066938E3E17E0781059105B8F04091A5
:1008F0007804509179049A012F5F3F4F3093790427
:10090000209378049A01220F331F220F331FF9011D
:10091000E658FB4F608371838283938380917804D0
:10092000909179048639910508F488C01092790471
:10093000109278042AE04CE453E066E970E08AE71C
:1009400094E00E94280B6B017C010E94FE15F301CC
:10095000718360836081718190E080E00E942D1638
:100960009B01AC01C701B6010E941F1520E030E0D9
:1009700048EC52E40E94C0160E94FE15F2017183F9
:1009800060838091DF06882309F458C062E080E02C
:100990000E940910E12CF12C870120E230E044E3B1
:1009A00050E067E470E081E490E00E94170D8885D4
:1009B0008F938F818F938E818F938D818F9386E11B
:1009C00091E09F938F931F92F8E2FF93BF92AF92B3
:1009D0000E949B17C12CD12C7601CA9401E028E615
:1009E00030E04CE153E067E570E08CE190E00E947C
:1009F0005E0E8C818F938B818F938A818F938981F7
:100A00008F933F922F921F9228E22F93BF92AF9223
:100A10000E949B17CC24CA94DC2CEC2CF12C28E6E9
:100A200030E04CE153E067E670E08CE190E00E943A
:100A30005E0E0FB6F894DEBF0FBECDBF9394891043
:100A4000D6CE80E00E94170981E00E941709E09A43
:100A500028960FB6F894DEBF0FBECDBFDF91CF91C1
:100A60001F910F91FF90EF90DF90CF90BF90AF90CC
:100A70009F908F907F906F905F904F903F902F90BE
:100A8000089540E051EE60E070E083E197E00E945D
:100A9000E61283E197E00E940512E1ECF0E080812C
:100AA00088608083EFE1F7E085E097E095838483B9
:100AB000938382839183808308958F929F92AF92D4
:100AC000BF92CF92DF92EF92FF920F931F93CF933B
:100AD000DF938091DF0662E0882309F41EC180E085
:100AE0000E9409101F921F9286E191E09F938F93BD
:100AF0001F9248E2B42EBF92CCE1D3E0DF93CF93B4
:100B00000E949B17E12CF12C870120E230E044E3A6
:100B100050E067E470E081E490E00E94170DCC247F
:100B2000CA94DC2CEC2CF12C01E028E630E0AE017C
:100B300067E570E08CE190E00E945E0E1F921F92CC
:100B400080E291E09F938F931F92BF92DF93CF93A8
:100B50000E949B1728E630E0AE0167E670E08CE16A
:100B600090E00E945E0E8DB79EB740960FB6F89447
:100B70009EBF0FBE8DBF812C912C54018A9463E0DF
:100B800080E00E940910C12CD12C7601EA9401E08A
:100B900021E044E066E770E088E090E00E94650DA7
:100BA0008501740129E030E049E050E065E670E03D
:100BB00084E090E00E94170D29E030E049E050E029
:100BC00067E570E084E090E00E94170D29E030E0D6
:100BD00049E050E062E770E08FE090E00E94170D7E
:100BE00029E030E049E050E065E670E08FE090E019
:100BF0000E94170D29E030E049E050E062E770E024
:100C00008BE190E00E94170D29E030E049E050E0D0
:100C100065E670E08BE190E00E94170D29E030E07E
:100C200049E050E067E570E08BE190E00E94170D2D
:100C300029E030E049E050E062E770E087E290E0D0
:100C40000E94170D29E030E049E050E065E670E0D1
:100C500087E290E00E94170D62E080E00E94091098
:100C6000CC24CA94DC2CEC2CF12C01E028E630E0FA
:100C70004AE251E062E170E080E390E00E945E0EA3
:100C800028E630E043E351E064E270E080E390E086
:100C90000E945E0E1F921F921F921F9289E391E0A5
:100CA0009F938F931F9288E28F938CE193E09F93A1
:100CB0008F930E949B17E12CF12C870120E130E0FB
:100CC00044E350E066E370E081E490E00E94170D99
:100CD000CC24CA94DC2CEC2CF12C01E028E630E08A
:100CE0004CE153E066E470E08CE190E00E945E0E1F
:100CF0008DB79EB70A960FB6F8949EBF0FBE8DBFF4
:100D0000DF91CF911F910F91FF90EF90DF90CF90E7
:100D1000BF90AF909F908F90089580E00E9409103F
:100D2000E12CF12C870120E230E044E350E067E45D
:100D300070E08CE190E00E94170D812C99249A9428
:100D40003FEBA32EB12C1BCF982F893008F098E0F1
:100D50009093190310921803109217031092160320
:100D600010921503811106C081E080931403389A14
:100D70004098089510921403FACF0E944105789488
:100D800088E491E00E94701788E691E00E94701755
:100D900088E891E00E9470175B9A62E08CEF96E021
:100DA0000E942311E19AE99A8AEA91E00E94701761
:100DB00063E082E00E9431108CEC91E00E94701799
:100DC000E12CF12C870120E830E040EA50E070E0AF
:100DD00060E090E080E00E94170D0E945D058CEEBF
:100DE00091E00E9470170E948409811108C08DE073
:100DF00092E00E94701784E00E94A406FFCF80E377
:100E000092E00E94701743E062E080E097E00E9469
:100E100063118DE787BDA99A80916E0082608093EF
:100E20006E0080E592E00E9470175A9A62E088EFA7
:100E300096E00E94E710E09AE89A80E792E00E942C
:100E400070178824839499E3A92E91E0B92E28E2A3
:100E5000922ECCE1D3E08091E1068823B1F168E4E1
:100E600073E08AE493E00E94CA0382E992E00E9460
:100E7000701720914A0330914B0380914603909163
:100E800047032817390759F4209148033091490343
:100E9000809144039091450328173907B1F08EEAF9
:100EA00092E00E94701780914803909149039093BB
:100EB00045038093440380914A0390914B039093A0
:100EC0004703809346038092E0068091E0068823E2
:100ED00011F281ED92E00E94701720914803309149
:100EE000490380914A0390914B033F932F939F9323
:100EF0008F93BF92AF921F929F92DF93CF930E94E6
:100F00009B17E12CF12C870120E130E044E350E015
:100F100066E370E081E490E00E94170DCC24CA944F
:100F2000DC2CEC2CF12C01E028E630E04CE153E025
:100F300066E470E08CE190E00E945E0E1092E006A4
:100F40008DB79EB70A960FB6F8949EBF0FBE8DBFA1
:100F500082CF809116039091170301969093170307
:100F60008093160320911403222399F0843691056F
:100F7000C8F110921703109216038091150391E0A7
:100F8000892780931503882311F0389A0895409893
:100F9000089520911903222329F12091150322237A
:100FA000B1F0883C9105F0F0109215034098109232
:100FB000170310921603809118038F5F8093180314
:100FC00090911903891770F0109219030895843FC6
:100FD000914040F081E080931503409A10921703EE
:100FE00010921603089580911B03882349F14B99B1
:100FF00029C080911A038F5F80931A0380911A038E
:101000008430F0F08091DF0691E089278093DF063D
:101010008AEE92E00E9470178091DF061F928F93F4
:101020008DEF92E09F938F930E945A170E945D0567
:1010300010921B0310921A030F900F900F900F90B5
:101040000C94A90710921B0310921A03F9CF84EA9B
:101050008093BC008091BC0087FFFCCF8091B900D9
:10106000887F883051F08091B900887F803129F0E5
:101070008091B900887F90E0089590E080E0089525
:101080008093BB0084E88093BC008091BC0087FF04
:10109000FCCF8091B900887F883151F08091B900F0
:1010A000887F803429F08091B900887F90E008958E
:1010B00090E080E0089527B1206327B928B1662326
:1010C00061F0206328B927B12F7C27B981309105C1
:1010D00051F028F0029749F008952F7CF3CF88E46F
:1010E0008093B800089588E1FBCF8CE0F9CFFF92A0
:1010F0000F931F93CF93DF93F82EEB01042F122F42
:101100000E942708009759F58F2D880F0E944008EC
:10111000009729F5FE01402F50E034E8BF016C1B19
:101120007D0B64177507B4F421912093BB003093B5
:10113000BC002091BC0027FFFCCF2091B900287F84
:10114000283261F32091B900287F622F70E031F3DB
:10115000CB0105C0111103C024E92093BC00DF912D
:10116000CF911F910F91FF9008950F931F93CF93ED
:10117000DF93082FEB01142F0E9427080097D9F561
:10118000802F880F81600E9440080097A1F5FE0122
:10119000212F2150330BA90134ECBF016C1B7D0BB7
:1011A000641775079CF43093BC002091BC0027FFA6
:1011B000FCCF2091B900287F203529F02091B9007B
:1011C000287F2193EACF2091BB00FBCFC40FD51F0E
:1011D00024E82093BC002091BC0027FFFCCF209185
:1011E000B900287F283561F02091B900287F288335
:1011F00024E92093BC00DF91CF911F910F910895B6
:101200002091BB00F4CFCF93DF9300D0CDB7DEB7F2
:1012100089836A8320E042E0BE016F5F7F4F87E5EC
:101220000E9477080F900F90DF91CF910895CF9390
:10123000DF9300D0CDB7DEB78A8321E041E0BE0165
:101240006E5F7F4F87E50E94770841E0BE016F5FC8
:101250007F4F87E50E94B50889810F900F90DF913D
:10126000CF910895EF92FF920F931F93CF93DF9347
:1012700000D000D000D01F92CDB7DEB77C018B012B
:1012800087E08F8321E041E0BE01695F7F4F87E502
:101290000E94770846E0BE016F5F7F4F87E50E949E
:1012A000B50829818A8190E0B0E0A0E0BA2FA92F8B
:1012B000982F8827A22B2B81822BA370BB27F701A5
:1012C00080839183A283B3832C818D8190E0B0E0F1
:1012D000A0E0BA2FA92F982F8827A22B2E81822B2E
:1012E000A370BB27F80180839183A283B3832796E1
:1012F0000FB6F894DEBF0FBECDBFDF91CF911F9127
:101300000F91FF90EF900895CF93DF9300D0CDB76A
:10131000DEB760E082E090E00E945B088FEF8A8396
:1013200021E041E0BE016E5F7F4F87E50E947708B4
:1013300041E0BE016F5F7F4F87E50E94B50889815C
:101340008531A9F560E489E00E94030962E089E043
:101350000E9403092FEF81EE94E0215080409040DD
:10136000E1F700C0000066E78AE00E94030962E13D
:1013700088E00E94030960E882E00E94030960E0BF
:1013800083E00E94030980E00E94170981E00E9427
:10139000170960E68CE00E94030960E68DE00E9478
:1013A000030981E00F900F90DF91CF91089580E0C5
:1013B000F9CFCF9384E00E941709C82F86E00E94DE
:1013C0001709C81720F0C81B8C2FCF910895C05E55
:1013D000FACFFC01608571858285938508952F92EF
:1013E0003F924F925F926F927F928F929F92AF92B5
:1013F000BF92CF92DF92EF92FF920F931F93CF9302
:10140000DF93CDB7DEB7AC970FB6F894DEBF0FBE53
:10141000CDBF6230710508F418C1442309F415C129
:10142000A42EAAE02A2E241610F4FAE0AF2EFC0116
:1014300081919191A191B1919F0166246A946A0C66
:10144000F4E06F9EA00111244C5F5F4F222423948F
:10145000312C2C0E3D1E240E351E3AA629A6B12C89
:1014600041E050E00A2D0150110B4801880C991CF5
:10147000880C991CE1E0F0E0EC0FFD1F8E0E9F1E22
:10148000F901C190D190E190F1909F018C159D05DB
:10149000AE05BF05A0F516012701281A390A4A0A28
:1014A0005B0AD201C101BA1408F07AC004E0B09E10
:1014B000F0011124349622242394312C2C0E3D1E4D
:1014C0002E0E3F1E3CA62BA67B2C7720E9F00BA509
:1014D0001CA508501109F8012080318042805380FA
:1014E000281639064A065B0678F4EBA5FCA552924D
:1014F000429232922292FCA7EBA77A94E6CF8C1903
:101500009D09AE09BF09CFCF04E0709EF001112400
:1015100022242394312C2C0E3D1EE20DF31D8083DA
:101520009183A283B383B3944F5F5F4FD701C6010A
:101530006417750709F0A4CFFE01319660E070E0F2
:10154000CB0120E0C190D190E190F1906C0D7D1D18
:101550008E1D9F1D2F5F2B11F5CF213039F02230CA
:1015600009F058C09695879577956795CB01AC960D
:101570000FB6F894DEBF0FBECDBFDF91CF911F91A4
:101580000F91FF90EF90DF90CF90BF90AF909F9022
:101590008F907F906F905F904F903F902F90089525
:1015A000F4012080318042805380281639064A0693
:1015B0005B0608F0B9CF29A43AA43CA62BA6762C4A
:1015C0007720C1F00BA51CA508501109F801208057
:1015D000318042805380281639064A065B0650F453
:1015E000EBA5FCA55292429232922292FCA7EBA765
:1015F0007A94E6CF04E0709EF00111242224239413
:10160000312C2C0E3D1EE20DF31D80839183A283AD
:10161000B3838ACF243041F432E09695879577954D
:1016200067953A95D1F7A2CF283041F423E09695FB
:101630008795779567952A95D1F798CF30E050E058
:1016400040E00E94C014B90191CF70E060E08ECFFD
:101650002F923F924F925F926F927F928F929F92C2
:10166000AF92BF92CF92DF92EF92FF920F931F93B0
:10167000CF93DF93CDB7DEB72F970FB6F894DEBFC9
:101680000FBECDBF63307105E0F460E070E0CB01C8
:101690002F960FB6F894DEBF0FBECDBFDF91CF916E
:1016A0001F910F91FF90EF90DF90CF90BF90AF9080
:1016B0009F908F907F906F905F904F903F902F9072
:1016C00008951A0178876F839F878E87422F0E9423
:1016D000EF090097D1F20F811885015011091E837F
:1016E0000D83AE85BF85CD90DD90ED90FC90139776
:1016F00014964D915D916D917C911797A1E0B0E0AA
:101700001D862C01712C612C49825A826B827C824D
:10171000CD010196FC01EE0FFF1FEE0FFF1F4E845F
:101720005F84E40DF51D00811181228133814C1508
:101730005D056E057F0508F093C04A015B016F806F
:1017400078848615970538F5081519052A053B058F
:1017500010F5041715072607370718F4B901A80173
:10176000DC0101964F8058848415950540F7FC01F3
:10177000EE0FFF1FEE0FFF1F6E847F84E60DF71D37
:10178000480159010081118122813381D8CF75012F
:101790006401DC01BDCF26013701441A550A660AEF
:1017A000770AC980DA80EB80FC804C145D046E04FB
:1017B0007F0408F4DDC026013701440E551E661E65
:1017C000771EEF80F8848E159F0518F50415150512
:1017D00026053705F0F4041715072607370718F410
:1017E000B901A801DC010196CF80D8848C159D0534
:1017F00040F7FC01EE0FFF1FEE0FFF1FEE84FF848A
:10180000EE0DFF1D480159010081118122813381B4
:10181000D8CFFD84EF2DF0E0EE0FFF1FE20DF31D9A
:10182000B183A083B901A8010F2D0F5F0D874F80F1
:10183000588484159505E8F4FC01E150F04CEE0F56
:10184000FF1FEE0FFF1F4E845F84E40DF51D8080A7
:101850009180A280B380448155816681778109C0DF
:101860006F8078844A015B018615970510F4B901F1
:10187000A8016D807E800D858615970568F506396F
:1018800009F085CFED84EA948101FF24F394812C43
:10189000912C5401FE1420F5D80114966D917C9181
:1018A00015978D919C91681B790B90E080E00E94C8
:1018B0002D162FE632E143E85CE30E94C0169B013F
:1018C000AC01C501B4010E9420154B015C01F394E9
:1018D000F3940C5F1F4FDECF023008F4D6CED2CF88
:1018E0004E2D41604D84441500F550E0440F551FC6
:1018F000240E351EF1013297D1016D917C918081CA
:101900009181681B790B90E080E00E942D162FE6F4
:1019100032E143E85CE30E94C0169B01AC01C501C3
:10192000B4010E9420154B015C010D850150110B83
:10193000B801072E000C880B990B0E942F169B01F3
:10194000AC01C501B4010E948C154B015C0120E083
:1019500030E0A9010E94BB1618160CF096CEA50126
:10196000940160E070E080E792E40E948C1590CED4
:10197000B901A8015CCF2A9829988EBD0DB407FE45
:10198000FDCF2A9A08952A98299A8EBD0DB407FE94
:10199000FDCF2A9A08952A98299A9EBD0DB407FE74
:1019A000FDCF8EBD0DB407FEFDCF2A9A0895CF92CC
:1019B000DF92EF92FF920F931F93CF93DF938C01EF
:1019C0006B01EA0179018AE20E94BB0CC6010E9408
:1019D000CB0CC7010E94CB0C8BE20E94BB0CC80150
:1019E0000E94CB0CCE010E94CB0C8CE2DF91CF91F8
:1019F0001F910F91FF90EF90DF90CF900C94BB0C54
:101A0000972F66956695669570E0762F6627770F17
:101A1000770F770F869586958695682B9695969580
:101A200020E2929FC0011124862B972B08954F929C
:101A30005F926F927F928F929F92AF92BF92CF925E
:101A4000DF92EF92FF920F931F93CF93DF93FC01EE
:101A50003B01E901670178019A01DE010E94E81467
:101A60004B015C019F0121503109240F351FA30157
:101A7000415051094C0F5D1FBF01C3010E94D70C9B
:101A8000412C512C3201481459046A047B0461F042
:101A9000C701B6010E94000D0E94CB0C8FEF481ABF
:101AA000580A680A780AEFCFDF91CF911F910F9102
:101AB000FF90EF90DF90CF90BF90AF909F908F906E
:101AC0007F906F905F904F9008952F923F924F922A
:101AD0005F926F927F928F929F92AF92BF92CF92BE
:101AE000DF92EF92FF920F931F93CF93DF93CDB7C7
:101AF000DEB765970FB6F894DEBF0FBECDBF9887EF
:101B00008F837A8769872B8B26013701242E312C0E
:101B100081E090E09C01221933093C832B83D12C76
:101B2000C12C402F50E05D8B4C8B89859A858219A2
:101B300093099A8B898B2F8138852C193D093E8713
:101B40002D8749855A854C195D095C874B878F81A4
:101B5000988582199309988B8F879B89913009F01A
:101B60004CC05101AA0CBB1C2FEFA21AB20A4601AD
:101B7000880C991C3FEF831A930A83017201950127
:101B8000A40169897A898D859E850E94170D94012B
:101B9000A5016B857C858F8598890E94170D96011C
:101BA0002F5F3F4F4B815C8157FF78C0CA0103967E
:101BB000CC0CDD1CA601480F591F5C834B836901C7
:101BC000221633060CF0B1CF65960FB6F894DEBF3F
:101BD0000FBECDBFDF91CF911F910F91FF90EF907E
:101BE000DF90CF90BF90AF909F908F907F906F903D
:101BF0005F904F903F902F900895830172012C8940
:101C00003D89A90189849A84820C931CB4018F8137
:101C100098858C0D9D1D9E838D830E94170D2C89A8
:101C20003D89A901A984BA84AC0CBD1CB5018F8182
:101C30009885820D931D9A8389830E94170D2C89A4
:101C40003D89A901B4018D859E850E94170D2C89BF
:101C50003D89A901B5018F8598890E94170D2C89AE
:101C60003D89A9016B857C8589819A810E94170D28
:101C70002C893D89A90169897A898D819E810E947B
:101C8000170D2C893D89A90169897A898D859E85E1
:101C90000E94170D2C893D89A9017BCF8B819C81E6
:101CA0000596C218D308CC0CDD1CA601480F591F9D
:101CB0005C834B8351E0251A310881CF2F923F92EC
:101CC0004F925F926F927F928F929F92AF92BF924C
:101CD000CF92DF92EF92FF920F931F93CF93DF93F8
:101CE000CDB7DEB76D970FB6F894DEBF0FBECDBF90
:101CF000888F998F3A010B8BCC8ADD8AEE8AFF8A16
:101D00002B0147E050E0B901CE0108960E9451171F
:101D10007A8A698A288C398C0B89A02EB12CF30120
:101D200001900020E9F73197E619F70989899A8926
:101D3000861997098E179F0708F0D4C0E989FA8998
:101D40004191FA8BE98B4A3049F48E85FB89F89FE3
:101D5000400C511C1124288C398CE1CF842F042E87
:101D6000000C990B2C8530E082179307C4F25D8537
:101D700058171906A4F24D3091F2821B930B47E0DD
:101D8000489F9001499F300D11246A857B85620F21
:101D9000731F47E050E0CE0101960E9451176885FD
:101DA00079857B8F6A8F89819A81988B8F87912C17
:101DB000812CC12C8C81981608F08DC0D12C90E01C
:101DC00080E0E92DF0E0FD8FEC8F2B81D21608F03A
:101DD0004EC081100FC02F8538892F5F3F4FEA8D8D
:101DE000FB8D4F855889E40FF51FC490388B2F87E2
:101DF00020E8822E2C2D282121F001968694D39460
:101E0000E4CF0097D9F38A9DA0018B9D500D9A9D38
:101E1000500D11242F816C8D7D8D620F711D27FD5A
:101E20007A959B012A9DB0012B9D700D3A9D700DF6
:101E30001124640D751DEE812D2D30E02E0F311D06
:101E4000E7FD3A95281B390B2A9DC0012B9D900D6B
:101E50003A9D900D1124EC88FD880E891F8995010B
:101E6000820D931D0E94170D90E080E0C7CF009770
:101E700081F18A9DA0018B9D500D9A9D500D1124DA
:101E80006F81292D30E0260F311D67FD3A952A9D7F
:101E9000B0012B9D700D3A9D700D1124640D751DC0
:101EA000EE812D2D30E02E0F311DE7FD3A95281BD8
:101EB000390B2A9DC0012B9D900D3A9D900D112448
:101EC000EC88FD880E891F899501820D931D0E9463
:101ED000170D93946FCF8D817B89789F200C311CD7
:101EE00011241DCF6D960FB6F894DEBF0FBECDBF87
:101EF000DF91CF911F910F91FF90EF90DF90CF90E6
:101F0000BF90AF909F908F907F906F905F904F9019
:101F10003F902F90089585B18E6285B984B18E620D
:101F200084B98CB580658CBD8DB581608DBD0895FB
:101F3000289A209A2A98289A2FEF82E597E0215034
:101F400080409040E1F700C0000028982FEF82E524
:101F500097E0215080409040E1F700C00000289AAF
:101F60000895CF92DF92EF92FF920F931F93CF933A
:101F7000DF93EC012196FC01149100E0011709F4B4
:101F80003FC0FE0184910E94BB0C6E01F2E0CF0EB7
:101F9000D11CFE013196D491CD2FCF77F12CE12CBD
:101FA000F601EC1648F4EE0DFF1D84910E94C30C5F
:101FB0002FEFE21AF20AF4CFEC0FF11DD7FF1EC08B
:101FC000EF01219624912F3F59F48FEF99E6E8E134
:101FD00081509040E040E1F700C000000F5FCECF9D
:101FE00090E080E030E082179307C4F7EFE1FEE471
:101FF0003197F1F700C000000596F5CFEF01EECF65
:10200000DF91CF911F910F91FF90EF90DF90CF90D4
:102010000895CF93DF93C82FD62F86E30E94BB0C81
:10202000D13081F038F0D23091F0D330A9F0DF9187
:10203000CF91089580ECC33009F088ECDF91CF9107
:102040000C94C30C80EAC330C9F388EAF7CF80E070
:10205000C330A1F388E0F2CF80E6C33079F388E69D
:10206000EDCFEF92FF920F931F93CF93DF93C82F83
:10207000D62F0E948B0F0E94980FC230D9F1F8F42E
:10208000CC2341F1C13059F189E20E94BB0C6D2F84
:102090008C2F0E940910E12CF12C870120EA30E0FE
:1020A00040EA50E061E070E081E090E00E94170DAE
:1020B000DF91CF911F910F91FF90EF900895C33062
:1020C00001F1C43009F78BE796E00E94B10F84E577
:1020D00096E00BC086EB96E00E94B10FD5CF8BE760
:1020E00096E00E94B10F8EE696E00E94B10F89E261
:1020F00096E0F2CF8BE796E00E94B10F81E696E082
:10210000F4CF8BE796E00E94B10F81E696E00E9443
:10211000B10F89E296E00E94B10F86E30E94BB0CEA
:1021200080EC0E94C30CB0CFFC0182858E7F828739
:1021300016821782108611861082118212821382F3
:10214000158214821786108A118A128A13861486C1
:102150001586168693899E7F938B411551056105DF
:10216000710529F483E390E0958B848B0895408377
:10217000518362837383468357836087718781604D
:102180008287158A148A0895CF93DF93FC01611525
:10219000710541F481E190E0958B848B80E0DF91C3
:1021A000CF91089586819781A085B185EB018883C1
:1021B0009983AA83BB83158A148A81E0F0CF40E01B
:1021C00054E264EF70E082EE96E00C949410FC010F
:1021D000A9E6B0E09C919C7F962B9C9361838081C3
:1021E000816080831382128281E008951F920F9292
:1021F0000FB60F9211242F933F934F935F936F93DA
:102200007F938F939F93AF93BF93EF93FF930E941E
:10221000BE03FF91EF91BF91AF919F918F917F91FD
:102220006F915F914F913F912F910F900FBE0F9043
:102230001F901895E8EFF6E0118280818E7F8083F1
:10224000138212820895FC01A9E6B0E09C91937F6D
:1022500084E0689F90011124922B9C93618380817C
:10226000816080831382128281E008951F920F9211
:102270000FB60F9211242F933F934F935F936F9359
:102280007F938F939F93AF93BF93EF93FF930E949E
:10229000C203FF91EF91BF91AF919F918F917F9179
:1022A0006F915F914F913F912F910F900FBE0F90C3
:1022B0001F901895ECEFF6E0118280818E7F80836D
:1022C000138212820895FC0184B595B58C7F262F68
:1022D0002370822B262F30E035952795359527954D
:1022E00073E0220F331F7A95E1F7977F922B987F47
:1022F000942B84BD95BD62834183808181608083FE
:102300001482138281E00895089508951F920F9218
:102310000FB60F9211242F933F934F935F936F93B8
:102320007F938F939F93AF93BF93EF93FF930E94FD
:10233000F307FF91EF91BF91AF919F918F917F91A3
:102340006F915F914F913F912F910F900FBE0F9022
:102350001F9018951F920F920FB60F9211242F9372
:102360003F934F935F936F937F938F939F93AF931D
:10237000BF93EF93FF930E948411FF91EF91BF9160
:10238000AF919F918F917F916F915F914F913F910D
:102390002F910F900FBE0F901F9018951F920F92C4
:1023A0000FB60F9211242F933F934F935F936F9328
:1023B0007F938F939F93AF93BF93EF93FF930E946D
:1023C0008511FF91EF91BF91AF919F918F917F9177
:1023D0006F915F914F913F912F910F900FBE0F9092
:1023E0001F901895E0E0F7E01182128280818E7FC5
:1023F00080831482138208959091C00095FFFCCFD2
:102400008093C60090E080E008952F923F924F9213
:102410005F926F927F928F929F92AF92BF92CF9274
:10242000DF92EF92FF920F931F93CF93DF9300D031
:1024300000D0CDB7DEB77C012091C0003091C10043
:102440008091C2004091C4005091C50019821A8247
:102450001B821C82D7011B969C91992361F19130BC
:1024600061F18F7CF7019285913049F1923049F109
:10247000D32EE894D2F8897FD70114969C9192309C
:1024800061F108F5913039F1217EC22E182F1E73AB
:10249000D7011596EC9101E0E83010F5F0E0ED5A27
:1024A000FD4E0C94E2146F12C012C412C712C9126E
:1024B000CD12CF12D312877FD4CF8860D2CF806362
:1024C000D7CF8062D5CF933021F09730E9F668946A
:1024D000D2F88660D9CF8260D7CF8460D5CF00E1B3
:1024E000BE016F5F7F4F82EE96E00E94C410F7013D
:1024F0002681378140855185A02FB0E00E94F714D6
:102500009B01AC0169817A818B819C810E94C014FE
:1025100019012A01F1E02F1A310841085108C0922F
:10252000C000D092C1001093C2009101A20160E0EE
:1025300070E080E090E008E00E9404152F70209386
:10254000C5002092C400D70113961C921E921297C8
:1025500081E00F900F900F900F90DF91CF911F911E
:102560000F91FF90EF90DF90CF90BF90AF909F9032
:102570008F907F906F905F904F903F902F90089535
:102580006894C1F808E0ACCF106402E0A9CF1164F0
:10259000FCCF8C73182F106CF8CF126CF6CF8C73A5
:1025A000182F116CF2CF136CF0CFFC018081877F64
:1025B0008083683030F08CE090E09383828380E009
:1025C000089565831382128281E00895FC01808161
:1025D000877F808341158BE4580761057105D1F031
:1025E000C8F5403689E058076105710599F0D0F4C7
:1025F000403B84E058076105710561F0483087E091
:1026000058076105710531F0483582E058076105CA
:102610007105D1F4468357836087718713821282D4
:1026200081E00895403885E258076105710591F30E
:10263000403488E358076105710561F3403C82E14D
:1026400058076105710531F380EB90E09383828335
:1026500080E00895411581EE580761057105D1F2BA
:1026600098F4411586E958076105710599F2403CD7
:102670008AED58076105710569F2403880E758070F
:102680006105710509F7C6CF411584EF580781E050
:102690006807710509F4BECF40F4411582EC580774
:1026A00081E06807710581F6B5CF411584E85807C8
:1026B00083E06807710509F4ADCF411588EE58072E
:1026C00083E06807710509F0BFCFA4CFDC018C91CE
:1026D000877F8C93EFEAE60FEA3408F04FC0F0E012
:1026E000EC58FC4E0C94E214C613C613BE13BE1372
:1026F000C613C613BE13BE13C613C613BE13BE1332
:10270000BE13BE13BE13BE13C613C613BE13BE1331
:10271000C613C613BE13BE13C613C613BE13BE1311
:10272000BE13BE13BE13BE13C613C613BE13BE1311
:10273000C613C613BE13BE13C613C613BE13BE13F1
:10274000BE13BE13BE13BE13C613C613BE13BE13F1
:10275000C613C613BE13BE13C613C613BE13BE13D1
:10276000BE13BE13BE13BE13C613C613BE13BE13D1
:10277000C613C613BE13BE13C613C61383EB90E075
:1027800013969C938E93129780E00895862F837002
:10279000813029F0823079F18FEF9FEFF1CF1B96D6
:1027A0001C921B9770E0CB01959587959595879521
:1027B000837099278130910519F18230910529F1B3
:1027C000892B51F71A961C921A9784E07595679594
:1027D0008A95E1F76730710529F1CCF481E0663024
:1027E0007105E1F014961C92149713961C921E9298
:1027F000129781E0089581E01B968C931B97D2CFAE
:1028000081E01A968C931A97E0CF82E0FACF683075
:10281000710551F087E06930710521F714968C93AA
:102820001497E3CF82E0FACF83E0F8CF0F931F93A2
:10283000CF93DF93EC01122F0E94E6128823F9F068
:10284000612FCE010E94D5128823C9F0602FCE01DE
:102850000E946613882399F08CEF91E190930E0704
:1028600080930D071092100710920F0782E080935B
:10287000080710921207109211071B821A82DF912B
:10288000CF911F910F9108950895089508951F9273
:102890000F920FB60F9211242F933F934F935F9394
:1028A0006F937F938F939F93AF93BF93EF93FF9318
:1028B0000E944414FF91EF91BF91AF919F918F912E
:1028C0007F916F915F914F913F912F910F900FBE2C
:1028D0000F901F9018951F920F920FB60F92112410
:1028E0002F933F934F935F936F937F938F939F9318
:1028F000AF93BF93EF93FF930E944614FF91EF9124
:10290000BF91AF919F918F917F916F915F914F9107
:102910003F912F910F900FBE0F901F9018951F920F
:102920000F920FB60F9211242F933F934F935F9303
:102930006F937F938F939F93AF93BF93EF93FF9387
:102940000E944514FF91EF91BF91AF919F918F919C
:102950007F916F915F914F913F912F910F900FBE9B
:102960000F901F9018950F9301E820E040E855E282
:1029700060E070E083E197E00E9416140F910895E3
:10298000A1E21A2EAA1BBB1BFD010DC0AA1FBB1F73
:10299000EE1FFF1FA217B307E407F50720F0A21BE5
:1029A000B30BE40BF50B661F771F881F991F1A9452
:1029B00069F760957095809590959B01AC01BD017C
:1029C000CF010895EE0FFF1F0590F491E02D0994BB
:1029D000A29FB001B39FC001A39F700D811D112460
:1029E000911DB29F700D811D1124911D08950E94AB
:1029F000E814A59F900DB49F900DA49F800D911D8C
:102A00001124089597FD1094002E083098F0085076
:102A1000232F342F452F562F672F782F892F912D55
:102A2000F4CF159497958795779567955795479522
:102A3000379527950A95AAF71124002D0895505827
:102A4000BB27AA270E9437150C9481160E94731683
:102A500038F00E947A1620F039F49F3F19F426F4DA
:102A60000C9470160EF4E095E7FB0C946A16E92FAF
:102A70000E94921658F3BA176207730784079507E6
:102A800020F079F4A6F50C94B4160EF4E0950B2E14
:102A9000BA2FA02D0B01B90190010C01CA01A001B0
:102AA0001124FF27591B99F0593F50F4503E68F10B
:102AB0001A16F040A22F232F342F4427585FF3CF4C
:102AC000469537952795A795F0405395C9F77EF41D
:102AD0001F16BA0B620B730B840BBAF09150A1F066
:102AE000FF0FBB1F661F771F881FC2F70EC0BA0FEC
:102AF000621F731F841F48F4879577956795B79574
:102B0000F7959E3F08F0B0CF9395880F08F099276E
:102B1000EE0F9795879508950E94A0150C94811645
:102B20000E947A1658F00E94731640F029F45F3F15
:102B300029F00C946A1651110C94B5160C94701669
:102B40000E94921668F39923B1F3552391F3951BD4
:102B5000550BBB27AA2762177307840738F09F5FBE
:102B60005F4F220F331F441FAA1FA9F335D00E2E2B
:102B70003AF0E0E832D091505040E695001CCAF798
:102B80002BD0FE2F29D0660F771F881FBB1F26175B
:102B900037074807AB07B0E809F0BB0B802DBF0132
:102BA000FF2793585F4F3AF09E3F510578F00C9401
:102BB0006A160C94B5165F3FE4F3983ED4F38695FD
:102BC00077956795B795F7959F5FC9F7880F911D22
:102BD0009695879597F90895E1E0660F771F881F0E
:102BE000BB1F621773078407BA0720F0621B730BC1
:102BF000840BBA0BEE1F88F7E09508950E949A1691
:102C000088F09F5798F0B92F9927B751B0F0E1F0AD
:102C1000660F771F881F991F1AF0BA95C9F714C05D
:102C2000B13091F00E94B416B1E008950C94B4163E
:102C3000672F782F8827B85F39F0B93FCCF3869596
:102C400077956795B395D9F73EF4909580957095F3
:102C500061957F4F8F4F9F4F0895E89409C097FB70
:102C60003EF490958095709561957F4F8F4F9F4F63
:102C70009923A9F0F92F96E9BB279395F6958795A7
:102C800077956795B795F111F8CFFAF4BB0F11F46A
:102C900060FF1BC06F5F7F4F8F4F9F4F16C0882311
:102CA00011F096E911C0772321F09EE8872F762F47
:102CB00005C0662371F096E8862F70E060E02AF088
:102CC0009A95660F771F881FDAF7880F9695879574
:102CD00097F9089597F99F6780E870E060E008959C
:102CE0009FEF80EC089500240A9416161706180624
:102CF0000906089500240A94121613061406050600
:102D00000895092E0394000C11F4882352F0BB0F90
:102D100040F4BF2B11F460FF04C06F5F7F4F8F4FF3
:102D20009F4F089557FD9058440F551F59F05F3F2E
:102D300071F04795880F97FB991F61F09F3F79F0DD
:102D400087950895121613061406551FF2CF46955F
:102D5000F1DF08C0161617061806991FF1CF8695E1
:102D60007105610508940895E894BB2766277727C5
:102D7000CB0197F908950E942D1708F48FEF08955D
:102D80000E94D3160C9481160E94731638F00E948C
:102D90007A1620F0952311F00C946A160C94701694
:102DA00011240C94B5160E94921670F3959FC1F3EE
:102DB000950F50E0551F629FF001729FBB27F00DE9
:102DC000B11D639FAA27F00DB11DAA1F649F66273E
:102DD000B00DA11D661F829F2227B00DA11D621F8D
:102DE000739FB00DA11D621F839FA00D611D221F47
:102DF000749F3327A00D611D231F849F600D211D2B
:102E0000822F762F6A2F11249F5750409AF0F1F0AD
:102E100088234AF0EE0FFF1FBB1F661F771F881F16
:102E200091505040A9F79E3F510580F00C946A16CE
:102E30000C94B5165F3FE4F3983ED4F386957795EE
:102E40006795B795F795E7959F5FC1F7FE2B880FBC
:102E5000911D9695879597F90895990F0008550F3C
:102E6000AA0BE0E8FEEF16161706E807F907C0F010
:102E700012161306E407F50798F0621B730B840B18
:102E8000950B39F40A2661F0232B242B252B21F4F2
:102E900008950A2609F4A140A6958FEF811D811D92
:102EA0000895FB01DC0102C005900D924150504095
:102EB000D8F70895B0E0A0E0E0E6F7E10C94591AE5
:102EC000AE014B5F5F4FFA0161917191AF0180914B
:102ED0002107909122070E94CB17E2E00C94751A0B
:102EE0000F931F93CF93DF93E0912107F091220777
:102EF0002381EC0110E000E021FD08C00FEF1FEF7F
:102F000014C00995892B11F00FEF1FEF8991609183
:102F1000210770912207DB011896ED91FC91811138
:102F2000F0CF8AE00995892B49F7C801DF91CF914D
:102F30001F910F910895AEE0B0E0E1EAF7E10C9443
:102F4000571A0D891E898F89988D26E02C831A8344
:102F5000098397FF02C080E090E801979E838D83EC
:102F6000AE01455E5F4F698D7A8DCE0101960E945C
:102F7000CB174D815E8157FD0AC02F8138854217DE
:102F800053070CF49A01020F131FF80110822E96BA
:102F9000E4E00C94731AABE0B0E0E1EDF7E10C94DF
:102FA000491A7C013B018A01FC0117821682838148
:102FB00081FFC8C1CE0101965C01F7019381F30145
:102FC00093FD859193FF81913F01882309F453C1BB
:102FD000853239F493FD859193FF81913F018532CC
:102FE00029F4B70190E00E94BB19E7CF912C212C66
:102FF000312CFFE1F31538F08B3211F190F480326F
:1030000009F1833229F137FC3CC020ED280F2A302A
:1030100050F536FE20C08AE0989E200D1124922E95
:1030200006C08D3291F0803371F7689430F8F30167
:1030300093FD859193FF81913F018111DACF21C0EA
:10304000689431F8689432F8F2CF689433F8EFCF8F
:10305000689434F8ECCFEAE02E9E200D1124222E45
:10306000689435F8E4CF8E3229F436FC04C16894B4
:1030700036F8DDCF8C3619F4689437F8D8CF883617
:10308000B1F2982F9F7D95549330E0F08336A1F1F3
:103090008337C1F1833509F063C02801F2E04F0E98
:1030A000511CF801C080D180692D70E036FC02C04F
:1030B0006FEF7FEFC6010E94A5194C01689437F8A5
:1030C00082010AC00C5F1F4FFFE3F98388248394B9
:1030D000912C6501E89437F833FE2DC0522C8114F1
:1030E000910471F5552009F468CFB70180E290E0B2
:1030F0000E94BB195A94F6CFF801808189830E5F34
:103100001F4FE4CF2801F2E04F0E511CF801C080A0
:10311000D180692D70E036FC02C06FEF7FEFC601F1
:103120000E94B0194C018201D5CFB70180E290E036
:103130000E94BB192A942814190409F0B0F7CECFC5
:10314000F60137FC859137FE81916F01B70190E060
:103150000E94BB1951105A94F1E08F1A9108BFCF09
:10316000843619F0893609F077C0F80137FE6BC054
:1031700060817181828193810C5F1F4FF32DFF76F7
:103180003F2E97FF09C090958095709561957F4F70
:103190008F4F9F4F689437F82AE030E0A5010E94D6
:1031A000EB19C82ECA188C2C432C36FE0CC0E894A0
:1031B00040F8C91440F434FE05C032FC03C0F32DBE
:1031C000FE7E4F2E892C44FE95C0FE01EC0DF11DB4
:1031D0008081803309F087C0242D297E422E842DE2
:1031E0008870582E43FC95C040FE8FC09C2C8214E2
:1031F00018F42C0C922C981844FE91C0B70180E36F
:1032000090E00E94BB1942FE09C088E790E041FEB1
:1032100002C088E590E0B7010E94BB19C91408F408
:103220008AC0CA94D12C9FEFC91AD90ACA0CDB1CD8
:10323000F60182916F01B70190E00E94BB19AC14B6
:10324000BD04B1F74FCF60817181072E000C880B50
:10325000990B0E5F1F4F92CFD32CE894D4F82AE03D
:1032600030E0853739F1232D297FD22E8F3601F1B9
:1032700048F48835A9F0F701868197812B96E2E121
:103280000C94651A803749F08837A9F7D4FE02C03C
:103290006894D2F820E130E00DC06894D4F8F6CFFD
:1032A00034FE03C0822F8660D82E20E132E002C0B7
:1032B00028E030E0F801D7FE0FC060817181828183
:1032C00093810C5F1F4FA5010E94EB19C82ECA18ED
:1032D0003D2CE89437F867CF6081718190E080E001
:1032E0000E5F1F4FF0CF42FC02C0839478CF8394CF
:1032F000839475CF842D867809F471CFF6CFB7010A
:1033000080E290E00E94BB1983948214C0F3512C98
:1033100073CF522C5818821408F46ECFF8CF842D36
:10332000867809F47BCF8BE241FE80E247FC8DE298
:10333000B70190E071CFB70180E390E00E94BB1924
:103340009A946CCF8FEF9FEF99CFFC01059061505D
:1033500070400110D8F7809590958E0F9F1F0895AB
:10336000FC016150704001900110D8F78095909554
:103370008E0F9F1F08950F931F93CF93DF93182FE6
:10338000092FEB018B8181FD09C01FEF0FEF812F0A
:10339000902FDF91CF911F910F91089582FF14C05C
:1033A0002E813F818C819D81281739073CF4E8816B
:1033B000F981CF0101969983888310838E819F8143
:1033C00001969F838E83E3CFE885F985812F099548
:1033D000892BA1F3DACFFA01AA27283051F1203145
:1033E00081F1E8946F936E7F6E5F7F4F8F4F9F4F99
:1033F000AF4FB1E03ED0B4E03CD0670F781F891FDB
:103400009A1FA11D680F791F8A1F911DA11D6A0FA8
:10341000711D811D911DA11D20D009F468943F915B
:103420002AE0269F11243019305D3193DEF6CF015A
:103430000895462F4770405D4193B3E00FD0C9F720
:10344000F6CF462F4F70405D4A3318F0495D31FD8D
:103450004052419302D0A9F7EACFB4E0A6959795E0
:10346000879577956795BA95C9F7009761057105B6
:1034700008959B01AC010A2E069457954795379500
:103480002795BA95C9F7620F731F841F951FA01D5A
:1034900008952F923F924F925F926F927F928F92F8
:1034A0009F92AF92BF92CF92DF92EF92FF920F93D3
:1034B0001F93CF93DF93CDB7DEB7CA1BDB0B0FB6DD
:1034C000F894DEBF0FBECDBF09942A88398848889A
:1034D0005F846E847D848C849B84AA84B984C88430
:1034E000DF80EE80FD800C811B81AA81B981CE0F27
:1034F000D11D0FB6F894DEBF0FBECDBFED0108950C
:04350000F894FFCF6D
:10350400105245443A20256C7520092049523A202E
:10351400256C750D0A005245443A2025750A0D00A4
:1035240049523A202025750A0D002D3D4946534342
:103534003D2D005061756C6F0042504D3A20257549
:103544002E253032750A0D005B30315D2050726FCC
:103554006772616D6120696E696369616E646F2071
:103564002D2D2D2D2D200D005B30325D20556172E7
:10357400742020202020696E69636961646F2020B3
:103584002D2D2D2D2D200D005B30335D20496E74C3
:10359400657272757020686162696C6974616461D6
:1035A40073202D2D2D2D2D200D005B30345D2049F1
:1035B4004E54312020202020636F6E666967757237
:1035C40061646F202D2D2D2D2D200D005B30355D78
:1035D40020446973706C61792020696E6963696144
:1035E400646F20202D2D2D2D2D200D005B30365D98
:1035F4002054656C612020202020696E6963696114
:103604006C202020202D2D2D2D2D200D002D3D3022
:10361400313D2D204D415833303130322066616CBC
:10362400686F7520202020202D2D2D2D2D200D009C
:103634005B30375D204D4158333031303220696E74
:1036440069636961646F20202D2D2D2D2D200D00BF
:103654005B30385D2054494D455230202020696E3E
:1036640069636961646F20202D2D2D2D2D200D009F
:103674005B30395D20494E54302020202020636F78
:103684006E666967757261646F202D2D2D2D2D2056
:103694000D005B31305D2042504D2070726F6365C8
:1036A400737361646F202D2D2D2D2D200D005B3142
:1036B400312E315D20416E7469676F2062706D2018
:1036C400646566617361646F202D2D2D2D2D200D91
:1036D400005B31325D2042504D2065786962696437
:1036E4006F202D2D2D2D2D200D005B58585D20446D
:1036F4004542554720544F47474C450D0020202054
:10370400202064656275675F726479205B25645D5F
:043714000D0A00009A
:00000001FF
